{
  "contractName": "BasicMath",
  "abi": [
    {
      "inputs": [
        {
          "internalType": "uint256",
          "name": "x",
          "type": "uint256"
        },
        {
          "internalType": "uint256",
          "name": "y",
          "type": "uint256"
        }
      ],
      "name": "add",
      "outputs": [
        {
          "internalType": "uint256",
          "name": "",
          "type": "uint256"
        }
      ],
      "stateMutability": "pure",
      "type": "function",
      "constant": true
    },
    {
      "inputs": [
        {
          "internalType": "uint256",
          "name": "x",
          "type": "uint256"
        },
        {
          "internalType": "uint256",
          "name": "y",
          "type": "uint256"
        }
      ],
      "name": "subtract",
      "outputs": [
        {
          "internalType": "uint256",
          "name": "",
          "type": "uint256"
        }
      ],
      "stateMutability": "pure",
      "type": "function",
      "constant": true
    },
    {
      "inputs": [
        {
          "internalType": "uint256",
          "name": "x",
          "type": "uint256"
        },
        {
          "internalType": "uint256",
          "name": "y",
          "type": "uint256"
        }
      ],
      "name": "multiply",
      "outputs": [
        {
          "internalType": "uint256",
          "name": "",
          "type": "uint256"
        }
      ],
      "stateMutability": "pure",
      "type": "function",
      "constant": true
    },
    {
      "inputs": [
        {
          "internalType": "uint256",
          "name": "x",
          "type": "uint256"
        },
        {
          "internalType": "uint256",
          "name": "y",
          "type": "uint256"
        }
      ],
      "name": "divide",
      "outputs": [
        {
          "internalType": "uint256",
          "name": "",
          "type": "uint256"
        }
      ],
      "stateMutability": "pure",
      "type": "function",
      "constant": true
    },
    {
      "inputs": [
        {
          "internalType": "uint256",
          "name": "x",
          "type": "uint256"
        },
        {
          "internalType": "uint256",
          "name": "y",
          "type": "uint256"
        },
        {
          "internalType": "uint256",
          "name": "z",
          "type": "uint256"
        }
      ],
      "name": "sum",
      "outputs": [
        {
          "internalType": "uint256",
          "name": "",
          "type": "uint256"
        }
      ],
      "stateMutability": "pure",
      "type": "function",
      "constant": true
    },
    {
      "inputs": [
        {
          "internalType": "uint256",
          "name": "x",
          "type": "uint256"
        },
        {
          "internalType": "uint256",
          "name": "y",
          "type": "uint256"
        },
        {
          "internalType": "uint256",
          "name": "z",
          "type": "uint256"
        }
      ],
      "name": "average",
      "outputs": [
        {
          "internalType": "uint256",
          "name": "",
          "type": "uint256"
        }
      ],
      "stateMutability": "pure",
      "type": "function",
      "constant": true
    }
  ],
  "bytecode": "0x608060405234801561000f575f80fd5b5061043c8061001d5f395ff3fe608060405234801561000f575f80fd5b5060043610610060575f3560e01c80630c82680914610064578063165c4a16146100945780633ef5e445146100c4578063771602f7146100f45780639450268b14610124578063f88e9fbf14610154575b5f80fd5b61007e6004803603810190610079919061021f565b610184565b60405161008b919061027e565b60405180910390f35b6100ae60048036038101906100a99190610297565b61018c565b6040516100bb919061027e565b60405180910390f35b6100de60048036038101906100d99190610297565b6101a1565b6040516100eb919061027e565b60405180910390f35b61010e60048036038101906101099190610297565b6101b6565b60405161011b919061027e565b60405180910390f35b61013e6004803603810190610139919061021f565b6101cb565b60405161014b919061027e565b60405180910390f35b61016e60048036038101906101699190610297565b6101d3565b60405161017b919061027e565b60405180910390f35b5f9392505050565b5f81836101999190610302565b905092915050565b5f81836101ae9190610343565b905092915050565b5f81836101c39190610376565b905092915050565b5f9392505050565b5f81836101e091906103d6565b905092915050565b5f80fd5b5f819050919050565b6101fe816101ec565b8114610208575f80fd5b50565b5f81359050610219816101f5565b92915050565b5f805f60608486031215610236576102356101e8565b5b5f6102438682870161020b565b93505060206102548682870161020b565b92505060406102658682870161020b565b9150509250925092565b610278816101ec565b82525050565b5f6020820190506102915f83018461026f565b92915050565b5f80604083850312156102ad576102ac6101e8565b5b5f6102ba8582860161020b565b92505060206102cb8582860161020b565b9150509250929050565b7f4e487b71000000000000000000000000000000000000000000000000000000005f52601160045260245ffd5b5f61030c826101ec565b9150610317836101ec565b9250828202610325816101ec565b9150828204841483151761033c5761033b6102d5565b5b5092915050565b5f61034d826101ec565b9150610358836101ec565b92508282039050818111156103705761036f6102d5565b5b92915050565b5f610380826101ec565b915061038b836101ec565b92508282019050808211156103a3576103a26102d5565b5b92915050565b7f4e487b71000000000000000000000000000000000000000000000000000000005f52601260045260245ffd5b5f6103e0826101ec565b91506103eb836101ec565b9250826103fb576103fa6103a9565b5b82820490509291505056fea26469706673582212202efb5965c1644ab6ff347b30d502f70c7d7f9da087420925d3a4eefc3c91232064736f6c63430008150033",
  "immutableReferences": {},
  "source": "// SPDX-License-Identifier: MIT\npragma solidity >=0.4.22 <0.9.0;\n\ncontract BasicMath {\n  function add(uint x, uint y) pure public returns (uint) {\n    return x + y;\n  }\n  function subtract(uint x, uint y) pure public returns (uint) {\n    return x - y;\n  }\n  function multiply(uint x, uint y) pure public returns (uint) {\n    return x * y;\n  }\n  function divide(uint x, uint y) pure public returns (uint) {\n    return x / y;\n  }\n  function sum(uint x, uint y, uint z) pure public returns (uint) {\n    return 0;\n  }\n  function average(uint x, uint y, uint z) pure public returns (uint) {\n    return 0;\n  }\n}",
  "sourcePath": "D:\\Ken\\SS-3\\CE340\\2-66 Training\\dapp-tutorial\\contracts\\BasicMath.sol",
  "compiler": {
    "name": "solc",
    "version": "0.8.21+commit.d9974bed.Emscripten.clang"
  },
  "schemaVersion": "3.4.16",
  "updatedAt": "2024-02-19T03:11:54.205Z",
  "networkType": "ethereum",
  "devdoc": {
    "kind": "dev",
    "methods": {},
    "version": 1
  },
  "userdoc": {
    "kind": "user",
    "methods": {},
    "version": 1
  }
}