{
  "contractName": "BasicMath",
  "abi": [
    {
      "inputs": [
        {
          "internalType": "uint256",
          "name": "x",
          "type": "uint256"
        },
        {
          "internalType": "uint256",
          "name": "y",
          "type": "uint256"
        }
      ],
      "name": "add",
      "outputs": [
        {
          "internalType": "uint256",
          "name": "",
          "type": "uint256"
        }
      ],
      "stateMutability": "pure",
      "type": "function",
      "constant": true
    },
    {
      "inputs": [
        {
          "internalType": "uint256",
          "name": "x",
          "type": "uint256"
        },
        {
          "internalType": "uint256",
          "name": "y",
          "type": "uint256"
        }
      ],
      "name": "subtract",
      "outputs": [
        {
          "internalType": "uint256",
          "name": "",
          "type": "uint256"
        }
      ],
      "stateMutability": "pure",
      "type": "function",
      "constant": true
    },
    {
      "inputs": [
        {
          "internalType": "uint256",
          "name": "x",
          "type": "uint256"
        },
        {
          "internalType": "uint256",
          "name": "y",
          "type": "uint256"
        }
      ],
      "name": "multiply",
      "outputs": [
        {
          "internalType": "uint256",
          "name": "",
          "type": "uint256"
        }
      ],
      "stateMutability": "pure",
      "type": "function",
      "constant": true
    },
    {
      "inputs": [
        {
          "internalType": "uint256",
          "name": "x",
          "type": "uint256"
        },
        {
          "internalType": "uint256",
          "name": "y",
          "type": "uint256"
        }
      ],
      "name": "divide",
      "outputs": [
        {
          "internalType": "uint256",
          "name": "",
          "type": "uint256"
        }
      ],
      "stateMutability": "pure",
      "type": "function",
      "constant": true
    },
    {
      "inputs": [
        {
          "internalType": "uint256",
          "name": "x",
          "type": "uint256"
        },
        {
          "internalType": "uint256",
          "name": "y",
          "type": "uint256"
        },
        {
          "internalType": "uint256",
          "name": "z",
          "type": "uint256"
        }
      ],
      "name": "sum",
      "outputs": [
        {
          "internalType": "uint256",
          "name": "",
          "type": "uint256"
        }
      ],
      "stateMutability": "pure",
      "type": "function",
      "constant": true
    },
    {
      "inputs": [
        {
          "internalType": "uint256",
          "name": "x",
          "type": "uint256"
        },
        {
          "internalType": "uint256",
          "name": "y",
          "type": "uint256"
        },
        {
          "internalType": "uint256",
          "name": "z",
          "type": "uint256"
        }
      ],
      "name": "average",
      "outputs": [
        {
          "internalType": "uint256",
          "name": "",
          "type": "uint256"
        }
      ],
      "stateMutability": "pure",
      "type": "function",
      "constant": true
    }
  ],
  "bytecode": "0x608060405234801561000f575f80fd5b5061047a8061001d5f395ff3fe608060405234801561000f575f80fd5b5060043610610060575f3560e01c80630c82680914610064578063165c4a16146100945780633ef5e445146100c4578063771602f7146100f45780639450268b14610124578063f88e9fbf14610154575b5f80fd5b61007e6004803603810190610079919061025d565b610184565b60405161008b91906102bc565b60405180910390f35b6100ae60048036038101906100a991906102d5565b6101b1565b6040516100bb91906102bc565b60405180910390f35b6100de60048036038101906100d991906102d5565b6101c6565b6040516100eb91906102bc565b60405180910390f35b61010e600480360381019061010991906102d5565b6101db565b60405161011b91906102bc565b60405180910390f35b61013e6004803603810190610139919061025d565b6101f0565b60405161014b91906102bc565b60405180910390f35b61016e600480360381019061016991906102d5565b610211565b60405161017b91906102bc565b60405180910390f35b5f60038284866101949190610340565b61019e9190610340565b6101a891906103a0565b90509392505050565b5f81836101be91906103d0565b905092915050565b5f81836101d39190610411565b905092915050565b5f81836101e89190610340565b905092915050565b5f8183856101fe9190610340565b6102089190610340565b90509392505050565b5f818361021e91906103a0565b905092915050565b5f80fd5b5f819050919050565b61023c8161022a565b8114610246575f80fd5b50565b5f8135905061025781610233565b92915050565b5f805f6060848603121561027457610273610226565b5b5f61028186828701610249565b935050602061029286828701610249565b92505060406102a386828701610249565b9150509250925092565b6102b68161022a565b82525050565b5f6020820190506102cf5f8301846102ad565b92915050565b5f80604083850312156102eb576102ea610226565b5b5f6102f885828601610249565b925050602061030985828601610249565b9150509250929050565b7f4e487b71000000000000000000000000000000000000000000000000000000005f52601160045260245ffd5b5f61034a8261022a565b91506103558361022a565b925082820190508082111561036d5761036c610313565b5b92915050565b7f4e487b71000000000000000000000000000000000000000000000000000000005f52601260045260245ffd5b5f6103aa8261022a565b91506103b58361022a565b9250826103c5576103c4610373565b5b828204905092915050565b5f6103da8261022a565b91506103e58361022a565b92508282026103f38161022a565b9150828204841483151761040a57610409610313565b5b5092915050565b5f61041b8261022a565b91506104268361022a565b925082820390508181111561043e5761043d610313565b5b9291505056fea2646970667358221220536f9a78988da444211f31a09d69519ed4f1301146b69d297bfe0f1e36c88b9964736f6c63430008150033",
  "immutableReferences": {},
  "source": "// SPDX-License-Identifier: MIT\npragma solidity >=0.4.22 <0.9.0;\n\ncontract BasicMath {\n  function add(uint x, uint y) pure public returns (uint) {\n    return x + y;\n  }\n  function subtract(uint x, uint y) pure public returns (uint) {\n    return x - y;\n  }\n  function multiply(uint x, uint y) pure public returns (uint) {\n    return x * y;\n  }\n  function divide(uint x, uint y) pure public returns (uint) {\n    return x / y;\n  }\n  function sum(uint x, uint y, uint z) pure public returns (uint) {\n    return x + y + z;\n  }\n  function average(uint x, uint y, uint z) pure public returns (uint) {\n    return (x + y + z) / 3;\n  }\n}",
  "sourcePath": "/Users/kennoluv/Desktop/Work/CE340/2-66 Training/dapp-tutorial/contracts/BasicMath.sol",
  "compiler": {
    "name": "solc",
    "version": "0.8.21+commit.d9974bed.Emscripten.clang"
  },
  "schemaVersion": "3.4.16",
  "updatedAt": "2024-03-21T14:48:57.401Z",
  "networkType": "ethereum",
  "devdoc": {
    "kind": "dev",
    "methods": {},
    "version": 1
  },
  "userdoc": {
    "kind": "user",
    "methods": {},
    "version": 1
  }
}