{
  "contractName": "ERC721PartialOwnership",
  "abi": [
    {
      "inputs": [
        {
          "internalType": "string",
          "name": "name",
          "type": "string"
        },
        {
          "internalType": "string",
          "name": "symbol",
          "type": "string"
        }
      ],
      "stateMutability": "nonpayable",
      "type": "constructor"
    },
    {
      "inputs": [
        {
          "internalType": "address",
          "name": "sender",
          "type": "address"
        },
        {
          "internalType": "uint256",
          "name": "tokenId",
          "type": "uint256"
        },
        {
          "internalType": "address",
          "name": "owner",
          "type": "address"
        }
      ],
      "name": "ERC721IncorrectOwner",
      "type": "error"
    },
    {
      "inputs": [
        {
          "internalType": "address",
          "name": "operator",
          "type": "address"
        },
        {
          "internalType": "uint256",
          "name": "tokenId",
          "type": "uint256"
        }
      ],
      "name": "ERC721InsufficientApproval",
      "type": "error"
    },
    {
      "inputs": [
        {
          "internalType": "address",
          "name": "approver",
          "type": "address"
        }
      ],
      "name": "ERC721InvalidApprover",
      "type": "error"
    },
    {
      "inputs": [
        {
          "internalType": "address",
          "name": "operator",
          "type": "address"
        }
      ],
      "name": "ERC721InvalidOperator",
      "type": "error"
    },
    {
      "inputs": [
        {
          "internalType": "address",
          "name": "owner",
          "type": "address"
        }
      ],
      "name": "ERC721InvalidOwner",
      "type": "error"
    },
    {
      "inputs": [
        {
          "internalType": "address",
          "name": "receiver",
          "type": "address"
        }
      ],
      "name": "ERC721InvalidReceiver",
      "type": "error"
    },
    {
      "inputs": [
        {
          "internalType": "address",
          "name": "sender",
          "type": "address"
        }
      ],
      "name": "ERC721InvalidSender",
      "type": "error"
    },
    {
      "inputs": [
        {
          "internalType": "uint256",
          "name": "tokenId",
          "type": "uint256"
        }
      ],
      "name": "ERC721NonexistentToken",
      "type": "error"
    },
    {
      "anonymous": false,
      "inputs": [
        {
          "indexed": true,
          "internalType": "address",
          "name": "owner",
          "type": "address"
        },
        {
          "indexed": true,
          "internalType": "address",
          "name": "approved",
          "type": "address"
        },
        {
          "indexed": true,
          "internalType": "uint256",
          "name": "tokenId",
          "type": "uint256"
        }
      ],
      "name": "Approval",
      "type": "event"
    },
    {
      "anonymous": false,
      "inputs": [
        {
          "indexed": true,
          "internalType": "address",
          "name": "owner",
          "type": "address"
        },
        {
          "indexed": true,
          "internalType": "address",
          "name": "operator",
          "type": "address"
        },
        {
          "indexed": false,
          "internalType": "bool",
          "name": "approved",
          "type": "bool"
        }
      ],
      "name": "ApprovalForAll",
      "type": "event"
    },
    {
      "anonymous": false,
      "inputs": [
        {
          "indexed": true,
          "internalType": "address",
          "name": "from",
          "type": "address"
        },
        {
          "indexed": true,
          "internalType": "address",
          "name": "to",
          "type": "address"
        },
        {
          "indexed": true,
          "internalType": "uint256",
          "name": "tokenId",
          "type": "uint256"
        }
      ],
      "name": "Transfer",
      "type": "event"
    },
    {
      "inputs": [
        {
          "internalType": "address",
          "name": "to",
          "type": "address"
        },
        {
          "internalType": "uint256",
          "name": "tokenId",
          "type": "uint256"
        }
      ],
      "name": "approve",
      "outputs": [],
      "stateMutability": "nonpayable",
      "type": "function"
    },
    {
      "inputs": [
        {
          "internalType": "address",
          "name": "owner",
          "type": "address"
        }
      ],
      "name": "balanceOf",
      "outputs": [
        {
          "internalType": "uint256",
          "name": "",
          "type": "uint256"
        }
      ],
      "stateMutability": "view",
      "type": "function",
      "constant": true
    },
    {
      "inputs": [
        {
          "internalType": "uint256",
          "name": "tokenId",
          "type": "uint256"
        }
      ],
      "name": "getApproved",
      "outputs": [
        {
          "internalType": "address",
          "name": "",
          "type": "address"
        }
      ],
      "stateMutability": "view",
      "type": "function",
      "constant": true
    },
    {
      "inputs": [
        {
          "internalType": "address",
          "name": "owner",
          "type": "address"
        },
        {
          "internalType": "address",
          "name": "operator",
          "type": "address"
        }
      ],
      "name": "isApprovedForAll",
      "outputs": [
        {
          "internalType": "bool",
          "name": "",
          "type": "bool"
        }
      ],
      "stateMutability": "view",
      "type": "function",
      "constant": true
    },
    {
      "inputs": [],
      "name": "name",
      "outputs": [
        {
          "internalType": "string",
          "name": "",
          "type": "string"
        }
      ],
      "stateMutability": "view",
      "type": "function",
      "constant": true
    },
    {
      "inputs": [
        {
          "internalType": "uint256",
          "name": "tokenId",
          "type": "uint256"
        }
      ],
      "name": "ownerOf",
      "outputs": [
        {
          "internalType": "address",
          "name": "",
          "type": "address"
        }
      ],
      "stateMutability": "view",
      "type": "function",
      "constant": true
    },
    {
      "inputs": [
        {
          "internalType": "address",
          "name": "from",
          "type": "address"
        },
        {
          "internalType": "address",
          "name": "to",
          "type": "address"
        },
        {
          "internalType": "uint256",
          "name": "tokenId",
          "type": "uint256"
        }
      ],
      "name": "safeTransferFrom",
      "outputs": [],
      "stateMutability": "nonpayable",
      "type": "function"
    },
    {
      "inputs": [
        {
          "internalType": "address",
          "name": "from",
          "type": "address"
        },
        {
          "internalType": "address",
          "name": "to",
          "type": "address"
        },
        {
          "internalType": "uint256",
          "name": "tokenId",
          "type": "uint256"
        },
        {
          "internalType": "bytes",
          "name": "data",
          "type": "bytes"
        }
      ],
      "name": "safeTransferFrom",
      "outputs": [],
      "stateMutability": "nonpayable",
      "type": "function"
    },
    {
      "inputs": [
        {
          "internalType": "address",
          "name": "operator",
          "type": "address"
        },
        {
          "internalType": "bool",
          "name": "approved",
          "type": "bool"
        }
      ],
      "name": "setApprovalForAll",
      "outputs": [],
      "stateMutability": "nonpayable",
      "type": "function"
    },
    {
      "inputs": [
        {
          "internalType": "bytes4",
          "name": "interfaceId",
          "type": "bytes4"
        }
      ],
      "name": "supportsInterface",
      "outputs": [
        {
          "internalType": "bool",
          "name": "",
          "type": "bool"
        }
      ],
      "stateMutability": "view",
      "type": "function",
      "constant": true
    },
    {
      "inputs": [],
      "name": "symbol",
      "outputs": [
        {
          "internalType": "string",
          "name": "",
          "type": "string"
        }
      ],
      "stateMutability": "view",
      "type": "function",
      "constant": true
    },
    {
      "inputs": [
        {
          "internalType": "uint256",
          "name": "tokenId",
          "type": "uint256"
        }
      ],
      "name": "tokenURI",
      "outputs": [
        {
          "internalType": "string",
          "name": "",
          "type": "string"
        }
      ],
      "stateMutability": "view",
      "type": "function",
      "constant": true
    },
    {
      "inputs": [
        {
          "internalType": "address",
          "name": "from",
          "type": "address"
        },
        {
          "internalType": "address",
          "name": "to",
          "type": "address"
        },
        {
          "internalType": "uint256",
          "name": "tokenId",
          "type": "uint256"
        }
      ],
      "name": "transferFrom",
      "outputs": [],
      "stateMutability": "nonpayable",
      "type": "function"
    },
    {
      "inputs": [
        {
          "internalType": "address[]",
          "name": "owners",
          "type": "address[]"
        },
        {
          "internalType": "uint256[]",
          "name": "shares",
          "type": "uint256[]"
        }
      ],
      "name": "mint",
      "outputs": [
        {
          "internalType": "uint256",
          "name": "",
          "type": "uint256"
        }
      ],
      "stateMutability": "nonpayable",
      "type": "function"
    },
    {
      "inputs": [
        {
          "internalType": "uint256",
          "name": "tokenId",
          "type": "uint256"
        }
      ],
      "name": "ownershipOf",
      "outputs": [
        {
          "internalType": "address[]",
          "name": "owners",
          "type": "address[]"
        },
        {
          "internalType": "uint256[]",
          "name": "shares",
          "type": "uint256[]"
        }
      ],
      "stateMutability": "view",
      "type": "function",
      "constant": true
    },
    {
      "inputs": [
        {
          "internalType": "uint256",
          "name": "tokenId",
          "type": "uint256"
        },
        {
          "internalType": "address[]",
          "name": "newOwners",
          "type": "address[]"
        },
        {
          "internalType": "uint256[]",
          "name": "newShares",
          "type": "uint256[]"
        }
      ],
      "name": "transferOwnership",
      "outputs": [],
      "stateMutability": "nonpayable",
      "type": "function"
    }
  ],
  "bytecode": "0x608060405234801562000010575f80fd5b50604051620030b0380380620030b08339818101604052810190620000369190620001ea565b8181815f9081620000489190620004a4565b5080600190816200005a9190620004a4565b505050505062000588565b5f604051905090565b5f80fd5b5f80fd5b5f80fd5b5f80fd5b5f601f19601f8301169050919050565b7f4e487b71000000000000000000000000000000000000000000000000000000005f52604160045260245ffd5b620000c6826200007e565b810181811067ffffffffffffffff82111715620000e857620000e76200008e565b5b80604052505050565b5f620000fc62000065565b90506200010a8282620000bb565b919050565b5f67ffffffffffffffff8211156200012c576200012b6200008e565b5b62000137826200007e565b9050602081019050919050565b5f5b838110156200016357808201518184015260208101905062000146565b5f8484015250505050565b5f620001846200017e846200010f565b620000f1565b905082815260208101848484011115620001a357620001a26200007a565b5b620001b084828562000144565b509392505050565b5f82601f830112620001cf57620001ce62000076565b5b8151620001e18482602086016200016e565b91505092915050565b5f80604083850312156200020357620002026200006e565b5b5f83015167ffffffffffffffff81111562000223576200022262000072565b5b6200023185828601620001b8565b925050602083015167ffffffffffffffff81111562000255576200025462000072565b5b6200026385828601620001b8565b9150509250929050565b5f81519050919050565b7f4e487b71000000000000000000000000000000000000000000000000000000005f52602260045260245ffd5b5f6002820490506001821680620002bc57607f821691505b602082108103620002d257620002d162000277565b5b50919050565b5f819050815f5260205f209050919050565b5f6020601f8301049050919050565b5f82821b905092915050565b5f60088302620003367fffffffffffffffffffffffffffffffffffffffffffffffffffffffffffffffff82620002f9565b620003428683620002f9565b95508019841693508086168417925050509392505050565b5f819050919050565b5f819050919050565b5f6200038c6200038662000380846200035a565b62000363565b6200035a565b9050919050565b5f819050919050565b620003a7836200036c565b620003bf620003b68262000393565b84845462000305565b825550505050565b5f90565b620003d5620003c7565b620003e28184846200039c565b505050565b5b818110156200040957620003fd5f82620003cb565b600181019050620003e8565b5050565b601f82111562000458576200042281620002d8565b6200042d84620002ea565b810160208510156200043d578190505b620004556200044c85620002ea565b830182620003e7565b50505b505050565b5f82821c905092915050565b5f6200047a5f19846008026200045d565b1980831691505092915050565b5f62000494838362000469565b9150826002028217905092915050565b620004af826200026d565b67ffffffffffffffff811115620004cb57620004ca6200008e565b5b620004d78254620002a4565b620004e48282856200040d565b5f60209050601f8311600181146200051a575f841562000505578287015190505b62000511858262000487565b86555062000580565b601f1984166200052a86620002d8565b5f5b8281101562000553578489015182556001820191506020850194506020810190506200052c565b868310156200057357848901516200056f601f89168262000469565b8355505b6001600288020188555050505b505050505050565b612b1a80620005965f395ff3fe608060405234801561000f575f80fd5b50600436106100fe575f3560e01c806370a0823111610095578063b88d4fde11610064578063b88d4fde146102bb578063c87b56dd146102d7578063e467f7e014610307578063e985e9c514610337576100fe565b806370a08231146102355780637ced0a421461026557806395d89b4114610281578063a22cb4651461029f576100fe565b8063140364a1116100d1578063140364a11461019c57806323b872dd146101cd57806342842e0e146101e95780636352211e14610205576100fe565b806301ffc9a71461010257806306fdde0314610132578063081812fc14610150578063095ea7b314610180575b5f80fd5b61011c60048036038101906101179190611c5e565b610367565b6040516101299190611ca3565b60405180910390f35b61013a610448565b6040516101479190611d46565b60405180910390f35b61016a60048036038101906101659190611d99565b6104d7565b6040516101779190611e03565b60405180910390f35b61019a60048036038101906101959190611e46565b6104f2565b005b6101b660048036038101906101b19190611d99565b610508565b6040516101c4929190611ff2565b60405180910390f35b6101e760048036038101906101e29190612027565b610605565b005b61020360048036038101906101fe9190612027565b610704565b005b61021f600480360381019061021a9190611d99565b610723565b60405161022c9190611e03565b60405180910390f35b61024f600480360381019061024a9190612077565b610734565b60405161025c91906120b1565b60405180910390f35b61027f600480360381019061027a91906122ca565b6107ea565b005b6102896109fb565b6040516102969190611d46565b60405180910390f35b6102b960048036038101906102b4919061237c565b610a8b565b005b6102d560048036038101906102d0919061246a565b610aa1565b005b6102f160048036038101906102ec9190611d99565b610abe565b6040516102fe9190611d46565b60405180910390f35b610321600480360381019061031c91906124ea565b610b24565b60405161032e91906120b1565b60405180910390f35b610351600480360381019061034c9190612560565b610d1f565b60405161035e9190611ca3565b60405180910390f35b5f7f80ac58cd000000000000000000000000000000000000000000000000000000007bffffffffffffffffffffffffffffffffffffffffffffffffffffffff1916827bffffffffffffffffffffffffffffffffffffffffffffffffffffffff1916148061043157507f5b5e139f000000000000000000000000000000000000000000000000000000007bffffffffffffffffffffffffffffffffffffffffffffffffffffffff1916827bffffffffffffffffffffffffffffffffffffffffffffffffffffffff1916145b80610441575061044082610dad565b5b9050919050565b60605f8054610456906125cb565b80601f0160208091040260200160405190810160405280929190818152602001828054610482906125cb565b80156104cd5780601f106104a4576101008083540402835291602001916104cd565b820191905f5260205f20905b8154815290600101906020018083116104b057829003601f168201915b5050505050905090565b5f6104e182610e16565b506104eb82610e9c565b9050919050565b61050482826104ff610ed5565b610edc565b5050565b6060805f60075f8581526020019081526020015f209050805f0181600101818054806020026020016040519081016040528092919081815260200182805480156105a457602002820191905f5260205f20905b815f9054906101000a900473ffffffffffffffffffffffffffffffffffffffff1673ffffffffffffffffffffffffffffffffffffffff168152602001906001019080831161055b575b50505050509150808054806020026020016040519081016040528092919081815260200182805480156105f457602002820191905f5260205f20905b8154815260200190600101908083116105e0575b505050505090509250925050915091565b5f73ffffffffffffffffffffffffffffffffffffffff168273ffffffffffffffffffffffffffffffffffffffff1603610675575f6040517f64a0ae9200000000000000000000000000000000000000000000000000000000815260040161066c9190611e03565b60405180910390fd5b5f6106888383610683610ed5565b610eee565b90508373ffffffffffffffffffffffffffffffffffffffff168173ffffffffffffffffffffffffffffffffffffffff16146106fe578382826040517f64283d7b0000000000000000000000000000000000000000000000000000000081526004016106f5939291906125fb565b60405180910390fd5b50505050565b61071e83838360405180602001604052805f815250610aa1565b505050565b5f61072d82610e16565b9050919050565b5f8073ffffffffffffffffffffffffffffffffffffffff168273ffffffffffffffffffffffffffffffffffffffff16036107a5575f6040517f89c62b6400000000000000000000000000000000000000000000000000000000815260040161079c9190611e03565b60405180910390fd5b60035f8373ffffffffffffffffffffffffffffffffffffffff1673ffffffffffffffffffffffffffffffffffffffff1681526020019081526020015f20549050919050565b5f60075f8581526020019081526020015f205f018054905011610842576040517f08c379a00000000000000000000000000000000000000000000000000000000081526004016108399061267a565b60405180910390fd5b8051825114610886576040517f08c379a000000000000000000000000000000000000000000000000000000000815260040161087d90612708565b60405180910390fd5b5f8251116108c9576040517f08c379a00000000000000000000000000000000000000000000000000000000081526004016108c090612796565b60405180910390fd5b5f805b8251811015610910578281815181106108e8576108e76127b4565b5b6020026020010151826108fb919061280e565b9150808061090890612841565b9150506108cc565b5060648114610954576040517f08c379a000000000000000000000000000000000000000000000000000000000815260040161094b906128d2565b60405180910390fd5b5f60075f8681526020019081526020015f20905083815f01908051906020019061097f929190611b0b565b5082816001019080519060200190610998929190611b92565b50845f73ffffffffffffffffffffffffffffffffffffffff163373ffffffffffffffffffffffffffffffffffffffff167fddf252ad1be2c89b69c2b068fc378daa952ba7f163c4a11628f55a4df523b3ef60405160405180910390a45050505050565b606060018054610a0a906125cb565b80601f0160208091040260200160405190810160405280929190818152602001828054610a36906125cb565b8015610a815780601f10610a5857610100808354040283529160200191610a81565b820191905f5260205f20905b815481529060010190602001808311610a6457829003601f168201915b5050505050905090565b610a9d610a96610ed5565b83836110f9565b5050565b610aac848484610605565b610ab884848484611262565b50505050565b6060610ac982610e16565b505f610ad3611414565b90505f815111610af15760405180602001604052805f815250610b1c565b80610afb8461142a565b604051602001610b0c92919061292a565b6040516020818303038152906040525b915050919050565b5f8151835114610b69576040517f08c379a0000000000000000000000000000000000000000000000000000000008152600401610b6090612708565b60405180910390fd5b5f835111610bac576040517f08c379a0000000000000000000000000000000000000000000000000000000008152600401610ba390612997565b60405180910390fd5b5f805b8351811015610bf357838181518110610bcb57610bca6127b4565b5b602002602001015182610bde919061280e565b91508080610beb90612841565b915050610baf565b5060648114610c37576040517f08c379a0000000000000000000000000000000000000000000000000000000008152600401610c2e906128d2565b60405180910390fd5b5f610c4260066114f4565b9050610c4e6006611500565b610c583382611514565b60405180604001604052808681526020018581525060075f8381526020019081526020015f205f820151815f019080519060200190610c98929190611b0b565b506020820151816001019080519060200190610cb5929190611b92565b50905050803373ffffffffffffffffffffffffffffffffffffffff165f73ffffffffffffffffffffffffffffffffffffffff167fddf252ad1be2c89b69c2b068fc378daa952ba7f163c4a11628f55a4df523b3ef60405160405180910390a4809250505092915050565b5f60055f8473ffffffffffffffffffffffffffffffffffffffff1673ffffffffffffffffffffffffffffffffffffffff1681526020019081526020015f205f8373ffffffffffffffffffffffffffffffffffffffff1673ffffffffffffffffffffffffffffffffffffffff1681526020019081526020015f205f9054906101000a900460ff16905092915050565b5f7f01ffc9a7000000000000000000000000000000000000000000000000000000007bffffffffffffffffffffffffffffffffffffffffffffffffffffffff1916827bffffffffffffffffffffffffffffffffffffffffffffffffffffffff1916149050919050565b5f80610e2183611531565b90505f73ffffffffffffffffffffffffffffffffffffffff168173ffffffffffffffffffffffffffffffffffffffff1603610e9357826040517f7e273289000000000000000000000000000000000000000000000000000000008152600401610e8a91906120b1565b60405180910390fd5b80915050919050565b5f60045f8381526020019081526020015f205f9054906101000a900473ffffffffffffffffffffffffffffffffffffffff169050919050565b5f33905090565b610ee9838383600161156a565b505050565b5f80610ef984611531565b90505f73ffffffffffffffffffffffffffffffffffffffff168373ffffffffffffffffffffffffffffffffffffffff1614610f3a57610f39818486611729565b5b5f73ffffffffffffffffffffffffffffffffffffffff168173ffffffffffffffffffffffffffffffffffffffff1614610fc557610f795f855f8061156a565b600160035f8373ffffffffffffffffffffffffffffffffffffffff1673ffffffffffffffffffffffffffffffffffffffff1681526020019081526020015f205f82825403925050819055505b5f73ffffffffffffffffffffffffffffffffffffffff168573ffffffffffffffffffffffffffffffffffffffff161461104457600160035f8773ffffffffffffffffffffffffffffffffffffffff1673ffffffffffffffffffffffffffffffffffffffff1681526020019081526020015f205f82825401925050819055505b8460025f8681526020019081526020015f205f6101000a81548173ffffffffffffffffffffffffffffffffffffffff021916908373ffffffffffffffffffffffffffffffffffffffff160217905550838573ffffffffffffffffffffffffffffffffffffffff168273ffffffffffffffffffffffffffffffffffffffff167fddf252ad1be2c89b69c2b068fc378daa952ba7f163c4a11628f55a4df523b3ef60405160405180910390a4809150509392505050565b5f73ffffffffffffffffffffffffffffffffffffffff168273ffffffffffffffffffffffffffffffffffffffff160361116957816040517f5b08ba180000000000000000000000000000000000000000000000000000000081526004016111609190611e03565b60405180910390fd5b8060055f8573ffffffffffffffffffffffffffffffffffffffff1673ffffffffffffffffffffffffffffffffffffffff1681526020019081526020015f205f8473ffffffffffffffffffffffffffffffffffffffff1673ffffffffffffffffffffffffffffffffffffffff1681526020019081526020015f205f6101000a81548160ff0219169083151502179055508173ffffffffffffffffffffffffffffffffffffffff168373ffffffffffffffffffffffffffffffffffffffff167f17307eab39ab6107e8899845ad3d59bd9653f200f220920489ca2b5937696c31836040516112559190611ca3565b60405180910390a3505050565b5f8373ffffffffffffffffffffffffffffffffffffffff163b111561140e578273ffffffffffffffffffffffffffffffffffffffff1663150b7a026112a5610ed5565b8685856040518563ffffffff1660e01b81526004016112c79493929190612a07565b6020604051808303815f875af192505050801561130257506040513d601f19601f820116820180604052508101906112ff9190612a65565b60015b611383573d805f8114611330576040519150601f19603f3d011682016040523d82523d5f602084013e611335565b606091505b505f81510361137b57836040517f64a0ae920000000000000000000000000000000000000000000000000000000081526004016113729190611e03565b60405180910390fd5b805181602001fd5b63150b7a0260e01b7bffffffffffffffffffffffffffffffffffffffffffffffffffffffff1916817bffffffffffffffffffffffffffffffffffffffffffffffffffffffff19161461140c57836040517f64a0ae920000000000000000000000000000000000000000000000000000000081526004016114039190611e03565b60405180910390fd5b505b50505050565b606060405180602001604052805f815250905090565b60605f6001611438846117ec565b0190505f8167ffffffffffffffff811115611456576114556120ce565b5b6040519080825280601f01601f1916602001820160405280156114885781602001600182028036833780820191505090505b5090505f82602001820190505b6001156114e9578080600190039150507f3031323334353637383961626364656600000000000000000000000000000000600a86061a8153600a85816114de576114dd612a90565b5b0494505f8503611495575b819350505050919050565b5f815f01549050919050565b6001815f015f828254019250508190555050565b61152d828260405180602001604052805f81525061193d565b5050565b5f60025f8381526020019081526020015f205f9054906101000a900473ffffffffffffffffffffffffffffffffffffffff169050919050565b80806115a257505f73ffffffffffffffffffffffffffffffffffffffff168273ffffffffffffffffffffffffffffffffffffffff1614155b156116d4575f6115b184610e16565b90505f73ffffffffffffffffffffffffffffffffffffffff168373ffffffffffffffffffffffffffffffffffffffff161415801561161b57508273ffffffffffffffffffffffffffffffffffffffff168173ffffffffffffffffffffffffffffffffffffffff1614155b801561162e575061162c8184610d1f565b155b1561167057826040517fa9fbf51f0000000000000000000000000000000000000000000000000000000081526004016116679190611e03565b60405180910390fd5b81156116d257838573ffffffffffffffffffffffffffffffffffffffff168273ffffffffffffffffffffffffffffffffffffffff167f8c5be1e5ebec7d5bd14f71427d1e84f3dd0314c0f7b2291e5b200ac8c7c3b92560405160405180910390a45b505b8360045f8581526020019081526020015f205f6101000a81548173ffffffffffffffffffffffffffffffffffffffff021916908373ffffffffffffffffffffffffffffffffffffffff16021790555050505050565b611734838383611958565b6117e7575f73ffffffffffffffffffffffffffffffffffffffff168373ffffffffffffffffffffffffffffffffffffffff16036117a857806040517f7e27328900000000000000000000000000000000000000000000000000000000815260040161179f91906120b1565b60405180910390fd5b81816040517f177e802f0000000000000000000000000000000000000000000000000000000081526004016117de929190612abd565b60405180910390fd5b505050565b5f805f90507a184f03e93ff9f4daa797ed6e38ed64bf6a1f0100000000000000008310611848577a184f03e93ff9f4daa797ed6e38ed64bf6a1f010000000000000000838161183e5761183d612a90565b5b0492506040810190505b6d04ee2d6d415b85acef81000000008310611885576d04ee2d6d415b85acef8100000000838161187b5761187a612a90565b5b0492506020810190505b662386f26fc1000083106118b457662386f26fc1000083816118aa576118a9612a90565b5b0492506010810190505b6305f5e10083106118dd576305f5e10083816118d3576118d2612a90565b5b0492506008810190505b61271083106119025761271083816118f8576118f7612a90565b5b0492506004810190505b60648310611925576064838161191b5761191a612a90565b5b0492506002810190505b600a8310611934576001810190505b80915050919050565b6119478383611a18565b6119535f848484611262565b505050565b5f8073ffffffffffffffffffffffffffffffffffffffff168373ffffffffffffffffffffffffffffffffffffffff1614158015611a0f57508273ffffffffffffffffffffffffffffffffffffffff168473ffffffffffffffffffffffffffffffffffffffff1614806119d057506119cf8484610d1f565b5b80611a0e57508273ffffffffffffffffffffffffffffffffffffffff166119f683610e9c565b73ffffffffffffffffffffffffffffffffffffffff16145b5b90509392505050565b5f73ffffffffffffffffffffffffffffffffffffffff168273ffffffffffffffffffffffffffffffffffffffff1603611a88575f6040517f64a0ae92000000000000000000000000000000000000000000000000000000008152600401611a7f9190611e03565b60405180910390fd5b5f611a9483835f610eee565b90505f73ffffffffffffffffffffffffffffffffffffffff168173ffffffffffffffffffffffffffffffffffffffff1614611b06575f6040517f73c6ac6e000000000000000000000000000000000000000000000000000000008152600401611afd9190611e03565b60405180910390fd5b505050565b828054828255905f5260205f20908101928215611b81579160200282015b82811115611b80578251825f6101000a81548173ffffffffffffffffffffffffffffffffffffffff021916908373ffffffffffffffffffffffffffffffffffffffff16021790555091602001919060010190611b29565b5b509050611b8e9190611bdd565b5090565b828054828255905f5260205f20908101928215611bcc579160200282015b82811115611bcb578251825591602001919060010190611bb0565b5b509050611bd99190611bdd565b5090565b5b80821115611bf4575f815f905550600101611bde565b5090565b5f604051905090565b5f80fd5b5f80fd5b5f7fffffffff0000000000000000000000000000000000000000000000000000000082169050919050565b611c3d81611c09565b8114611c47575f80fd5b50565b5f81359050611c5881611c34565b92915050565b5f60208284031215611c7357611c72611c01565b5b5f611c8084828501611c4a565b91505092915050565b5f8115159050919050565b611c9d81611c89565b82525050565b5f602082019050611cb65f830184611c94565b92915050565b5f81519050919050565b5f82825260208201905092915050565b5f5b83811015611cf3578082015181840152602081019050611cd8565b5f8484015250505050565b5f601f19601f8301169050919050565b5f611d1882611cbc565b611d228185611cc6565b9350611d32818560208601611cd6565b611d3b81611cfe565b840191505092915050565b5f6020820190508181035f830152611d5e8184611d0e565b905092915050565b5f819050919050565b611d7881611d66565b8114611d82575f80fd5b50565b5f81359050611d9381611d6f565b92915050565b5f60208284031215611dae57611dad611c01565b5b5f611dbb84828501611d85565b91505092915050565b5f73ffffffffffffffffffffffffffffffffffffffff82169050919050565b5f611ded82611dc4565b9050919050565b611dfd81611de3565b82525050565b5f602082019050611e165f830184611df4565b92915050565b611e2581611de3565b8114611e2f575f80fd5b50565b5f81359050611e4081611e1c565b92915050565b5f8060408385031215611e5c57611e5b611c01565b5b5f611e6985828601611e32565b9250506020611e7a85828601611d85565b9150509250929050565b5f81519050919050565b5f82825260208201905092915050565b5f819050602082019050919050565b611eb681611de3565b82525050565b5f611ec78383611ead565b60208301905092915050565b5f602082019050919050565b5f611ee982611e84565b611ef38185611e8e565b9350611efe83611e9e565b805f5b83811015611f2e578151611f158882611ebc565b9750611f2083611ed3565b925050600181019050611f01565b5085935050505092915050565b5f81519050919050565b5f82825260208201905092915050565b5f819050602082019050919050565b611f6d81611d66565b82525050565b5f611f7e8383611f64565b60208301905092915050565b5f602082019050919050565b5f611fa082611f3b565b611faa8185611f45565b9350611fb583611f55565b805f5b83811015611fe5578151611fcc8882611f73565b9750611fd783611f8a565b925050600181019050611fb8565b5085935050505092915050565b5f6040820190508181035f83015261200a8185611edf565b9050818103602083015261201e8184611f96565b90509392505050565b5f805f6060848603121561203e5761203d611c01565b5b5f61204b86828701611e32565b935050602061205c86828701611e32565b925050604061206d86828701611d85565b9150509250925092565b5f6020828403121561208c5761208b611c01565b5b5f61209984828501611e32565b91505092915050565b6120ab81611d66565b82525050565b5f6020820190506120c45f8301846120a2565b92915050565b5f80fd5b7f4e487b71000000000000000000000000000000000000000000000000000000005f52604160045260245ffd5b61210482611cfe565b810181811067ffffffffffffffff82111715612123576121226120ce565b5b80604052505050565b5f612135611bf8565b905061214182826120fb565b919050565b5f67ffffffffffffffff8211156121605761215f6120ce565b5b602082029050602081019050919050565b5f80fd5b5f61218761218284612146565b61212c565b905080838252602082019050602084028301858111156121aa576121a9612171565b5b835b818110156121d357806121bf8882611e32565b8452602084019350506020810190506121ac565b5050509392505050565b5f82601f8301126121f1576121f06120ca565b5b8135612201848260208601612175565b91505092915050565b5f67ffffffffffffffff821115612224576122236120ce565b5b602082029050602081019050919050565b5f6122476122428461220a565b61212c565b9050808382526020820190506020840283018581111561226a57612269612171565b5b835b81811015612293578061227f8882611d85565b84526020840193505060208101905061226c565b5050509392505050565b5f82601f8301126122b1576122b06120ca565b5b81356122c1848260208601612235565b91505092915050565b5f805f606084860312156122e1576122e0611c01565b5b5f6122ee86828701611d85565b935050602084013567ffffffffffffffff81111561230f5761230e611c05565b5b61231b868287016121dd565b925050604084013567ffffffffffffffff81111561233c5761233b611c05565b5b6123488682870161229d565b9150509250925092565b61235b81611c89565b8114612365575f80fd5b50565b5f8135905061237681612352565b92915050565b5f806040838503121561239257612391611c01565b5b5f61239f85828601611e32565b92505060206123b085828601612368565b9150509250929050565b5f80fd5b5f67ffffffffffffffff8211156123d8576123d76120ce565b5b6123e182611cfe565b9050602081019050919050565b828183375f83830152505050565b5f61240e612409846123be565b61212c565b90508281526020810184848401111561242a576124296123ba565b5b6124358482856123ee565b509392505050565b5f82601f830112612451576124506120ca565b5b81356124618482602086016123fc565b91505092915050565b5f805f806080858703121561248257612481611c01565b5b5f61248f87828801611e32565b94505060206124a087828801611e32565b93505060406124b187828801611d85565b925050606085013567ffffffffffffffff8111156124d2576124d1611c05565b5b6124de8782880161243d565b91505092959194509250565b5f8060408385031215612500576124ff611c01565b5b5f83013567ffffffffffffffff81111561251d5761251c611c05565b5b612529858286016121dd565b925050602083013567ffffffffffffffff81111561254a57612549611c05565b5b6125568582860161229d565b9150509250929050565b5f806040838503121561257657612575611c01565b5b5f61258385828601611e32565b925050602061259485828601611e32565b9150509250929050565b7f4e487b71000000000000000000000000000000000000000000000000000000005f52602260045260245ffd5b5f60028204905060018216806125e257607f821691505b6020821081036125f5576125f461259e565b5b50919050565b5f60608201905061260e5f830186611df4565b61261b60208301856120a2565b6126286040830184611df4565b949350505050565b7f546f6b656e20646f6573206e6f742065786973740000000000000000000000005f82015250565b5f612664601483611cc6565b915061266f82612630565b602082019050919050565b5f6020820190508181035f83015261269181612658565b9050919050565b7f4f776e65727320616e642073686172657320617272617973206d7573742068615f8201527f7665207468652073616d65206c656e6774680000000000000000000000000000602082015250565b5f6126f2603283611cc6565b91506126fd82612698565b604082019050919050565b5f6020820190508181035f83015261271f816126e6565b9050919050565b7f4174206c65617374206f6e65206e6577206f776e6572206973207265717569725f8201527f6564000000000000000000000000000000000000000000000000000000000000602082015250565b5f612780602283611cc6565b915061278b82612726565b604082019050919050565b5f6020820190508181035f8301526127ad81612774565b9050919050565b7f4e487b71000000000000000000000000000000000000000000000000000000005f52603260045260245ffd5b7f4e487b71000000000000000000000000000000000000000000000000000000005f52601160045260245ffd5b5f61281882611d66565b915061282383611d66565b925082820190508082111561283b5761283a6127e1565b5b92915050565b5f61284b82611d66565b91507fffffffffffffffffffffffffffffffffffffffffffffffffffffffffffffffff820361287d5761287c6127e1565b5b600182019050919050565b7f546f74616c20736861726573206d7573742062652031303000000000000000005f82015250565b5f6128bc601883611cc6565b91506128c782612888565b602082019050919050565b5f6020820190508181035f8301526128e9816128b0565b9050919050565b5f81905092915050565b5f61290482611cbc565b61290e81856128f0565b935061291e818560208601611cd6565b80840191505092915050565b5f61293582856128fa565b915061294182846128fa565b91508190509392505050565b7f4174206c65617374206f6e65206f776e657220697320726571756972656400005f82015250565b5f612981601e83611cc6565b915061298c8261294d565b602082019050919050565b5f6020820190508181035f8301526129ae81612975565b9050919050565b5f81519050919050565b5f82825260208201905092915050565b5f6129d9826129b5565b6129e381856129bf565b93506129f3818560208601611cd6565b6129fc81611cfe565b840191505092915050565b5f608082019050612a1a5f830187611df4565b612a276020830186611df4565b612a3460408301856120a2565b8181036060830152612a4681846129cf565b905095945050505050565b5f81519050612a5f81611c34565b92915050565b5f60208284031215612a7a57612a79611c01565b5b5f612a8784828501612a51565b91505092915050565b7f4e487b71000000000000000000000000000000000000000000000000000000005f52601260045260245ffd5b5f604082019050612ad05f830185611df4565b612add60208301846120a2565b939250505056fea2646970667358221220f9b35bf6dd0aa5745d1b4b39e5f3ebaee505e244f23f3a39c6dc1fa1236c060f64736f6c63430008150033",
  "immutableReferences": {},
  "source": "// SPDX-License-Identifier: MIT\npragma solidity ^0.8.0;\n\nimport \"@openzeppelin/contracts/token/ERC721/ERC721.sol\";\nimport \"@openzeppelin/contracts/utils/Counters.sol\";\n\n/**\n * @title ERC721PartialOwnership\n * @dev Implementation of the ERC981 standard for partial ownership of ERC721 tokens.\n */\ncontract ERC721PartialOwnership is ERC721 {\n    using Counters for Counters.Counter;\n    Counters.Counter private _tokenIdCounter;\n\n    // Mapping from token ID to list of owners and their shares\n    mapping(uint256 => Ownership) private ownershipByToken;\n\n    // Struct to represent ownership of a token\n    struct Ownership {\n        address[] owners;\n        uint256[] shares;\n    }\n\n    constructor(string memory name, string memory symbol) ERC721(name, symbol) {}\n\n    /**\n     * @dev Mints a new ERC721 token and assigns partial ownership.\n     * @param owners The addresses of the initial owners.\n     * @param shares The shares of ownership for each owner.\n     */\n    function mint(address[] memory owners, uint256[] memory shares) public returns (uint256) {\n        require(owners.length == shares.length, \"Owners and shares arrays must have the same length\");\n        require(owners.length > 0, \"At least one owner is required\");\n        uint256 totalShares = 0;\n        for (uint256 i = 0; i < shares.length; i++) {\n            totalShares += shares[i];\n        }\n        require(totalShares == 100, \"Total shares must be 100\");\n\n        uint256 tokenId = _tokenIdCounter.current();\n        _tokenIdCounter.increment();\n        _safeMint(msg.sender, tokenId);\n        ownershipByToken[tokenId] = Ownership(owners, shares);\n        emit Transfer(address(0), msg.sender, tokenId);\n        return tokenId;\n    }\n\n    /**\n     * @dev Gets the list of owners and their shares for a given token.\n     * @param tokenId The token ID to query.\n     * @return owners The list of owners.\n     * @return shares The shares of ownership for each owner.\n     */\n    function ownershipOf(uint256 tokenId) public view returns (address[] memory owners, uint256[] memory shares) {\n        Ownership storage ownership = ownershipByToken[tokenId];\n        return (ownership.owners, ownership.shares);\n    }\n\n    /**\n     * @dev Transfers partial ownership of a token to new addresses.\n     * @param tokenId The token ID to transfer ownership of.\n     * @param newOwners The addresses of the new owners.\n     * @param newShares The shares of ownership for the new owners.\n     */\n    function transferOwnership(\n        uint256 tokenId,\n        address[] memory newOwners,\n        uint256[] memory newShares\n    ) public {\n        require(ownershipByToken[tokenId].owners.length > 0, \"Token does not exist\");\n        require(newOwners.length == newShares.length, \"Owners and shares arrays must have the same length\");\n        require(newOwners.length > 0, \"At least one new owner is required\");\n        uint256 totalShares = 0;\n        for (uint256 i = 0; i < newShares.length; i++) {\n            totalShares += newShares[i];\n        }\n        require(totalShares == 100, \"Total shares must be 100\");\n\n        Ownership storage ownership = ownershipByToken[tokenId];\n        ownership.owners = newOwners;\n        ownership.shares = newShares;\n        emit Transfer(msg.sender, address(0), tokenId);\n    }\n}",
  "sourcePath": "/Users/kennoluv/Documents/GitHub/CE340/2-66 Training/dapp-tutorial/contracts/ERC981.sol",
  "compiler": {
    "name": "solc",
    "version": "0.8.21+commit.d9974bed.Emscripten.clang"
  },
  "schemaVersion": "3.4.16",
  "updatedAt": "2024-03-31T09:47:08.912Z",
  "networkType": "ethereum",
  "devdoc": {
    "details": "Implementation of the ERC981 standard for partial ownership of ERC721 tokens.",
    "errors": {
      "ERC721IncorrectOwner(address,uint256,address)": [
        {
          "details": "Indicates an error related to the ownership over a particular token. Used in transfers.",
          "params": {
            "owner": "Address of the current owner of a token.",
            "sender": "Address whose tokens are being transferred.",
            "tokenId": "Identifier number of a token."
          }
        }
      ],
      "ERC721InsufficientApproval(address,uint256)": [
        {
          "details": "Indicates a failure with the `operator`s approval. Used in transfers.",
          "params": {
            "operator": "Address that may be allowed to operate on tokens without being their owner.",
            "tokenId": "Identifier number of a token."
          }
        }
      ],
      "ERC721InvalidApprover(address)": [
        {
          "details": "Indicates a failure with the `approver` of a token to be approved. Used in approvals.",
          "params": {
            "approver": "Address initiating an approval operation."
          }
        }
      ],
      "ERC721InvalidOperator(address)": [
        {
          "details": "Indicates a failure with the `operator` to be approved. Used in approvals.",
          "params": {
            "operator": "Address that may be allowed to operate on tokens without being their owner."
          }
        }
      ],
      "ERC721InvalidOwner(address)": [
        {
          "details": "Indicates that an address can't be an owner. For example, `address(0)` is a forbidden owner in EIP-20. Used in balance queries.",
          "params": {
            "owner": "Address of the current owner of a token."
          }
        }
      ],
      "ERC721InvalidReceiver(address)": [
        {
          "details": "Indicates a failure with the token `receiver`. Used in transfers.",
          "params": {
            "receiver": "Address to which tokens are being transferred."
          }
        }
      ],
      "ERC721InvalidSender(address)": [
        {
          "details": "Indicates a failure with the token `sender`. Used in transfers.",
          "params": {
            "sender": "Address whose tokens are being transferred."
          }
        }
      ],
      "ERC721NonexistentToken(uint256)": [
        {
          "details": "Indicates a `tokenId` whose `owner` is the zero address.",
          "params": {
            "tokenId": "Identifier number of a token."
          }
        }
      ]
    },
    "events": {
      "Approval(address,address,uint256)": {
        "details": "Emitted when `owner` enables `approved` to manage the `tokenId` token."
      },
      "ApprovalForAll(address,address,bool)": {
        "details": "Emitted when `owner` enables or disables (`approved`) `operator` to manage all of its assets."
      },
      "Transfer(address,address,uint256)": {
        "details": "Emitted when `tokenId` token is transferred from `from` to `to`."
      }
    },
    "kind": "dev",
    "methods": {
      "approve(address,uint256)": {
        "details": "See {IERC721-approve}."
      },
      "balanceOf(address)": {
        "details": "See {IERC721-balanceOf}."
      },
      "getApproved(uint256)": {
        "details": "See {IERC721-getApproved}."
      },
      "isApprovedForAll(address,address)": {
        "details": "See {IERC721-isApprovedForAll}."
      },
      "mint(address[],uint256[])": {
        "details": "Mints a new ERC721 token and assigns partial ownership.",
        "params": {
          "owners": "The addresses of the initial owners.",
          "shares": "The shares of ownership for each owner."
        }
      },
      "name()": {
        "details": "See {IERC721Metadata-name}."
      },
      "ownerOf(uint256)": {
        "details": "See {IERC721-ownerOf}."
      },
      "ownershipOf(uint256)": {
        "details": "Gets the list of owners and their shares for a given token.",
        "params": {
          "tokenId": "The token ID to query."
        },
        "returns": {
          "owners": "The list of owners.",
          "shares": "The shares of ownership for each owner."
        }
      },
      "safeTransferFrom(address,address,uint256)": {
        "details": "See {IERC721-safeTransferFrom}."
      },
      "safeTransferFrom(address,address,uint256,bytes)": {
        "details": "See {IERC721-safeTransferFrom}."
      },
      "setApprovalForAll(address,bool)": {
        "details": "See {IERC721-setApprovalForAll}."
      },
      "supportsInterface(bytes4)": {
        "details": "See {IERC165-supportsInterface}."
      },
      "symbol()": {
        "details": "See {IERC721Metadata-symbol}."
      },
      "tokenURI(uint256)": {
        "details": "See {IERC721Metadata-tokenURI}."
      },
      "transferFrom(address,address,uint256)": {
        "details": "See {IERC721-transferFrom}."
      },
      "transferOwnership(uint256,address[],uint256[])": {
        "details": "Transfers partial ownership of a token to new addresses.",
        "params": {
          "newOwners": "The addresses of the new owners.",
          "newShares": "The shares of ownership for the new owners.",
          "tokenId": "The token ID to transfer ownership of."
        }
      }
    },
    "title": "ERC721PartialOwnership",
    "version": 1
  },
  "userdoc": {
    "kind": "user",
    "methods": {},
    "version": 1
  }
}