{
  "contractName": "ERC721PartialOwnership",
  "abi": [
    {
      "inputs": [
        {
          "internalType": "string",
          "name": "name",
          "type": "string"
        },
        {
          "internalType": "string",
          "name": "symbol",
          "type": "string"
        }
      ],
      "stateMutability": "nonpayable",
      "type": "constructor"
    },
    {
      "inputs": [
        {
          "internalType": "address",
          "name": "sender",
          "type": "address"
        },
        {
          "internalType": "uint256",
          "name": "tokenId",
          "type": "uint256"
        },
        {
          "internalType": "address",
          "name": "owner",
          "type": "address"
        }
      ],
      "name": "ERC721IncorrectOwner",
      "type": "error"
    },
    {
      "inputs": [
        {
          "internalType": "address",
          "name": "operator",
          "type": "address"
        },
        {
          "internalType": "uint256",
          "name": "tokenId",
          "type": "uint256"
        }
      ],
      "name": "ERC721InsufficientApproval",
      "type": "error"
    },
    {
      "inputs": [
        {
          "internalType": "address",
          "name": "approver",
          "type": "address"
        }
      ],
      "name": "ERC721InvalidApprover",
      "type": "error"
    },
    {
      "inputs": [
        {
          "internalType": "address",
          "name": "operator",
          "type": "address"
        }
      ],
      "name": "ERC721InvalidOperator",
      "type": "error"
    },
    {
      "inputs": [
        {
          "internalType": "address",
          "name": "owner",
          "type": "address"
        }
      ],
      "name": "ERC721InvalidOwner",
      "type": "error"
    },
    {
      "inputs": [
        {
          "internalType": "address",
          "name": "receiver",
          "type": "address"
        }
      ],
      "name": "ERC721InvalidReceiver",
      "type": "error"
    },
    {
      "inputs": [
        {
          "internalType": "address",
          "name": "sender",
          "type": "address"
        }
      ],
      "name": "ERC721InvalidSender",
      "type": "error"
    },
    {
      "inputs": [
        {
          "internalType": "uint256",
          "name": "tokenId",
          "type": "uint256"
        }
      ],
      "name": "ERC721NonexistentToken",
      "type": "error"
    },
    {
      "anonymous": false,
      "inputs": [
        {
          "indexed": true,
          "internalType": "address",
          "name": "owner",
          "type": "address"
        },
        {
          "indexed": true,
          "internalType": "address",
          "name": "approved",
          "type": "address"
        },
        {
          "indexed": true,
          "internalType": "uint256",
          "name": "tokenId",
          "type": "uint256"
        }
      ],
      "name": "Approval",
      "type": "event"
    },
    {
      "anonymous": false,
      "inputs": [
        {
          "indexed": true,
          "internalType": "address",
          "name": "owner",
          "type": "address"
        },
        {
          "indexed": true,
          "internalType": "address",
          "name": "operator",
          "type": "address"
        },
        {
          "indexed": false,
          "internalType": "bool",
          "name": "approved",
          "type": "bool"
        }
      ],
      "name": "ApprovalForAll",
      "type": "event"
    },
    {
      "anonymous": false,
      "inputs": [
        {
          "indexed": true,
          "internalType": "address",
          "name": "from",
          "type": "address"
        },
        {
          "indexed": true,
          "internalType": "address",
          "name": "to",
          "type": "address"
        },
        {
          "indexed": true,
          "internalType": "uint256",
          "name": "tokenId",
          "type": "uint256"
        }
      ],
      "name": "Transfer",
      "type": "event"
    },
    {
      "inputs": [
        {
          "internalType": "address",
          "name": "to",
          "type": "address"
        },
        {
          "internalType": "uint256",
          "name": "tokenId",
          "type": "uint256"
        }
      ],
      "name": "approve",
      "outputs": [],
      "stateMutability": "nonpayable",
      "type": "function"
    },
    {
      "inputs": [
        {
          "internalType": "address",
          "name": "owner",
          "type": "address"
        }
      ],
      "name": "balanceOf",
      "outputs": [
        {
          "internalType": "uint256",
          "name": "",
          "type": "uint256"
        }
      ],
      "stateMutability": "view",
      "type": "function",
      "constant": true
    },
    {
      "inputs": [
        {
          "internalType": "uint256",
          "name": "tokenId",
          "type": "uint256"
        }
      ],
      "name": "getApproved",
      "outputs": [
        {
          "internalType": "address",
          "name": "",
          "type": "address"
        }
      ],
      "stateMutability": "view",
      "type": "function",
      "constant": true
    },
    {
      "inputs": [
        {
          "internalType": "address",
          "name": "owner",
          "type": "address"
        },
        {
          "internalType": "address",
          "name": "operator",
          "type": "address"
        }
      ],
      "name": "isApprovedForAll",
      "outputs": [
        {
          "internalType": "bool",
          "name": "",
          "type": "bool"
        }
      ],
      "stateMutability": "view",
      "type": "function",
      "constant": true
    },
    {
      "inputs": [],
      "name": "name",
      "outputs": [
        {
          "internalType": "string",
          "name": "",
          "type": "string"
        }
      ],
      "stateMutability": "view",
      "type": "function",
      "constant": true
    },
    {
      "inputs": [
        {
          "internalType": "uint256",
          "name": "tokenId",
          "type": "uint256"
        }
      ],
      "name": "ownerOf",
      "outputs": [
        {
          "internalType": "address",
          "name": "",
          "type": "address"
        }
      ],
      "stateMutability": "view",
      "type": "function",
      "constant": true
    },
    {
      "inputs": [
        {
          "internalType": "address",
          "name": "from",
          "type": "address"
        },
        {
          "internalType": "address",
          "name": "to",
          "type": "address"
        },
        {
          "internalType": "uint256",
          "name": "tokenId",
          "type": "uint256"
        }
      ],
      "name": "safeTransferFrom",
      "outputs": [],
      "stateMutability": "nonpayable",
      "type": "function"
    },
    {
      "inputs": [
        {
          "internalType": "address",
          "name": "from",
          "type": "address"
        },
        {
          "internalType": "address",
          "name": "to",
          "type": "address"
        },
        {
          "internalType": "uint256",
          "name": "tokenId",
          "type": "uint256"
        },
        {
          "internalType": "bytes",
          "name": "data",
          "type": "bytes"
        }
      ],
      "name": "safeTransferFrom",
      "outputs": [],
      "stateMutability": "nonpayable",
      "type": "function"
    },
    {
      "inputs": [
        {
          "internalType": "address",
          "name": "operator",
          "type": "address"
        },
        {
          "internalType": "bool",
          "name": "approved",
          "type": "bool"
        }
      ],
      "name": "setApprovalForAll",
      "outputs": [],
      "stateMutability": "nonpayable",
      "type": "function"
    },
    {
      "inputs": [
        {
          "internalType": "bytes4",
          "name": "interfaceId",
          "type": "bytes4"
        }
      ],
      "name": "supportsInterface",
      "outputs": [
        {
          "internalType": "bool",
          "name": "",
          "type": "bool"
        }
      ],
      "stateMutability": "view",
      "type": "function",
      "constant": true
    },
    {
      "inputs": [],
      "name": "symbol",
      "outputs": [
        {
          "internalType": "string",
          "name": "",
          "type": "string"
        }
      ],
      "stateMutability": "view",
      "type": "function",
      "constant": true
    },
    {
      "inputs": [
        {
          "internalType": "uint256",
          "name": "tokenId",
          "type": "uint256"
        }
      ],
      "name": "tokenURI",
      "outputs": [
        {
          "internalType": "string",
          "name": "",
          "type": "string"
        }
      ],
      "stateMutability": "view",
      "type": "function",
      "constant": true
    },
    {
      "inputs": [
        {
          "internalType": "address",
          "name": "from",
          "type": "address"
        },
        {
          "internalType": "address",
          "name": "to",
          "type": "address"
        },
        {
          "internalType": "uint256",
          "name": "tokenId",
          "type": "uint256"
        }
      ],
      "name": "transferFrom",
      "outputs": [],
      "stateMutability": "nonpayable",
      "type": "function"
    },
    {
      "inputs": [
        {
          "internalType": "address[]",
          "name": "owners",
          "type": "address[]"
        },
        {
          "internalType": "uint256[]",
          "name": "shares",
          "type": "uint256[]"
        }
      ],
      "name": "mint",
      "outputs": [
        {
          "internalType": "uint256",
          "name": "tokenId",
          "type": "uint256"
        }
      ],
      "stateMutability": "nonpayable",
      "type": "function"
    },
    {
      "inputs": [
        {
          "internalType": "uint256",
          "name": "tokenId",
          "type": "uint256"
        }
      ],
      "name": "ownershipOf",
      "outputs": [
        {
          "internalType": "address[]",
          "name": "owners",
          "type": "address[]"
        },
        {
          "internalType": "uint256[]",
          "name": "shares",
          "type": "uint256[]"
        }
      ],
      "stateMutability": "view",
      "type": "function",
      "constant": true
    },
    {
      "inputs": [
        {
          "internalType": "uint256",
          "name": "tokenId",
          "type": "uint256"
        },
        {
          "internalType": "address[]",
          "name": "newOwners",
          "type": "address[]"
        },
        {
          "internalType": "uint256[]",
          "name": "newShares",
          "type": "uint256[]"
        }
      ],
      "name": "transferOwnership",
      "outputs": [],
      "stateMutability": "nonpayable",
      "type": "function"
    }
  ],
  "bytecode": "0x608060405234801562000010575f80fd5b506040516200315f3803806200315f8339818101604052810190620000369190620001ea565b8181815f9081620000489190620004a4565b5080600190816200005a9190620004a4565b505050505062000588565b5f604051905090565b5f80fd5b5f80fd5b5f80fd5b5f80fd5b5f601f19601f8301169050919050565b7f4e487b71000000000000000000000000000000000000000000000000000000005f52604160045260245ffd5b620000c6826200007e565b810181811067ffffffffffffffff82111715620000e857620000e76200008e565b5b80604052505050565b5f620000fc62000065565b90506200010a8282620000bb565b919050565b5f67ffffffffffffffff8211156200012c576200012b6200008e565b5b62000137826200007e565b9050602081019050919050565b5f5b838110156200016357808201518184015260208101905062000146565b5f8484015250505050565b5f620001846200017e846200010f565b620000f1565b905082815260208101848484011115620001a357620001a26200007a565b5b620001b084828562000144565b509392505050565b5f82601f830112620001cf57620001ce62000076565b5b8151620001e18482602086016200016e565b91505092915050565b5f80604083850312156200020357620002026200006e565b5b5f83015167ffffffffffffffff81111562000223576200022262000072565b5b6200023185828601620001b8565b925050602083015167ffffffffffffffff81111562000255576200025462000072565b5b6200026385828601620001b8565b9150509250929050565b5f81519050919050565b7f4e487b71000000000000000000000000000000000000000000000000000000005f52602260045260245ffd5b5f6002820490506001821680620002bc57607f821691505b602082108103620002d257620002d162000277565b5b50919050565b5f819050815f5260205f209050919050565b5f6020601f8301049050919050565b5f82821b905092915050565b5f60088302620003367fffffffffffffffffffffffffffffffffffffffffffffffffffffffffffffffff82620002f9565b620003428683620002f9565b95508019841693508086168417925050509392505050565b5f819050919050565b5f819050919050565b5f6200038c6200038662000380846200035a565b62000363565b6200035a565b9050919050565b5f819050919050565b620003a7836200036c565b620003bf620003b68262000393565b84845462000305565b825550505050565b5f90565b620003d5620003c7565b620003e28184846200039c565b505050565b5b818110156200040957620003fd5f82620003cb565b600181019050620003e8565b5050565b601f82111562000458576200042281620002d8565b6200042d84620002ea565b810160208510156200043d578190505b620004556200044c85620002ea565b830182620003e7565b50505b505050565b5f82821c905092915050565b5f6200047a5f19846008026200045d565b1980831691505092915050565b5f62000494838362000469565b9150826002028217905092915050565b620004af826200026d565b67ffffffffffffffff811115620004cb57620004ca6200008e565b5b620004d78254620002a4565b620004e48282856200040d565b5f60209050601f8311600181146200051a575f841562000505578287015190505b62000511858262000487565b86555062000580565b601f1984166200052a86620002d8565b5f5b8281101562000553578489015182556001820191506020850194506020810190506200052c565b868310156200057357848901516200056f601f89168262000469565b8355505b6001600288020188555050505b505050505050565b612bc980620005965f395ff3fe608060405234801561000f575f80fd5b50600436106100fe575f3560e01c806370a0823111610095578063b88d4fde11610064578063b88d4fde146102bb578063c87b56dd146102d7578063e467f7e014610307578063e985e9c514610337576100fe565b806370a08231146102355780637ced0a421461026557806395d89b4114610281578063a22cb4651461029f576100fe565b8063140364a1116100d1578063140364a11461019c57806323b872dd146101cd57806342842e0e146101e95780636352211e14610205576100fe565b806301ffc9a71461010257806306fdde0314610132578063081812fc14610150578063095ea7b314610180575b5f80fd5b61011c60048036038101906101179190611c7f565b610367565b6040516101299190611cc4565b60405180910390f35b61013a610448565b6040516101479190611d67565b60405180910390f35b61016a60048036038101906101659190611dba565b6104d7565b6040516101779190611e24565b60405180910390f35b61019a60048036038101906101959190611e67565b6104f2565b005b6101b660048036038101906101b19190611dba565b610508565b6040516101c4929190612013565b60405180910390f35b6101e760048036038101906101e29190612048565b610605565b005b61020360048036038101906101fe9190612048565b610704565b005b61021f600480360381019061021a9190611dba565b610723565b60405161022c9190611e24565b60405180910390f35b61024f600480360381019061024a9190612098565b610734565b60405161025c91906120d2565b60405180910390f35b61027f600480360381019061027a91906122eb565b6107ea565b005b610289610a21565b6040516102969190611d67565b60405180910390f35b6102b960048036038101906102b4919061239d565b610ab1565b005b6102d560048036038101906102d0919061248b565b610ac7565b005b6102f160048036038101906102ec9190611dba565b610ae4565b6040516102fe9190611d67565b60405180910390f35b610321600480360381019061031c919061250b565b610b4a565b60405161032e91906120d2565b60405180910390f35b610351600480360381019061034c9190612581565b610d40565b60405161035e9190611cc4565b60405180910390f35b5f7f80ac58cd000000000000000000000000000000000000000000000000000000007bffffffffffffffffffffffffffffffffffffffffffffffffffffffff1916827bffffffffffffffffffffffffffffffffffffffffffffffffffffffff1916148061043157507f5b5e139f000000000000000000000000000000000000000000000000000000007bffffffffffffffffffffffffffffffffffffffffffffffffffffffff1916827bffffffffffffffffffffffffffffffffffffffffffffffffffffffff1916145b80610441575061044082610dce565b5b9050919050565b60605f8054610456906125ec565b80601f0160208091040260200160405190810160405280929190818152602001828054610482906125ec565b80156104cd5780601f106104a4576101008083540402835291602001916104cd565b820191905f5260205f20905b8154815290600101906020018083116104b057829003601f168201915b5050505050905090565b5f6104e182610e37565b506104eb82610ebd565b9050919050565b61050482826104ff610ef6565b610efd565b5050565b6060805f60075f8581526020019081526020015f209050805f0181600101818054806020026020016040519081016040528092919081815260200182805480156105a457602002820191905f5260205f20905b815f9054906101000a900473ffffffffffffffffffffffffffffffffffffffff1673ffffffffffffffffffffffffffffffffffffffff168152602001906001019080831161055b575b50505050509150808054806020026020016040519081016040528092919081815260200182805480156105f457602002820191905f5260205f20905b8154815260200190600101908083116105e0575b505050505090509250925050915091565b5f73ffffffffffffffffffffffffffffffffffffffff168273ffffffffffffffffffffffffffffffffffffffff1603610675575f6040517f64a0ae9200000000000000000000000000000000000000000000000000000000815260040161066c9190611e24565b60405180910390fd5b5f6106888383610683610ef6565b610f0f565b90508373ffffffffffffffffffffffffffffffffffffffff168173ffffffffffffffffffffffffffffffffffffffff16146106fe578382826040517f64283d7b0000000000000000000000000000000000000000000000000000000081526004016106f59392919061261c565b60405180910390fd5b50505050565b61071e83838360405180602001604052805f815250610ac7565b505050565b5f61072d82610e37565b9050919050565b5f8073ffffffffffffffffffffffffffffffffffffffff168273ffffffffffffffffffffffffffffffffffffffff16036107a5575f6040517f89c62b6400000000000000000000000000000000000000000000000000000000815260040161079c9190611e24565b60405180910390fd5b60035f8373ffffffffffffffffffffffffffffffffffffffff1673ffffffffffffffffffffffffffffffffffffffff1681526020019081526020015f20549050919050565b3373ffffffffffffffffffffffffffffffffffffffff1661080a84610723565b73ffffffffffffffffffffffffffffffffffffffff1614610860576040517f08c379a0000000000000000000000000000000000000000000000000000000008152600401610857906126c1565b60405180910390fd5b5f60075f8581526020019081526020015f205f0180549050116108b8576040517f08c379a00000000000000000000000000000000000000000000000000000000081526004016108af90612729565b60405180910390fd5b80518251146108fc576040517f08c379a00000000000000000000000000000000000000000000000000000000081526004016108f3906127b7565b60405180910390fd5b5f82511161093f576040517f08c379a000000000000000000000000000000000000000000000000000000000815260040161093690612845565b60405180910390fd5b5f805b82518110156109865782818151811061095e5761095d612863565b5b60200260200101518261097191906128bd565b9150808061097e906128f0565b915050610942565b50606481146109ca576040517f08c379a00000000000000000000000000000000000000000000000000000000081526004016109c190612981565b60405180910390fd5b5f60075f8681526020019081526020015f20905083815f0190805190602001906109f5929190611b2c565b5082816001019080519060200190610a0e929190611bb3565b50610a1a335f87610704565b5050505050565b606060018054610a30906125ec565b80601f0160208091040260200160405190810160405280929190818152602001828054610a5c906125ec565b8015610aa75780601f10610a7e57610100808354040283529160200191610aa7565b820191905f5260205f20905b815481529060010190602001808311610a8a57829003601f168201915b5050505050905090565b610ac3610abc610ef6565b838361111a565b5050565b610ad2848484610605565b610ade84848484611283565b50505050565b6060610aef82610e37565b505f610af9611435565b90505f815111610b175760405180602001604052805f815250610b42565b80610b218461144b565b604051602001610b329291906129d9565b6040516020818303038152906040525b915050919050565b5f8151835114610b8f576040517f08c379a0000000000000000000000000000000000000000000000000000000008152600401610b86906127b7565b60405180910390fd5b5f835111610bd2576040517f08c379a0000000000000000000000000000000000000000000000000000000008152600401610bc990612a46565b60405180910390fd5b5f805b8351811015610c1957838181518110610bf157610bf0612863565b5b602002602001015182610c0491906128bd565b91508080610c11906128f0565b915050610bd5565b5060648114610c5d576040517f08c379a0000000000000000000000000000000000000000000000000000000008152600401610c5490612981565b60405180910390fd5b610c676006611515565b9150610c736006611521565b610c7d3383611535565b60405180604001604052808581526020018481525060075f8481526020019081526020015f205f820151815f019080519060200190610cbd929190611b2c565b506020820151816001019080519060200190610cda929190611bb3565b50905050813373ffffffffffffffffffffffffffffffffffffffff165f73ffffffffffffffffffffffffffffffffffffffff167fddf252ad1be2c89b69c2b068fc378daa952ba7f163c4a11628f55a4df523b3ef60405160405180910390a45092915050565b5f60055f8473ffffffffffffffffffffffffffffffffffffffff1673ffffffffffffffffffffffffffffffffffffffff1681526020019081526020015f205f8373ffffffffffffffffffffffffffffffffffffffff1673ffffffffffffffffffffffffffffffffffffffff1681526020019081526020015f205f9054906101000a900460ff16905092915050565b5f7f01ffc9a7000000000000000000000000000000000000000000000000000000007bffffffffffffffffffffffffffffffffffffffffffffffffffffffff1916827bffffffffffffffffffffffffffffffffffffffffffffffffffffffff1916149050919050565b5f80610e4283611552565b90505f73ffffffffffffffffffffffffffffffffffffffff168173ffffffffffffffffffffffffffffffffffffffff1603610eb457826040517f7e273289000000000000000000000000000000000000000000000000000000008152600401610eab91906120d2565b60405180910390fd5b80915050919050565b5f60045f8381526020019081526020015f205f9054906101000a900473ffffffffffffffffffffffffffffffffffffffff169050919050565b5f33905090565b610f0a838383600161158b565b505050565b5f80610f1a84611552565b90505f73ffffffffffffffffffffffffffffffffffffffff168373ffffffffffffffffffffffffffffffffffffffff1614610f5b57610f5a81848661174a565b5b5f73ffffffffffffffffffffffffffffffffffffffff168173ffffffffffffffffffffffffffffffffffffffff1614610fe657610f9a5f855f8061158b565b600160035f8373ffffffffffffffffffffffffffffffffffffffff1673ffffffffffffffffffffffffffffffffffffffff1681526020019081526020015f205f82825403925050819055505b5f73ffffffffffffffffffffffffffffffffffffffff168573ffffffffffffffffffffffffffffffffffffffff161461106557600160035f8773ffffffffffffffffffffffffffffffffffffffff1673ffffffffffffffffffffffffffffffffffffffff1681526020019081526020015f205f82825401925050819055505b8460025f8681526020019081526020015f205f6101000a81548173ffffffffffffffffffffffffffffffffffffffff021916908373ffffffffffffffffffffffffffffffffffffffff160217905550838573ffffffffffffffffffffffffffffffffffffffff168273ffffffffffffffffffffffffffffffffffffffff167fddf252ad1be2c89b69c2b068fc378daa952ba7f163c4a11628f55a4df523b3ef60405160405180910390a4809150509392505050565b5f73ffffffffffffffffffffffffffffffffffffffff168273ffffffffffffffffffffffffffffffffffffffff160361118a57816040517f5b08ba180000000000000000000000000000000000000000000000000000000081526004016111819190611e24565b60405180910390fd5b8060055f8573ffffffffffffffffffffffffffffffffffffffff1673ffffffffffffffffffffffffffffffffffffffff1681526020019081526020015f205f8473ffffffffffffffffffffffffffffffffffffffff1673ffffffffffffffffffffffffffffffffffffffff1681526020019081526020015f205f6101000a81548160ff0219169083151502179055508173ffffffffffffffffffffffffffffffffffffffff168373ffffffffffffffffffffffffffffffffffffffff167f17307eab39ab6107e8899845ad3d59bd9653f200f220920489ca2b5937696c31836040516112769190611cc4565b60405180910390a3505050565b5f8373ffffffffffffffffffffffffffffffffffffffff163b111561142f578273ffffffffffffffffffffffffffffffffffffffff1663150b7a026112c6610ef6565b8685856040518563ffffffff1660e01b81526004016112e89493929190612ab6565b6020604051808303815f875af192505050801561132357506040513d601f19601f820116820180604052508101906113209190612b14565b60015b6113a4573d805f8114611351576040519150601f19603f3d011682016040523d82523d5f602084013e611356565b606091505b505f81510361139c57836040517f64a0ae920000000000000000000000000000000000000000000000000000000081526004016113939190611e24565b60405180910390fd5b805181602001fd5b63150b7a0260e01b7bffffffffffffffffffffffffffffffffffffffffffffffffffffffff1916817bffffffffffffffffffffffffffffffffffffffffffffffffffffffff19161461142d57836040517f64a0ae920000000000000000000000000000000000000000000000000000000081526004016114249190611e24565b60405180910390fd5b505b50505050565b606060405180602001604052805f815250905090565b60605f60016114598461180d565b0190505f8167ffffffffffffffff811115611477576114766120ef565b5b6040519080825280601f01601f1916602001820160405280156114a95781602001600182028036833780820191505090505b5090505f82602001820190505b60011561150a578080600190039150507f3031323334353637383961626364656600000000000000000000000000000000600a86061a8153600a85816114ff576114fe612b3f565b5b0494505f85036114b6575b819350505050919050565b5f815f01549050919050565b6001815f015f828254019250508190555050565b61154e828260405180602001604052805f81525061195e565b5050565b5f60025f8381526020019081526020015f205f9054906101000a900473ffffffffffffffffffffffffffffffffffffffff169050919050565b80806115c357505f73ffffffffffffffffffffffffffffffffffffffff168273ffffffffffffffffffffffffffffffffffffffff1614155b156116f5575f6115d284610e37565b90505f73ffffffffffffffffffffffffffffffffffffffff168373ffffffffffffffffffffffffffffffffffffffff161415801561163c57508273ffffffffffffffffffffffffffffffffffffffff168173ffffffffffffffffffffffffffffffffffffffff1614155b801561164f575061164d8184610d40565b155b1561169157826040517fa9fbf51f0000000000000000000000000000000000000000000000000000000081526004016116889190611e24565b60405180910390fd5b81156116f357838573ffffffffffffffffffffffffffffffffffffffff168273ffffffffffffffffffffffffffffffffffffffff167f8c5be1e5ebec7d5bd14f71427d1e84f3dd0314c0f7b2291e5b200ac8c7c3b92560405160405180910390a45b505b8360045f8581526020019081526020015f205f6101000a81548173ffffffffffffffffffffffffffffffffffffffff021916908373ffffffffffffffffffffffffffffffffffffffff16021790555050505050565b611755838383611979565b611808575f73ffffffffffffffffffffffffffffffffffffffff168373ffffffffffffffffffffffffffffffffffffffff16036117c957806040517f7e2732890000000000000000000000000000000000000000000000000000000081526004016117c091906120d2565b60405180910390fd5b81816040517f177e802f0000000000000000000000000000000000000000000000000000000081526004016117ff929190612b6c565b60405180910390fd5b505050565b5f805f90507a184f03e93ff9f4daa797ed6e38ed64bf6a1f0100000000000000008310611869577a184f03e93ff9f4daa797ed6e38ed64bf6a1f010000000000000000838161185f5761185e612b3f565b5b0492506040810190505b6d04ee2d6d415b85acef810000000083106118a6576d04ee2d6d415b85acef8100000000838161189c5761189b612b3f565b5b0492506020810190505b662386f26fc1000083106118d557662386f26fc1000083816118cb576118ca612b3f565b5b0492506010810190505b6305f5e10083106118fe576305f5e10083816118f4576118f3612b3f565b5b0492506008810190505b612710831061192357612710838161191957611918612b3f565b5b0492506004810190505b60648310611946576064838161193c5761193b612b3f565b5b0492506002810190505b600a8310611955576001810190505b80915050919050565b6119688383611a39565b6119745f848484611283565b505050565b5f8073ffffffffffffffffffffffffffffffffffffffff168373ffffffffffffffffffffffffffffffffffffffff1614158015611a3057508273ffffffffffffffffffffffffffffffffffffffff168473ffffffffffffffffffffffffffffffffffffffff1614806119f157506119f08484610d40565b5b80611a2f57508273ffffffffffffffffffffffffffffffffffffffff16611a1783610ebd565b73ffffffffffffffffffffffffffffffffffffffff16145b5b90509392505050565b5f73ffffffffffffffffffffffffffffffffffffffff168273ffffffffffffffffffffffffffffffffffffffff1603611aa9575f6040517f64a0ae92000000000000000000000000000000000000000000000000000000008152600401611aa09190611e24565b60405180910390fd5b5f611ab583835f610f0f565b90505f73ffffffffffffffffffffffffffffffffffffffff168173ffffffffffffffffffffffffffffffffffffffff1614611b27575f6040517f73c6ac6e000000000000000000000000000000000000000000000000000000008152600401611b1e9190611e24565b60405180910390fd5b505050565b828054828255905f5260205f20908101928215611ba2579160200282015b82811115611ba1578251825f6101000a81548173ffffffffffffffffffffffffffffffffffffffff021916908373ffffffffffffffffffffffffffffffffffffffff16021790555091602001919060010190611b4a565b5b509050611baf9190611bfe565b5090565b828054828255905f5260205f20908101928215611bed579160200282015b82811115611bec578251825591602001919060010190611bd1565b5b509050611bfa9190611bfe565b5090565b5b80821115611c15575f815f905550600101611bff565b5090565b5f604051905090565b5f80fd5b5f80fd5b5f7fffffffff0000000000000000000000000000000000000000000000000000000082169050919050565b611c5e81611c2a565b8114611c68575f80fd5b50565b5f81359050611c7981611c55565b92915050565b5f60208284031215611c9457611c93611c22565b5b5f611ca184828501611c6b565b91505092915050565b5f8115159050919050565b611cbe81611caa565b82525050565b5f602082019050611cd75f830184611cb5565b92915050565b5f81519050919050565b5f82825260208201905092915050565b5f5b83811015611d14578082015181840152602081019050611cf9565b5f8484015250505050565b5f601f19601f8301169050919050565b5f611d3982611cdd565b611d438185611ce7565b9350611d53818560208601611cf7565b611d5c81611d1f565b840191505092915050565b5f6020820190508181035f830152611d7f8184611d2f565b905092915050565b5f819050919050565b611d9981611d87565b8114611da3575f80fd5b50565b5f81359050611db481611d90565b92915050565b5f60208284031215611dcf57611dce611c22565b5b5f611ddc84828501611da6565b91505092915050565b5f73ffffffffffffffffffffffffffffffffffffffff82169050919050565b5f611e0e82611de5565b9050919050565b611e1e81611e04565b82525050565b5f602082019050611e375f830184611e15565b92915050565b611e4681611e04565b8114611e50575f80fd5b50565b5f81359050611e6181611e3d565b92915050565b5f8060408385031215611e7d57611e7c611c22565b5b5f611e8a85828601611e53565b9250506020611e9b85828601611da6565b9150509250929050565b5f81519050919050565b5f82825260208201905092915050565b5f819050602082019050919050565b611ed781611e04565b82525050565b5f611ee88383611ece565b60208301905092915050565b5f602082019050919050565b5f611f0a82611ea5565b611f148185611eaf565b9350611f1f83611ebf565b805f5b83811015611f4f578151611f368882611edd565b9750611f4183611ef4565b925050600181019050611f22565b5085935050505092915050565b5f81519050919050565b5f82825260208201905092915050565b5f819050602082019050919050565b611f8e81611d87565b82525050565b5f611f9f8383611f85565b60208301905092915050565b5f602082019050919050565b5f611fc182611f5c565b611fcb8185611f66565b9350611fd683611f76565b805f5b83811015612006578151611fed8882611f94565b9750611ff883611fab565b925050600181019050611fd9565b5085935050505092915050565b5f6040820190508181035f83015261202b8185611f00565b9050818103602083015261203f8184611fb7565b90509392505050565b5f805f6060848603121561205f5761205e611c22565b5b5f61206c86828701611e53565b935050602061207d86828701611e53565b925050604061208e86828701611da6565b9150509250925092565b5f602082840312156120ad576120ac611c22565b5b5f6120ba84828501611e53565b91505092915050565b6120cc81611d87565b82525050565b5f6020820190506120e55f8301846120c3565b92915050565b5f80fd5b7f4e487b71000000000000000000000000000000000000000000000000000000005f52604160045260245ffd5b61212582611d1f565b810181811067ffffffffffffffff82111715612144576121436120ef565b5b80604052505050565b5f612156611c19565b9050612162828261211c565b919050565b5f67ffffffffffffffff821115612181576121806120ef565b5b602082029050602081019050919050565b5f80fd5b5f6121a86121a384612167565b61214d565b905080838252602082019050602084028301858111156121cb576121ca612192565b5b835b818110156121f457806121e08882611e53565b8452602084019350506020810190506121cd565b5050509392505050565b5f82601f830112612212576122116120eb565b5b8135612222848260208601612196565b91505092915050565b5f67ffffffffffffffff821115612245576122446120ef565b5b602082029050602081019050919050565b5f6122686122638461222b565b61214d565b9050808382526020820190506020840283018581111561228b5761228a612192565b5b835b818110156122b457806122a08882611da6565b84526020840193505060208101905061228d565b5050509392505050565b5f82601f8301126122d2576122d16120eb565b5b81356122e2848260208601612256565b91505092915050565b5f805f6060848603121561230257612301611c22565b5b5f61230f86828701611da6565b935050602084013567ffffffffffffffff8111156123305761232f611c26565b5b61233c868287016121fe565b925050604084013567ffffffffffffffff81111561235d5761235c611c26565b5b612369868287016122be565b9150509250925092565b61237c81611caa565b8114612386575f80fd5b50565b5f8135905061239781612373565b92915050565b5f80604083850312156123b3576123b2611c22565b5b5f6123c085828601611e53565b92505060206123d185828601612389565b9150509250929050565b5f80fd5b5f67ffffffffffffffff8211156123f9576123f86120ef565b5b61240282611d1f565b9050602081019050919050565b828183375f83830152505050565b5f61242f61242a846123df565b61214d565b90508281526020810184848401111561244b5761244a6123db565b5b61245684828561240f565b509392505050565b5f82601f830112612472576124716120eb565b5b813561248284826020860161241d565b91505092915050565b5f805f80608085870312156124a3576124a2611c22565b5b5f6124b087828801611e53565b94505060206124c187828801611e53565b93505060406124d287828801611da6565b925050606085013567ffffffffffffffff8111156124f3576124f2611c26565b5b6124ff8782880161245e565b91505092959194509250565b5f806040838503121561252157612520611c22565b5b5f83013567ffffffffffffffff81111561253e5761253d611c26565b5b61254a858286016121fe565b925050602083013567ffffffffffffffff81111561256b5761256a611c26565b5b612577858286016122be565b9150509250929050565b5f806040838503121561259757612596611c22565b5b5f6125a485828601611e53565b92505060206125b585828601611e53565b9150509250929050565b7f4e487b71000000000000000000000000000000000000000000000000000000005f52602260045260245ffd5b5f600282049050600182168061260357607f821691505b602082108103612616576126156125bf565b5b50919050565b5f60608201905061262f5f830186611e15565b61263c60208301856120c3565b6126496040830184611e15565b949350505050565b7f4f6e6c792074686520746f6b656e206f776e65722063616e207472616e7366655f8201527f72206f776e657273686970000000000000000000000000000000000000000000602082015250565b5f6126ab602b83611ce7565b91506126b682612651565b604082019050919050565b5f6020820190508181035f8301526126d88161269f565b9050919050565b7f546f6b656e20646f6573206e6f742065786973740000000000000000000000005f82015250565b5f612713601483611ce7565b915061271e826126df565b602082019050919050565b5f6020820190508181035f83015261274081612707565b9050919050565b7f4f776e65727320616e642073686172657320617272617973206d7573742068615f8201527f7665207468652073616d65206c656e6774680000000000000000000000000000602082015250565b5f6127a1603283611ce7565b91506127ac82612747565b604082019050919050565b5f6020820190508181035f8301526127ce81612795565b9050919050565b7f4174206c65617374206f6e65206e6577206f776e6572206973207265717569725f8201527f6564000000000000000000000000000000000000000000000000000000000000602082015250565b5f61282f602283611ce7565b915061283a826127d5565b604082019050919050565b5f6020820190508181035f83015261285c81612823565b9050919050565b7f4e487b71000000000000000000000000000000000000000000000000000000005f52603260045260245ffd5b7f4e487b71000000000000000000000000000000000000000000000000000000005f52601160045260245ffd5b5f6128c782611d87565b91506128d283611d87565b92508282019050808211156128ea576128e9612890565b5b92915050565b5f6128fa82611d87565b91507fffffffffffffffffffffffffffffffffffffffffffffffffffffffffffffffff820361292c5761292b612890565b5b600182019050919050565b7f546f74616c20736861726573206d7573742062652031303000000000000000005f82015250565b5f61296b601883611ce7565b915061297682612937565b602082019050919050565b5f6020820190508181035f8301526129988161295f565b9050919050565b5f81905092915050565b5f6129b382611cdd565b6129bd818561299f565b93506129cd818560208601611cf7565b80840191505092915050565b5f6129e482856129a9565b91506129f082846129a9565b91508190509392505050565b7f4174206c65617374206f6e65206f776e657220697320726571756972656400005f82015250565b5f612a30601e83611ce7565b9150612a3b826129fc565b602082019050919050565b5f6020820190508181035f830152612a5d81612a24565b9050919050565b5f81519050919050565b5f82825260208201905092915050565b5f612a8882612a64565b612a928185612a6e565b9350612aa2818560208601611cf7565b612aab81611d1f565b840191505092915050565b5f608082019050612ac95f830187611e15565b612ad66020830186611e15565b612ae360408301856120c3565b8181036060830152612af58184612a7e565b905095945050505050565b5f81519050612b0e81611c55565b92915050565b5f60208284031215612b2957612b28611c22565b5b5f612b3684828501612b00565b91505092915050565b7f4e487b71000000000000000000000000000000000000000000000000000000005f52601260045260245ffd5b5f604082019050612b7f5f830185611e15565b612b8c60208301846120c3565b939250505056fea2646970667358221220359c502088f4e45b50db881ed55f7da394e3a313031bc33cefc969779ba72d6464736f6c63430008150033",
  "immutableReferences": {},
  "source": "// SPDX-License-Identifier: MIT\npragma solidity ^0.8.0;\n\nimport \"@openzeppelin/contracts/token/ERC721/ERC721.sol\";\nimport \"@openzeppelin/contracts/utils/Counters.sol\";\n\n/**\n * @title ERC721PartialOwnership\n * @dev Implementation of the ERC981 standard for partial ownership of ERC721 tokens.\n */\ncontract ERC721PartialOwnership is ERC721 {\n    using Counters for Counters.Counter;\n    Counters.Counter private _tokenIdCounter;\n\n    // Mapping from token ID to list of owners and their shares\n    mapping(uint256 => Ownership) private ownershipByToken;\n\n    // Struct to represent ownership of a token\n    struct Ownership {\n        address[] owners;\n        uint256[] shares;\n    }\n\n    constructor(string memory name, string memory symbol) ERC721(name, symbol) {}\n\n    /**\n     * @dev Mints a new ERC721 token and assigns partial ownership.\n     * @param owners The addresses of the initial owners.\n     * @param shares The shares of ownership for each owner.\n     * @return tokenId The ID of the newly minted token.\n     */\n    function mint(address[] memory owners, uint256[] memory shares) public returns (uint256 tokenId) {\n        require(owners.length == shares.length, \"Owners and shares arrays must have the same length\");\n        require(owners.length > 0, \"At least one owner is required\");\n        uint256 totalShares = 0;\n        for (uint256 i = 0; i < shares.length; i++) {\n            totalShares += shares[i];\n        }\n        require(totalShares == 100, \"Total shares must be 100\");\n\n        tokenId = _tokenIdCounter.current();\n        _tokenIdCounter.increment();\n        _safeMint(msg.sender, tokenId);\n        ownershipByToken[tokenId] = Ownership(owners, shares);\n        emit Transfer(address(0), msg.sender, tokenId);\n    }\n\n    /**\n     * @dev Gets the list of owners and their shares for a given token.\n     * @param tokenId The token ID to query.\n     * @return owners The list of owners.\n     * @return shares The shares of ownership for each owner.\n     */\n    function ownershipOf(uint256 tokenId) public view returns (address[] memory owners, uint256[] memory shares) {\n        Ownership storage ownership = ownershipByToken[tokenId];\n        return (ownership.owners, ownership.shares);\n    }\n\n    /**\n     * @dev Transfers partial ownership of a token to new addresses.\n     * @param tokenId The token ID to transfer ownership of.\n     * @param newOwners The addresses of the new owners.\n     * @param newShares The shares of ownership for the new owners.\n     */\n    function transferOwnership(\n        uint256 tokenId,\n        address[] memory newOwners,\n        uint256[] memory newShares\n    ) public {\n        require(ownerOf(tokenId) == msg.sender, \"Only the token owner can transfer ownership\");\n        require(ownershipByToken[tokenId].owners.length > 0, \"Token does not exist\");\n        require(newOwners.length == newShares.length, \"Owners and shares arrays must have the same length\");\n        require(newOwners.length > 0, \"At least one new owner is required\");\n        uint256 totalShares = 0;\n        for (uint256 i = 0; i < newShares.length; i++) {\n            totalShares += newShares[i];\n        }\n        require(totalShares == 100, \"Total shares must be 100\");\n\n        Ownership storage ownership = ownershipByToken[tokenId];\n        ownership.owners = newOwners;\n        ownership.shares = newShares;\n        safeTransferFrom(msg.sender, address(0), tokenId);\n    }\n}\n",
  "sourcePath": "/Users/kennoluv/Documents/GitHub/CE340/2-66 Training/dapp-tutorial/contracts/ERC981.sol",
  "compiler": {
    "name": "solc",
    "version": "0.8.21+commit.d9974bed.Emscripten.clang"
  },
  "schemaVersion": "3.4.16",
  "updatedAt": "2024-03-31T10:06:19.587Z",
  "networkType": "ethereum",
  "devdoc": {
    "details": "Implementation of the ERC981 standard for partial ownership of ERC721 tokens.",
    "errors": {
      "ERC721IncorrectOwner(address,uint256,address)": [
        {
          "details": "Indicates an error related to the ownership over a particular token. Used in transfers.",
          "params": {
            "owner": "Address of the current owner of a token.",
            "sender": "Address whose tokens are being transferred.",
            "tokenId": "Identifier number of a token."
          }
        }
      ],
      "ERC721InsufficientApproval(address,uint256)": [
        {
          "details": "Indicates a failure with the `operator`s approval. Used in transfers.",
          "params": {
            "operator": "Address that may be allowed to operate on tokens without being their owner.",
            "tokenId": "Identifier number of a token."
          }
        }
      ],
      "ERC721InvalidApprover(address)": [
        {
          "details": "Indicates a failure with the `approver` of a token to be approved. Used in approvals.",
          "params": {
            "approver": "Address initiating an approval operation."
          }
        }
      ],
      "ERC721InvalidOperator(address)": [
        {
          "details": "Indicates a failure with the `operator` to be approved. Used in approvals.",
          "params": {
            "operator": "Address that may be allowed to operate on tokens without being their owner."
          }
        }
      ],
      "ERC721InvalidOwner(address)": [
        {
          "details": "Indicates that an address can't be an owner. For example, `address(0)` is a forbidden owner in EIP-20. Used in balance queries.",
          "params": {
            "owner": "Address of the current owner of a token."
          }
        }
      ],
      "ERC721InvalidReceiver(address)": [
        {
          "details": "Indicates a failure with the token `receiver`. Used in transfers.",
          "params": {
            "receiver": "Address to which tokens are being transferred."
          }
        }
      ],
      "ERC721InvalidSender(address)": [
        {
          "details": "Indicates a failure with the token `sender`. Used in transfers.",
          "params": {
            "sender": "Address whose tokens are being transferred."
          }
        }
      ],
      "ERC721NonexistentToken(uint256)": [
        {
          "details": "Indicates a `tokenId` whose `owner` is the zero address.",
          "params": {
            "tokenId": "Identifier number of a token."
          }
        }
      ]
    },
    "events": {
      "Approval(address,address,uint256)": {
        "details": "Emitted when `owner` enables `approved` to manage the `tokenId` token."
      },
      "ApprovalForAll(address,address,bool)": {
        "details": "Emitted when `owner` enables or disables (`approved`) `operator` to manage all of its assets."
      },
      "Transfer(address,address,uint256)": {
        "details": "Emitted when `tokenId` token is transferred from `from` to `to`."
      }
    },
    "kind": "dev",
    "methods": {
      "approve(address,uint256)": {
        "details": "See {IERC721-approve}."
      },
      "balanceOf(address)": {
        "details": "See {IERC721-balanceOf}."
      },
      "getApproved(uint256)": {
        "details": "See {IERC721-getApproved}."
      },
      "isApprovedForAll(address,address)": {
        "details": "See {IERC721-isApprovedForAll}."
      },
      "mint(address[],uint256[])": {
        "details": "Mints a new ERC721 token and assigns partial ownership.",
        "params": {
          "owners": "The addresses of the initial owners.",
          "shares": "The shares of ownership for each owner."
        },
        "returns": {
          "tokenId": "The ID of the newly minted token."
        }
      },
      "name()": {
        "details": "See {IERC721Metadata-name}."
      },
      "ownerOf(uint256)": {
        "details": "See {IERC721-ownerOf}."
      },
      "ownershipOf(uint256)": {
        "details": "Gets the list of owners and their shares for a given token.",
        "params": {
          "tokenId": "The token ID to query."
        },
        "returns": {
          "owners": "The list of owners.",
          "shares": "The shares of ownership for each owner."
        }
      },
      "safeTransferFrom(address,address,uint256)": {
        "details": "See {IERC721-safeTransferFrom}."
      },
      "safeTransferFrom(address,address,uint256,bytes)": {
        "details": "See {IERC721-safeTransferFrom}."
      },
      "setApprovalForAll(address,bool)": {
        "details": "See {IERC721-setApprovalForAll}."
      },
      "supportsInterface(bytes4)": {
        "details": "See {IERC165-supportsInterface}."
      },
      "symbol()": {
        "details": "See {IERC721Metadata-symbol}."
      },
      "tokenURI(uint256)": {
        "details": "See {IERC721Metadata-tokenURI}."
      },
      "transferFrom(address,address,uint256)": {
        "details": "See {IERC721-transferFrom}."
      },
      "transferOwnership(uint256,address[],uint256[])": {
        "details": "Transfers partial ownership of a token to new addresses.",
        "params": {
          "newOwners": "The addresses of the new owners.",
          "newShares": "The shares of ownership for the new owners.",
          "tokenId": "The token ID to transfer ownership of."
        }
      }
    },
    "title": "ERC721PartialOwnership",
    "version": 1
  },
  "userdoc": {
    "kind": "user",
    "methods": {},
    "version": 1
  }
}