{
  "contractName": "ERC981Token",
  "abi": [
    {
      "inputs": [
        {
          "internalType": "string",
          "name": "name",
          "type": "string"
        },
        {
          "internalType": "string",
          "name": "symbol",
          "type": "string"
        }
      ],
      "stateMutability": "nonpayable",
      "type": "constructor"
    },
    {
      "inputs": [
        {
          "internalType": "address",
          "name": "sender",
          "type": "address"
        },
        {
          "internalType": "uint256",
          "name": "tokenId",
          "type": "uint256"
        },
        {
          "internalType": "address",
          "name": "owner",
          "type": "address"
        }
      ],
      "name": "ERC721IncorrectOwner",
      "type": "error"
    },
    {
      "inputs": [
        {
          "internalType": "address",
          "name": "operator",
          "type": "address"
        },
        {
          "internalType": "uint256",
          "name": "tokenId",
          "type": "uint256"
        }
      ],
      "name": "ERC721InsufficientApproval",
      "type": "error"
    },
    {
      "inputs": [
        {
          "internalType": "address",
          "name": "approver",
          "type": "address"
        }
      ],
      "name": "ERC721InvalidApprover",
      "type": "error"
    },
    {
      "inputs": [
        {
          "internalType": "address",
          "name": "operator",
          "type": "address"
        }
      ],
      "name": "ERC721InvalidOperator",
      "type": "error"
    },
    {
      "inputs": [
        {
          "internalType": "address",
          "name": "owner",
          "type": "address"
        }
      ],
      "name": "ERC721InvalidOwner",
      "type": "error"
    },
    {
      "inputs": [
        {
          "internalType": "address",
          "name": "receiver",
          "type": "address"
        }
      ],
      "name": "ERC721InvalidReceiver",
      "type": "error"
    },
    {
      "inputs": [
        {
          "internalType": "address",
          "name": "sender",
          "type": "address"
        }
      ],
      "name": "ERC721InvalidSender",
      "type": "error"
    },
    {
      "inputs": [
        {
          "internalType": "uint256",
          "name": "tokenId",
          "type": "uint256"
        }
      ],
      "name": "ERC721NonexistentToken",
      "type": "error"
    },
    {
      "anonymous": false,
      "inputs": [
        {
          "indexed": true,
          "internalType": "address",
          "name": "owner",
          "type": "address"
        },
        {
          "indexed": true,
          "internalType": "address",
          "name": "approved",
          "type": "address"
        },
        {
          "indexed": true,
          "internalType": "uint256",
          "name": "tokenId",
          "type": "uint256"
        }
      ],
      "name": "Approval",
      "type": "event"
    },
    {
      "anonymous": false,
      "inputs": [
        {
          "indexed": true,
          "internalType": "address",
          "name": "owner",
          "type": "address"
        },
        {
          "indexed": true,
          "internalType": "address",
          "name": "operator",
          "type": "address"
        },
        {
          "indexed": false,
          "internalType": "bool",
          "name": "approved",
          "type": "bool"
        }
      ],
      "name": "ApprovalForAll",
      "type": "event"
    },
    {
      "anonymous": false,
      "inputs": [
        {
          "indexed": true,
          "internalType": "address",
          "name": "from",
          "type": "address"
        },
        {
          "indexed": true,
          "internalType": "address",
          "name": "to",
          "type": "address"
        },
        {
          "indexed": true,
          "internalType": "uint256",
          "name": "tokenId",
          "type": "uint256"
        }
      ],
      "name": "Transfer",
      "type": "event"
    },
    {
      "inputs": [
        {
          "internalType": "address",
          "name": "to",
          "type": "address"
        },
        {
          "internalType": "uint256",
          "name": "tokenId",
          "type": "uint256"
        }
      ],
      "name": "approve",
      "outputs": [],
      "stateMutability": "nonpayable",
      "type": "function"
    },
    {
      "inputs": [
        {
          "internalType": "address",
          "name": "owner",
          "type": "address"
        }
      ],
      "name": "balanceOf",
      "outputs": [
        {
          "internalType": "uint256",
          "name": "",
          "type": "uint256"
        }
      ],
      "stateMutability": "view",
      "type": "function",
      "constant": true
    },
    {
      "inputs": [
        {
          "internalType": "uint256",
          "name": "tokenId",
          "type": "uint256"
        }
      ],
      "name": "getApproved",
      "outputs": [
        {
          "internalType": "address",
          "name": "",
          "type": "address"
        }
      ],
      "stateMutability": "view",
      "type": "function",
      "constant": true
    },
    {
      "inputs": [
        {
          "internalType": "address",
          "name": "owner",
          "type": "address"
        },
        {
          "internalType": "address",
          "name": "operator",
          "type": "address"
        }
      ],
      "name": "isApprovedForAll",
      "outputs": [
        {
          "internalType": "bool",
          "name": "",
          "type": "bool"
        }
      ],
      "stateMutability": "view",
      "type": "function",
      "constant": true
    },
    {
      "inputs": [],
      "name": "name",
      "outputs": [
        {
          "internalType": "string",
          "name": "",
          "type": "string"
        }
      ],
      "stateMutability": "view",
      "type": "function",
      "constant": true
    },
    {
      "inputs": [
        {
          "internalType": "uint256",
          "name": "tokenId",
          "type": "uint256"
        }
      ],
      "name": "ownerOf",
      "outputs": [
        {
          "internalType": "address",
          "name": "",
          "type": "address"
        }
      ],
      "stateMutability": "view",
      "type": "function",
      "constant": true
    },
    {
      "inputs": [
        {
          "internalType": "address",
          "name": "from",
          "type": "address"
        },
        {
          "internalType": "address",
          "name": "to",
          "type": "address"
        },
        {
          "internalType": "uint256",
          "name": "tokenId",
          "type": "uint256"
        }
      ],
      "name": "safeTransferFrom",
      "outputs": [],
      "stateMutability": "nonpayable",
      "type": "function"
    },
    {
      "inputs": [
        {
          "internalType": "address",
          "name": "from",
          "type": "address"
        },
        {
          "internalType": "address",
          "name": "to",
          "type": "address"
        },
        {
          "internalType": "uint256",
          "name": "tokenId",
          "type": "uint256"
        },
        {
          "internalType": "bytes",
          "name": "data",
          "type": "bytes"
        }
      ],
      "name": "safeTransferFrom",
      "outputs": [],
      "stateMutability": "nonpayable",
      "type": "function"
    },
    {
      "inputs": [
        {
          "internalType": "address",
          "name": "operator",
          "type": "address"
        },
        {
          "internalType": "bool",
          "name": "approved",
          "type": "bool"
        }
      ],
      "name": "setApprovalForAll",
      "outputs": [],
      "stateMutability": "nonpayable",
      "type": "function"
    },
    {
      "inputs": [
        {
          "internalType": "bytes4",
          "name": "interfaceId",
          "type": "bytes4"
        }
      ],
      "name": "supportsInterface",
      "outputs": [
        {
          "internalType": "bool",
          "name": "",
          "type": "bool"
        }
      ],
      "stateMutability": "view",
      "type": "function",
      "constant": true
    },
    {
      "inputs": [],
      "name": "symbol",
      "outputs": [
        {
          "internalType": "string",
          "name": "",
          "type": "string"
        }
      ],
      "stateMutability": "view",
      "type": "function",
      "constant": true
    },
    {
      "inputs": [
        {
          "internalType": "uint256",
          "name": "tokenId",
          "type": "uint256"
        }
      ],
      "name": "tokenURI",
      "outputs": [
        {
          "internalType": "string",
          "name": "",
          "type": "string"
        }
      ],
      "stateMutability": "view",
      "type": "function",
      "constant": true
    },
    {
      "inputs": [
        {
          "internalType": "address",
          "name": "from",
          "type": "address"
        },
        {
          "internalType": "address",
          "name": "to",
          "type": "address"
        },
        {
          "internalType": "uint256",
          "name": "tokenId",
          "type": "uint256"
        }
      ],
      "name": "transferFrom",
      "outputs": [],
      "stateMutability": "nonpayable",
      "type": "function"
    },
    {
      "inputs": [
        {
          "internalType": "address[]",
          "name": "owners",
          "type": "address[]"
        },
        {
          "internalType": "uint256[]",
          "name": "shares",
          "type": "uint256[]"
        }
      ],
      "name": "mint",
      "outputs": [
        {
          "internalType": "uint256",
          "name": "",
          "type": "uint256"
        }
      ],
      "stateMutability": "nonpayable",
      "type": "function"
    },
    {
      "inputs": [
        {
          "internalType": "uint256",
          "name": "tokenId",
          "type": "uint256"
        }
      ],
      "name": "ownershipOf",
      "outputs": [
        {
          "internalType": "address[]",
          "name": "",
          "type": "address[]"
        },
        {
          "internalType": "uint256[]",
          "name": "",
          "type": "uint256[]"
        }
      ],
      "stateMutability": "view",
      "type": "function",
      "constant": true
    },
    {
      "inputs": [
        {
          "internalType": "uint256",
          "name": "tokenId",
          "type": "uint256"
        },
        {
          "internalType": "address[]",
          "name": "newOwners",
          "type": "address[]"
        },
        {
          "internalType": "uint256[]",
          "name": "newShares",
          "type": "uint256[]"
        }
      ],
      "name": "transferOwnership",
      "outputs": [],
      "stateMutability": "nonpayable",
      "type": "function"
    },
    {
      "inputs": [
        {
          "internalType": "uint256",
          "name": "tokenId",
          "type": "uint256"
        },
        {
          "internalType": "address[]",
          "name": "newOwners",
          "type": "address[]"
        },
        {
          "internalType": "uint256[]",
          "name": "newShares",
          "type": "uint256[]"
        }
      ],
      "name": "shareOwnership",
      "outputs": [],
      "stateMutability": "nonpayable",
      "type": "function"
    }
  ],
  "bytecode": "0x608060405234801562000010575f80fd5b5060405162003010380380620030108339818101604052810190620000369190620001ea565b8181815f9081620000489190620004a4565b5080600190816200005a9190620004a4565b505050505062000588565b5f604051905090565b5f80fd5b5f80fd5b5f80fd5b5f80fd5b5f601f19601f8301169050919050565b7f4e487b71000000000000000000000000000000000000000000000000000000005f52604160045260245ffd5b620000c6826200007e565b810181811067ffffffffffffffff82111715620000e857620000e76200008e565b5b80604052505050565b5f620000fc62000065565b90506200010a8282620000bb565b919050565b5f67ffffffffffffffff8211156200012c576200012b6200008e565b5b62000137826200007e565b9050602081019050919050565b5f5b838110156200016357808201518184015260208101905062000146565b5f8484015250505050565b5f620001846200017e846200010f565b620000f1565b905082815260208101848484011115620001a357620001a26200007a565b5b620001b084828562000144565b509392505050565b5f82601f830112620001cf57620001ce62000076565b5b8151620001e18482602086016200016e565b91505092915050565b5f80604083850312156200020357620002026200006e565b5b5f83015167ffffffffffffffff81111562000223576200022262000072565b5b6200023185828601620001b8565b925050602083015167ffffffffffffffff81111562000255576200025462000072565b5b6200026385828601620001b8565b9150509250929050565b5f81519050919050565b7f4e487b71000000000000000000000000000000000000000000000000000000005f52602260045260245ffd5b5f6002820490506001821680620002bc57607f821691505b602082108103620002d257620002d162000277565b5b50919050565b5f819050815f5260205f209050919050565b5f6020601f8301049050919050565b5f82821b905092915050565b5f60088302620003367fffffffffffffffffffffffffffffffffffffffffffffffffffffffffffffffff82620002f9565b620003428683620002f9565b95508019841693508086168417925050509392505050565b5f819050919050565b5f819050919050565b5f6200038c6200038662000380846200035a565b62000363565b6200035a565b9050919050565b5f819050919050565b620003a7836200036c565b620003bf620003b68262000393565b84845462000305565b825550505050565b5f90565b620003d5620003c7565b620003e28184846200039c565b505050565b5b818110156200040957620003fd5f82620003cb565b600181019050620003e8565b5050565b601f82111562000458576200042281620002d8565b6200042d84620002ea565b810160208510156200043d578190505b620004556200044c85620002ea565b830182620003e7565b50505b505050565b5f82821c905092915050565b5f6200047a5f19846008026200045d565b1980831691505092915050565b5f62000494838362000469565b9150826002028217905092915050565b620004af826200026d565b67ffffffffffffffff811115620004cb57620004ca6200008e565b5b620004d78254620002a4565b620004e48282856200040d565b5f60209050601f8311600181146200051a575f841562000505578287015190505b62000511858262000487565b86555062000580565b601f1984166200052a86620002d8565b5f5b8281101562000553578489015182556001820191506020850194506020810190506200052c565b868310156200057357848901516200056f601f89168262000469565b8355505b6001600288020188555050505b505050505050565b612a7a80620005965f395ff3fe608060405234801561000f575f80fd5b5060043610610109575f3560e01c80636b4f1052116100a0578063a22cb4651161006f578063a22cb465146102c6578063b88d4fde146102e2578063c87b56dd146102fe578063e467f7e01461032e578063e985e9c51461035e57610109565b80636b4f10521461024057806370a082311461025c5780637ced0a421461028c57806395d89b41146102a857610109565b8063140364a1116100dc578063140364a1146101a757806323b872dd146101d857806342842e0e146101f45780636352211e1461021057610109565b806301ffc9a71461010d57806306fdde031461013d578063081812fc1461015b578063095ea7b31461018b575b5f80fd5b61012760048036038101906101229190611c26565b61038e565b6040516101349190611c6b565b60405180910390f35b61014561046f565b6040516101529190611d0e565b60405180910390f35b61017560048036038101906101709190611d61565b6104fe565b6040516101829190611dcb565b60405180910390f35b6101a560048036038101906101a09190611e0e565b610519565b005b6101c160048036038101906101bc9190611d61565b61052f565b6040516101cf929190611fba565b60405180910390f35b6101f260048036038101906101ed9190611fef565b61062c565b005b61020e60048036038101906102099190611fef565b61072b565b005b61022a60048036038101906102259190611d61565b61074a565b6040516102379190611dcb565b60405180910390f35b61025a6004803603810190610255919061223f565b61075b565b005b610276600480360381019061027191906122c7565b610876565b6040516102839190612301565b60405180910390f35b6102a660048036038101906102a1919061223f565b61092c565b005b6102b0610a47565b6040516102bd9190611d0e565b60405180910390f35b6102e060048036038101906102db9190612344565b610ad7565b005b6102fc60048036038101906102f79190612432565b610aed565b005b61031860048036038101906103139190611d61565b610b0a565b6040516103259190611d0e565b60405180910390f35b610348600480360381019061034391906124b2565b610b70565b6040516103559190612301565b60405180910390f35b61037860048036038101906103739190612528565b610ce7565b6040516103859190611c6b565b60405180910390f35b5f7f80ac58cd000000000000000000000000000000000000000000000000000000007bffffffffffffffffffffffffffffffffffffffffffffffffffffffff1916827bffffffffffffffffffffffffffffffffffffffffffffffffffffffff1916148061045857507f5b5e139f000000000000000000000000000000000000000000000000000000007bffffffffffffffffffffffffffffffffffffffffffffffffffffffff1916827bffffffffffffffffffffffffffffffffffffffffffffffffffffffff1916145b80610468575061046782610d75565b5b9050919050565b60605f805461047d90612593565b80601f01602080910402602001604051908101604052809291908181526020018280546104a990612593565b80156104f45780601f106104cb576101008083540402835291602001916104f4565b820191905f5260205f20905b8154815290600101906020018083116104d757829003601f168201915b5050505050905090565b5f61050882610dde565b5061051282610e64565b9050919050565b61052b8282610526610e9d565b610ea4565b5050565b6060805f60075f8581526020019081526020015f209050805f0181600101818054806020026020016040519081016040528092919081815260200182805480156105cb57602002820191905f5260205f20905b815f9054906101000a900473ffffffffffffffffffffffffffffffffffffffff1673ffffffffffffffffffffffffffffffffffffffff1681526020019060010190808311610582575b505050505091508080548060200260200160405190810160405280929190818152602001828054801561061b57602002820191905f5260205f20905b815481526020019060010190808311610607575b505050505090509250925050915091565b5f73ffffffffffffffffffffffffffffffffffffffff168273ffffffffffffffffffffffffffffffffffffffff160361069c575f6040517f64a0ae920000000000000000000000000000000000000000000000000000000081526004016106939190611dcb565b60405180910390fd5b5f6106af83836106aa610e9d565b610eb6565b90508373ffffffffffffffffffffffffffffffffffffffff168173ffffffffffffffffffffffffffffffffffffffff1614610725578382826040517f64283d7b00000000000000000000000000000000000000000000000000000000815260040161071c939291906125c3565b60405180910390fd5b50505050565b61074583838360405180602001604052805f815250610aed565b505050565b5f61075482610dde565b9050919050565b805182511461079f576040517f08c379a000000000000000000000000000000000000000000000000000000000815260040161079690612668565b60405180910390fd5b5f805b82518110156107e6578281815181106107be576107bd612686565b5b6020026020010151826107d191906126e0565b915080806107de90612713565b9150506107a2565b506064811461082a576040517f08c379a0000000000000000000000000000000000000000000000000000000008152600401610821906127a4565b60405180910390fd5b5f60075f8681526020019081526020015f20905083815f019080519060200190610855929190611ad3565b508281600101908051906020019061086e929190611b5a565b505050505050565b5f8073ffffffffffffffffffffffffffffffffffffffff168273ffffffffffffffffffffffffffffffffffffffff16036108e7575f6040517f89c62b640000000000000000000000000000000000000000000000000000000081526004016108de9190611dcb565b60405180910390fd5b60035f8373ffffffffffffffffffffffffffffffffffffffff1673ffffffffffffffffffffffffffffffffffffffff1681526020019081526020015f20549050919050565b8051825114610970576040517f08c379a000000000000000000000000000000000000000000000000000000000815260040161096790612668565b60405180910390fd5b5f805b82518110156109b75782818151811061098f5761098e612686565b5b6020026020010151826109a291906126e0565b915080806109af90612713565b915050610973565b50606481146109fb576040517f08c379a00000000000000000000000000000000000000000000000000000000081526004016109f2906127a4565b60405180910390fd5b5f60075f8681526020019081526020015f20905083815f019080519060200190610a26929190611ad3565b5082816001019080519060200190610a3f929190611b5a565b505050505050565b606060018054610a5690612593565b80601f0160208091040260200160405190810160405280929190818152602001828054610a8290612593565b8015610acd5780601f10610aa457610100808354040283529160200191610acd565b820191905f5260205f20905b815481529060010190602001808311610ab057829003601f168201915b5050505050905090565b610ae9610ae2610e9d565b83836110c1565b5050565b610af884848461062c565b610b048484848461122a565b50505050565b6060610b1582610dde565b505f610b1f6113dc565b90505f815111610b3d5760405180602001604052805f815250610b68565b80610b47846113f2565b604051602001610b589291906127fc565b6040516020818303038152906040525b915050919050565b5f8151835114610bb5576040517f08c379a0000000000000000000000000000000000000000000000000000000008152600401610bac9061288f565b60405180910390fd5b5f805b8351811015610bfc57838181518110610bd457610bd3612686565b5b602002602001015182610be791906126e0565b91508080610bf490612713565b915050610bb8565b5060648114610c40576040517f08c379a0000000000000000000000000000000000000000000000000000000008152600401610c37906128f7565b60405180910390fd5b610c4a60066114bc565b5f610c5560066114d0565b9050610c7b855f81518110610c6d57610c6c612686565b5b6020026020010151826114dc565b60405180604001604052808681526020018581525060075f8381526020019081526020015f205f820151815f019080519060200190610cbb929190611ad3565b506020820151816001019080519060200190610cd8929190611b5a565b50905050809250505092915050565b5f60055f8473ffffffffffffffffffffffffffffffffffffffff1673ffffffffffffffffffffffffffffffffffffffff1681526020019081526020015f205f8373ffffffffffffffffffffffffffffffffffffffff1673ffffffffffffffffffffffffffffffffffffffff1681526020019081526020015f205f9054906101000a900460ff16905092915050565b5f7f01ffc9a7000000000000000000000000000000000000000000000000000000007bffffffffffffffffffffffffffffffffffffffffffffffffffffffff1916827bffffffffffffffffffffffffffffffffffffffffffffffffffffffff1916149050919050565b5f80610de9836114f9565b90505f73ffffffffffffffffffffffffffffffffffffffff168173ffffffffffffffffffffffffffffffffffffffff1603610e5b57826040517f7e273289000000000000000000000000000000000000000000000000000000008152600401610e529190612301565b60405180910390fd5b80915050919050565b5f60045f8381526020019081526020015f205f9054906101000a900473ffffffffffffffffffffffffffffffffffffffff169050919050565b5f33905090565b610eb18383836001611532565b505050565b5f80610ec1846114f9565b90505f73ffffffffffffffffffffffffffffffffffffffff168373ffffffffffffffffffffffffffffffffffffffff1614610f0257610f018184866116f1565b5b5f73ffffffffffffffffffffffffffffffffffffffff168173ffffffffffffffffffffffffffffffffffffffff1614610f8d57610f415f855f80611532565b600160035f8373ffffffffffffffffffffffffffffffffffffffff1673ffffffffffffffffffffffffffffffffffffffff1681526020019081526020015f205f82825403925050819055505b5f73ffffffffffffffffffffffffffffffffffffffff168573ffffffffffffffffffffffffffffffffffffffff161461100c57600160035f8773ffffffffffffffffffffffffffffffffffffffff1673ffffffffffffffffffffffffffffffffffffffff1681526020019081526020015f205f82825401925050819055505b8460025f8681526020019081526020015f205f6101000a81548173ffffffffffffffffffffffffffffffffffffffff021916908373ffffffffffffffffffffffffffffffffffffffff160217905550838573ffffffffffffffffffffffffffffffffffffffff168273ffffffffffffffffffffffffffffffffffffffff167fddf252ad1be2c89b69c2b068fc378daa952ba7f163c4a11628f55a4df523b3ef60405160405180910390a4809150509392505050565b5f73ffffffffffffffffffffffffffffffffffffffff168273ffffffffffffffffffffffffffffffffffffffff160361113157816040517f5b08ba180000000000000000000000000000000000000000000000000000000081526004016111289190611dcb565b60405180910390fd5b8060055f8573ffffffffffffffffffffffffffffffffffffffff1673ffffffffffffffffffffffffffffffffffffffff1681526020019081526020015f205f8473ffffffffffffffffffffffffffffffffffffffff1673ffffffffffffffffffffffffffffffffffffffff1681526020019081526020015f205f6101000a81548160ff0219169083151502179055508173ffffffffffffffffffffffffffffffffffffffff168373ffffffffffffffffffffffffffffffffffffffff167f17307eab39ab6107e8899845ad3d59bd9653f200f220920489ca2b5937696c318360405161121d9190611c6b565b60405180910390a3505050565b5f8373ffffffffffffffffffffffffffffffffffffffff163b11156113d6578273ffffffffffffffffffffffffffffffffffffffff1663150b7a0261126d610e9d565b8685856040518563ffffffff1660e01b815260040161128f9493929190612967565b6020604051808303815f875af19250505080156112ca57506040513d601f19601f820116820180604052508101906112c791906129c5565b60015b61134b573d805f81146112f8576040519150601f19603f3d011682016040523d82523d5f602084013e6112fd565b606091505b505f81510361134357836040517f64a0ae9200000000000000000000000000000000000000000000000000000000815260040161133a9190611dcb565b60405180910390fd5b805181602001fd5b63150b7a0260e01b7bffffffffffffffffffffffffffffffffffffffffffffffffffffffff1916817bffffffffffffffffffffffffffffffffffffffffffffffffffffffff1916146113d457836040517f64a0ae920000000000000000000000000000000000000000000000000000000081526004016113cb9190611dcb565b60405180910390fd5b505b50505050565b606060405180602001604052805f815250905090565b60605f6001611400846117b4565b0190505f8167ffffffffffffffff81111561141e5761141d612043565b5b6040519080825280601f01601f1916602001820160405280156114505781602001600182028036833780820191505090505b5090505f82602001820190505b6001156114b1578080600190039150507f3031323334353637383961626364656600000000000000000000000000000000600a86061a8153600a85816114a6576114a56129f0565b5b0494505f850361145d575b819350505050919050565b6001815f015f828254019250508190555050565b5f815f01549050919050565b6114f5828260405180602001604052805f815250611905565b5050565b5f60025f8381526020019081526020015f205f9054906101000a900473ffffffffffffffffffffffffffffffffffffffff169050919050565b808061156a57505f73ffffffffffffffffffffffffffffffffffffffff168273ffffffffffffffffffffffffffffffffffffffff1614155b1561169c575f61157984610dde565b90505f73ffffffffffffffffffffffffffffffffffffffff168373ffffffffffffffffffffffffffffffffffffffff16141580156115e357508273ffffffffffffffffffffffffffffffffffffffff168173ffffffffffffffffffffffffffffffffffffffff1614155b80156115f657506115f48184610ce7565b155b1561163857826040517fa9fbf51f00000000000000000000000000000000000000000000000000000000815260040161162f9190611dcb565b60405180910390fd5b811561169a57838573ffffffffffffffffffffffffffffffffffffffff168273ffffffffffffffffffffffffffffffffffffffff167f8c5be1e5ebec7d5bd14f71427d1e84f3dd0314c0f7b2291e5b200ac8c7c3b92560405160405180910390a45b505b8360045f8581526020019081526020015f205f6101000a81548173ffffffffffffffffffffffffffffffffffffffff021916908373ffffffffffffffffffffffffffffffffffffffff16021790555050505050565b6116fc838383611920565b6117af575f73ffffffffffffffffffffffffffffffffffffffff168373ffffffffffffffffffffffffffffffffffffffff160361177057806040517f7e2732890000000000000000000000000000000000000000000000000000000081526004016117679190612301565b60405180910390fd5b81816040517f177e802f0000000000000000000000000000000000000000000000000000000081526004016117a6929190612a1d565b60405180910390fd5b505050565b5f805f90507a184f03e93ff9f4daa797ed6e38ed64bf6a1f0100000000000000008310611810577a184f03e93ff9f4daa797ed6e38ed64bf6a1f0100000000000000008381611806576118056129f0565b5b0492506040810190505b6d04ee2d6d415b85acef8100000000831061184d576d04ee2d6d415b85acef81000000008381611843576118426129f0565b5b0492506020810190505b662386f26fc10000831061187c57662386f26fc100008381611872576118716129f0565b5b0492506010810190505b6305f5e10083106118a5576305f5e100838161189b5761189a6129f0565b5b0492506008810190505b61271083106118ca5761271083816118c0576118bf6129f0565b5b0492506004810190505b606483106118ed57606483816118e3576118e26129f0565b5b0492506002810190505b600a83106118fc576001810190505b80915050919050565b61190f83836119e0565b61191b5f84848461122a565b505050565b5f8073ffffffffffffffffffffffffffffffffffffffff168373ffffffffffffffffffffffffffffffffffffffff16141580156119d757508273ffffffffffffffffffffffffffffffffffffffff168473ffffffffffffffffffffffffffffffffffffffff16148061199857506119978484610ce7565b5b806119d657508273ffffffffffffffffffffffffffffffffffffffff166119be83610e64565b73ffffffffffffffffffffffffffffffffffffffff16145b5b90509392505050565b5f73ffffffffffffffffffffffffffffffffffffffff168273ffffffffffffffffffffffffffffffffffffffff1603611a50575f6040517f64a0ae92000000000000000000000000000000000000000000000000000000008152600401611a479190611dcb565b60405180910390fd5b5f611a5c83835f610eb6565b90505f73ffffffffffffffffffffffffffffffffffffffff168173ffffffffffffffffffffffffffffffffffffffff1614611ace575f6040517f73c6ac6e000000000000000000000000000000000000000000000000000000008152600401611ac59190611dcb565b60405180910390fd5b505050565b828054828255905f5260205f20908101928215611b49579160200282015b82811115611b48578251825f6101000a81548173ffffffffffffffffffffffffffffffffffffffff021916908373ffffffffffffffffffffffffffffffffffffffff16021790555091602001919060010190611af1565b5b509050611b569190611ba5565b5090565b828054828255905f5260205f20908101928215611b94579160200282015b82811115611b93578251825591602001919060010190611b78565b5b509050611ba19190611ba5565b5090565b5b80821115611bbc575f815f905550600101611ba6565b5090565b5f604051905090565b5f80fd5b5f80fd5b5f7fffffffff0000000000000000000000000000000000000000000000000000000082169050919050565b611c0581611bd1565b8114611c0f575f80fd5b50565b5f81359050611c2081611bfc565b92915050565b5f60208284031215611c3b57611c3a611bc9565b5b5f611c4884828501611c12565b91505092915050565b5f8115159050919050565b611c6581611c51565b82525050565b5f602082019050611c7e5f830184611c5c565b92915050565b5f81519050919050565b5f82825260208201905092915050565b5f5b83811015611cbb578082015181840152602081019050611ca0565b5f8484015250505050565b5f601f19601f8301169050919050565b5f611ce082611c84565b611cea8185611c8e565b9350611cfa818560208601611c9e565b611d0381611cc6565b840191505092915050565b5f6020820190508181035f830152611d268184611cd6565b905092915050565b5f819050919050565b611d4081611d2e565b8114611d4a575f80fd5b50565b5f81359050611d5b81611d37565b92915050565b5f60208284031215611d7657611d75611bc9565b5b5f611d8384828501611d4d565b91505092915050565b5f73ffffffffffffffffffffffffffffffffffffffff82169050919050565b5f611db582611d8c565b9050919050565b611dc581611dab565b82525050565b5f602082019050611dde5f830184611dbc565b92915050565b611ded81611dab565b8114611df7575f80fd5b50565b5f81359050611e0881611de4565b92915050565b5f8060408385031215611e2457611e23611bc9565b5b5f611e3185828601611dfa565b9250506020611e4285828601611d4d565b9150509250929050565b5f81519050919050565b5f82825260208201905092915050565b5f819050602082019050919050565b611e7e81611dab565b82525050565b5f611e8f8383611e75565b60208301905092915050565b5f602082019050919050565b5f611eb182611e4c565b611ebb8185611e56565b9350611ec683611e66565b805f5b83811015611ef6578151611edd8882611e84565b9750611ee883611e9b565b925050600181019050611ec9565b5085935050505092915050565b5f81519050919050565b5f82825260208201905092915050565b5f819050602082019050919050565b611f3581611d2e565b82525050565b5f611f468383611f2c565b60208301905092915050565b5f602082019050919050565b5f611f6882611f03565b611f728185611f0d565b9350611f7d83611f1d565b805f5b83811015611fad578151611f948882611f3b565b9750611f9f83611f52565b925050600181019050611f80565b5085935050505092915050565b5f6040820190508181035f830152611fd28185611ea7565b90508181036020830152611fe68184611f5e565b90509392505050565b5f805f6060848603121561200657612005611bc9565b5b5f61201386828701611dfa565b935050602061202486828701611dfa565b925050604061203586828701611d4d565b9150509250925092565b5f80fd5b7f4e487b71000000000000000000000000000000000000000000000000000000005f52604160045260245ffd5b61207982611cc6565b810181811067ffffffffffffffff8211171561209857612097612043565b5b80604052505050565b5f6120aa611bc0565b90506120b68282612070565b919050565b5f67ffffffffffffffff8211156120d5576120d4612043565b5b602082029050602081019050919050565b5f80fd5b5f6120fc6120f7846120bb565b6120a1565b9050808382526020820190506020840283018581111561211f5761211e6120e6565b5b835b8181101561214857806121348882611dfa565b845260208401935050602081019050612121565b5050509392505050565b5f82601f8301126121665761216561203f565b5b81356121768482602086016120ea565b91505092915050565b5f67ffffffffffffffff82111561219957612198612043565b5b602082029050602081019050919050565b5f6121bc6121b78461217f565b6120a1565b905080838252602082019050602084028301858111156121df576121de6120e6565b5b835b8181101561220857806121f48882611d4d565b8452602084019350506020810190506121e1565b5050509392505050565b5f82601f8301126122265761222561203f565b5b81356122368482602086016121aa565b91505092915050565b5f805f6060848603121561225657612255611bc9565b5b5f61226386828701611d4d565b935050602084013567ffffffffffffffff81111561228457612283611bcd565b5b61229086828701612152565b925050604084013567ffffffffffffffff8111156122b1576122b0611bcd565b5b6122bd86828701612212565b9150509250925092565b5f602082840312156122dc576122db611bc9565b5b5f6122e984828501611dfa565b91505092915050565b6122fb81611d2e565b82525050565b5f6020820190506123145f8301846122f2565b92915050565b61232381611c51565b811461232d575f80fd5b50565b5f8135905061233e8161231a565b92915050565b5f806040838503121561235a57612359611bc9565b5b5f61236785828601611dfa565b925050602061237885828601612330565b9150509250929050565b5f80fd5b5f67ffffffffffffffff8211156123a05761239f612043565b5b6123a982611cc6565b9050602081019050919050565b828183375f83830152505050565b5f6123d66123d184612386565b6120a1565b9050828152602081018484840111156123f2576123f1612382565b5b6123fd8482856123b6565b509392505050565b5f82601f8301126124195761241861203f565b5b81356124298482602086016123c4565b91505092915050565b5f805f806080858703121561244a57612449611bc9565b5b5f61245787828801611dfa565b945050602061246887828801611dfa565b935050604061247987828801611d4d565b925050606085013567ffffffffffffffff81111561249a57612499611bcd565b5b6124a687828801612405565b91505092959194509250565b5f80604083850312156124c8576124c7611bc9565b5b5f83013567ffffffffffffffff8111156124e5576124e4611bcd565b5b6124f185828601612152565b925050602083013567ffffffffffffffff81111561251257612511611bcd565b5b61251e85828601612212565b9150509250929050565b5f806040838503121561253e5761253d611bc9565b5b5f61254b85828601611dfa565b925050602061255c85828601611dfa565b9150509250929050565b7f4e487b71000000000000000000000000000000000000000000000000000000005f52602260045260245ffd5b5f60028204905060018216806125aa57607f821691505b6020821081036125bd576125bc612566565b5b50919050565b5f6060820190506125d65f830186611dbc565b6125e360208301856122f2565b6125f06040830184611dbc565b949350505050565b7f4e6577206f776e65727320616e6420736861726573206d7573742068617665205f8201527f7468652073616d65206c656e6774680000000000000000000000000000000000602082015250565b5f612652602f83611c8e565b915061265d826125f8565b604082019050919050565b5f6020820190508181035f83015261267f81612646565b9050919050565b7f4e487b71000000000000000000000000000000000000000000000000000000005f52603260045260245ffd5b7f4e487b71000000000000000000000000000000000000000000000000000000005f52601160045260245ffd5b5f6126ea82611d2e565b91506126f583611d2e565b925082820190508082111561270d5761270c6126b3565b5b92915050565b5f61271d82611d2e565b91507fffffffffffffffffffffffffffffffffffffffffffffffffffffffffffffffff820361274f5761274e6126b3565b5b600182019050919050565b7f546f74616c206e657720736861726573206d75737420626520313030000000005f82015250565b5f61278e601c83611c8e565b91506127998261275a565b602082019050919050565b5f6020820190508181035f8301526127bb81612782565b9050919050565b5f81905092915050565b5f6127d682611c84565b6127e081856127c2565b93506127f0818560208601611c9e565b80840191505092915050565b5f61280782856127cc565b915061281382846127cc565b91508190509392505050565b7f4f776e65727320616e6420736861726573206d757374206861766520746865205f8201527f73616d65206c656e677468000000000000000000000000000000000000000000602082015250565b5f612879602b83611c8e565b91506128848261281f565b604082019050919050565b5f6020820190508181035f8301526128a68161286d565b9050919050565b7f546f74616c20736861726573206d7573742062652031303000000000000000005f82015250565b5f6128e1601883611c8e565b91506128ec826128ad565b602082019050919050565b5f6020820190508181035f83015261290e816128d5565b9050919050565b5f81519050919050565b5f82825260208201905092915050565b5f61293982612915565b612943818561291f565b9350612953818560208601611c9e565b61295c81611cc6565b840191505092915050565b5f60808201905061297a5f830187611dbc565b6129876020830186611dbc565b61299460408301856122f2565b81810360608301526129a6818461292f565b905095945050505050565b5f815190506129bf81611bfc565b92915050565b5f602082840312156129da576129d9611bc9565b5b5f6129e7848285016129b1565b91505092915050565b7f4e487b71000000000000000000000000000000000000000000000000000000005f52601260045260245ffd5b5f604082019050612a305f830185611dbc565b612a3d60208301846122f2565b939250505056fea264697066735822122083f67e6fdee081db72a96a9dbcbb0a07d13e227da2c46fba3d1bcf456830c2be64736f6c63430008150033",
  "immutableReferences": {},
  "source": "// SPDX-License-Identifier: MIT\npragma solidity ^0.8.0;\n\nimport \"@openzeppelin/contracts/token/ERC721/ERC721.sol\";\nimport \"@openzeppelin/contracts/utils/Counters.sol\";\n\ncontract ERC981Token is ERC721 {\n    using Counters for Counters.Counter;\n    Counters.Counter private _tokenIdCounter;\n\n    struct Ownership {\n        address[] owners;\n        uint256[] shares;\n    }\n\n    mapping(uint256 => Ownership) private _ownerships;\n\n    constructor(string memory name, string memory symbol) ERC721(name, symbol) {}\n\n    function mint(address[] memory owners, uint256[] memory shares) public returns (uint256) {\n        require(owners.length == shares.length, \"Owners and shares must have the same length\");\n        uint256 totalShares = 0;\n        for (uint256 i = 0; i < shares.length; i++) {\n            totalShares += shares[i];\n        }\n        require(totalShares == 100, \"Total shares must be 100\");\n\n        _tokenIdCounter.increment();\n        uint256 tokenId = _tokenIdCounter.current();\n        _safeMint(owners[0], tokenId);\n\n        _ownerships[tokenId] = Ownership(owners, shares);\n\n        return tokenId;\n    }\n\n    function ownershipOf(uint256 tokenId) public view returns (address[] memory, uint256[] memory) {\n        Ownership storage ownership = _ownerships[tokenId];\n        return (ownership.owners, ownership.shares);\n    }\n\n    function transferOwnership(uint256 tokenId, address[] memory newOwners, uint256[] memory newShares) public {\n        require(newOwners.length == newShares.length, \"New owners and shares must have the same length\");\n        uint256 totalShares = 0;\n        for (uint256 i = 0; i < newShares.length; i++) {\n            totalShares += newShares[i];\n        }\n        require(totalShares == 100, \"Total new shares must be 100\");\n\n        Ownership storage ownership = _ownerships[tokenId];\n        ownership.owners = newOwners;\n        ownership.shares = newShares;\n    }\n    function shareOwnership(uint256 tokenId, address[] memory newOwners, uint256[] memory newShares) public {\n    require(newOwners.length == newShares.length, \"New owners and shares must have the same length\");\n    uint256 totalShares = 0;\n    for (uint256 i = 0; i < newShares.length; i++) {\n        totalShares += newShares[i];\n    }\n    require(totalShares == 100, \"Total new shares must be 100\");\n\n    Ownership storage ownership = _ownerships[tokenId];\n    ownership.owners = newOwners;\n    ownership.shares = newShares;\n}\n}",
  "sourcePath": "/Users/kennoluv/Documents/GitHub/CE340/2-66 Training/dapp-tutorial/contracts/ERC981.sol",
  "compiler": {
    "name": "solc",
    "version": "0.8.21+commit.d9974bed.Emscripten.clang"
  },
  "schemaVersion": "3.4.16",
  "updatedAt": "2024-04-03T07:20:23.065Z",
  "networkType": "ethereum",
  "devdoc": {
    "errors": {
      "ERC721IncorrectOwner(address,uint256,address)": [
        {
          "details": "Indicates an error related to the ownership over a particular token. Used in transfers.",
          "params": {
            "owner": "Address of the current owner of a token.",
            "sender": "Address whose tokens are being transferred.",
            "tokenId": "Identifier number of a token."
          }
        }
      ],
      "ERC721InsufficientApproval(address,uint256)": [
        {
          "details": "Indicates a failure with the `operator`s approval. Used in transfers.",
          "params": {
            "operator": "Address that may be allowed to operate on tokens without being their owner.",
            "tokenId": "Identifier number of a token."
          }
        }
      ],
      "ERC721InvalidApprover(address)": [
        {
          "details": "Indicates a failure with the `approver` of a token to be approved. Used in approvals.",
          "params": {
            "approver": "Address initiating an approval operation."
          }
        }
      ],
      "ERC721InvalidOperator(address)": [
        {
          "details": "Indicates a failure with the `operator` to be approved. Used in approvals.",
          "params": {
            "operator": "Address that may be allowed to operate on tokens without being their owner."
          }
        }
      ],
      "ERC721InvalidOwner(address)": [
        {
          "details": "Indicates that an address can't be an owner. For example, `address(0)` is a forbidden owner in EIP-20. Used in balance queries.",
          "params": {
            "owner": "Address of the current owner of a token."
          }
        }
      ],
      "ERC721InvalidReceiver(address)": [
        {
          "details": "Indicates a failure with the token `receiver`. Used in transfers.",
          "params": {
            "receiver": "Address to which tokens are being transferred."
          }
        }
      ],
      "ERC721InvalidSender(address)": [
        {
          "details": "Indicates a failure with the token `sender`. Used in transfers.",
          "params": {
            "sender": "Address whose tokens are being transferred."
          }
        }
      ],
      "ERC721NonexistentToken(uint256)": [
        {
          "details": "Indicates a `tokenId` whose `owner` is the zero address.",
          "params": {
            "tokenId": "Identifier number of a token."
          }
        }
      ]
    },
    "events": {
      "Approval(address,address,uint256)": {
        "details": "Emitted when `owner` enables `approved` to manage the `tokenId` token."
      },
      "ApprovalForAll(address,address,bool)": {
        "details": "Emitted when `owner` enables or disables (`approved`) `operator` to manage all of its assets."
      },
      "Transfer(address,address,uint256)": {
        "details": "Emitted when `tokenId` token is transferred from `from` to `to`."
      }
    },
    "kind": "dev",
    "methods": {
      "approve(address,uint256)": {
        "details": "See {IERC721-approve}."
      },
      "balanceOf(address)": {
        "details": "See {IERC721-balanceOf}."
      },
      "getApproved(uint256)": {
        "details": "See {IERC721-getApproved}."
      },
      "isApprovedForAll(address,address)": {
        "details": "See {IERC721-isApprovedForAll}."
      },
      "name()": {
        "details": "See {IERC721Metadata-name}."
      },
      "ownerOf(uint256)": {
        "details": "See {IERC721-ownerOf}."
      },
      "safeTransferFrom(address,address,uint256)": {
        "details": "See {IERC721-safeTransferFrom}."
      },
      "safeTransferFrom(address,address,uint256,bytes)": {
        "details": "See {IERC721-safeTransferFrom}."
      },
      "setApprovalForAll(address,bool)": {
        "details": "See {IERC721-setApprovalForAll}."
      },
      "supportsInterface(bytes4)": {
        "details": "See {IERC165-supportsInterface}."
      },
      "symbol()": {
        "details": "See {IERC721Metadata-symbol}."
      },
      "tokenURI(uint256)": {
        "details": "See {IERC721Metadata-tokenURI}."
      },
      "transferFrom(address,address,uint256)": {
        "details": "See {IERC721-transferFrom}."
      }
    },
    "version": 1
  },
  "userdoc": {
    "kind": "user",
    "methods": {},
    "version": 1
  }
}