{
  "contractName": "MyAuction",
  "abi": [
    {
      "inputs": [
        {
          "internalType": "string",
          "name": "_brand",
          "type": "string"
        },
        {
          "internalType": "string",
          "name": "_serial",
          "type": "string"
        },
        {
          "internalType": "uint256",
          "name": "_durationInMinutes",
          "type": "uint256"
        }
      ],
      "stateMutability": "nonpayable",
      "type": "constructor"
    },
    {
      "anonymous": false,
      "inputs": [
        {
          "indexed": false,
          "internalType": "address",
          "name": "bidder",
          "type": "address"
        },
        {
          "indexed": false,
          "internalType": "uint256",
          "name": "amount",
          "type": "uint256"
        },
        {
          "indexed": false,
          "internalType": "uint256",
          "name": "timestamp",
          "type": "uint256"
        }
      ],
      "name": "BidEvent",
      "type": "event"
    },
    {
      "anonymous": false,
      "inputs": [
        {
          "indexed": false,
          "internalType": "string",
          "name": "message",
          "type": "string"
        },
        {
          "indexed": false,
          "internalType": "uint256",
          "name": "timestamp",
          "type": "uint256"
        }
      ],
      "name": "CancelledEvent",
      "type": "event"
    },
    {
      "anonymous": false,
      "inputs": [
        {
          "indexed": false,
          "internalType": "string",
          "name": "message",
          "type": "string"
        },
        {
          "indexed": false,
          "internalType": "uint256",
          "name": "timestamp",
          "type": "uint256"
        }
      ],
      "name": "EndedEvent",
      "type": "event"
    },
    {
      "anonymous": false,
      "inputs": [
        {
          "indexed": false,
          "internalType": "address",
          "name": "bidder",
          "type": "address"
        },
        {
          "indexed": false,
          "internalType": "uint256",
          "name": "amount",
          "type": "uint256"
        },
        {
          "indexed": false,
          "internalType": "uint256",
          "name": "timestamp",
          "type": "uint256"
        }
      ],
      "name": "WithdrawEvent",
      "type": "event"
    },
    {
      "inputs": [],
      "name": "STATE",
      "outputs": [
        {
          "internalType": "enum Auction.AuctionState",
          "name": "",
          "type": "uint8"
        }
      ],
      "stateMutability": "view",
      "type": "function",
      "constant": true
    },
    {
      "inputs": [],
      "name": "auctionEnd",
      "outputs": [
        {
          "internalType": "uint256",
          "name": "",
          "type": "uint256"
        }
      ],
      "stateMutability": "view",
      "type": "function",
      "constant": true
    },
    {
      "inputs": [],
      "name": "auctionStart",
      "outputs": [
        {
          "internalType": "uint256",
          "name": "",
          "type": "uint256"
        }
      ],
      "stateMutability": "view",
      "type": "function",
      "constant": true
    },
    {
      "inputs": [
        {
          "internalType": "address",
          "name": "",
          "type": "address"
        }
      ],
      "name": "bids",
      "outputs": [
        {
          "internalType": "uint256",
          "name": "",
          "type": "uint256"
        }
      ],
      "stateMutability": "view",
      "type": "function",
      "constant": true
    },
    {
      "inputs": [],
      "name": "highestBid",
      "outputs": [
        {
          "internalType": "uint256",
          "name": "",
          "type": "uint256"
        }
      ],
      "stateMutability": "view",
      "type": "function",
      "constant": true
    },
    {
      "inputs": [],
      "name": "highestBidder",
      "outputs": [
        {
          "internalType": "address",
          "name": "",
          "type": "address"
        }
      ],
      "stateMutability": "view",
      "type": "function",
      "constant": true
    },
    {
      "inputs": [],
      "name": "myProduct",
      "outputs": [
        {
          "internalType": "string",
          "name": "Brand",
          "type": "string"
        },
        {
          "internalType": "string",
          "name": "SerialNumber",
          "type": "string"
        }
      ],
      "stateMutability": "view",
      "type": "function",
      "constant": true
    },
    {
      "inputs": [],
      "name": "owner",
      "outputs": [
        {
          "internalType": "address payable",
          "name": "",
          "type": "address"
        }
      ],
      "stateMutability": "view",
      "type": "function",
      "constant": true
    },
    {
      "inputs": [],
      "name": "withdrawEnd",
      "outputs": [
        {
          "internalType": "uint256",
          "name": "",
          "type": "uint256"
        }
      ],
      "stateMutability": "view",
      "type": "function",
      "constant": true
    },
    {
      "inputs": [],
      "name": "bid",
      "outputs": [],
      "stateMutability": "payable",
      "type": "function",
      "payable": true
    },
    {
      "inputs": [],
      "name": "withdraw",
      "outputs": [],
      "stateMutability": "nonpayable",
      "type": "function"
    },
    {
      "inputs": [],
      "name": "endAuction",
      "outputs": [],
      "stateMutability": "nonpayable",
      "type": "function"
    },
    {
      "inputs": [],
      "name": "cancelAuction",
      "outputs": [],
      "stateMutability": "nonpayable",
      "type": "function"
    },
    {
      "inputs": [],
      "name": "getProductInfo",
      "outputs": [
        {
          "internalType": "string",
          "name": "",
          "type": "string"
        },
        {
          "internalType": "string",
          "name": "",
          "type": "string"
        }
      ],
      "stateMutability": "view",
      "type": "function",
      "constant": true
    },
    {
      "inputs": [
        {
          "internalType": "address",
          "name": "bidder",
          "type": "address"
        }
      ],
      "name": "getMyBid",
      "outputs": [
        {
          "internalType": "uint256",
          "name": "",
          "type": "uint256"
        }
      ],
      "stateMutability": "view",
      "type": "function",
      "constant": true
    },
    {
      "inputs": [],
      "name": "getHighestBid",
      "outputs": [
        {
          "internalType": "uint256",
          "name": "",
          "type": "uint256"
        }
      ],
      "stateMutability": "view",
      "type": "function",
      "constant": true
    }
  ],
  "bytecode": "0x608060405234801562000010575f80fd5b506040516200225d3803806200225d8339818101604052810190620000369190620002d8565b335f806101000a81548173ffffffffffffffffffffffffffffffffffffffff021916908373ffffffffffffffffffffffffffffffffffffffff16021790555042600181905550603c816200008b91906200039c565b42620000989190620003e6565b60028190555060405180604001604052808481526020018381525060065f820151815f019081620000ca91906200064e565b506020820151816001019081620000e291906200064e565b509050505f600a5f6101000a81548160ff021916908360038111156200010d576200010c62000732565b5b02179055505050506200075f565b5f604051905090565b5f80fd5b5f80fd5b5f80fd5b5f80fd5b5f601f19601f8301169050919050565b7f4e487b71000000000000000000000000000000000000000000000000000000005f52604160045260245ffd5b6200017c8262000134565b810181811067ffffffffffffffff821117156200019e576200019d62000144565b5b80604052505050565b5f620001b26200011b565b9050620001c0828262000171565b919050565b5f67ffffffffffffffff821115620001e257620001e162000144565b5b620001ed8262000134565b9050602081019050919050565b5f5b8381101562000219578082015181840152602081019050620001fc565b5f8484015250505050565b5f6200023a6200023484620001c5565b620001a7565b90508281526020810184848401111562000259576200025862000130565b5b62000266848285620001fa565b509392505050565b5f82601f8301126200028557620002846200012c565b5b81516200029784826020860162000224565b91505092915050565b5f819050919050565b620002b481620002a0565b8114620002bf575f80fd5b50565b5f81519050620002d281620002a9565b92915050565b5f805f60608486031215620002f257620002f162000124565b5b5f84015167ffffffffffffffff81111562000312576200031162000128565b5b62000320868287016200026e565b935050602084015167ffffffffffffffff81111562000344576200034362000128565b5b62000352868287016200026e565b92505060406200036586828701620002c2565b9150509250925092565b7f4e487b71000000000000000000000000000000000000000000000000000000005f52601160045260245ffd5b5f620003a882620002a0565b9150620003b583620002a0565b9250828202620003c581620002a0565b91508282048414831517620003df57620003de6200036f565b5b5092915050565b5f620003f282620002a0565b9150620003ff83620002a0565b92508282019050808211156200041a57620004196200036f565b5b92915050565b5f81519050919050565b7f4e487b71000000000000000000000000000000000000000000000000000000005f52602260045260245ffd5b5f60028204905060018216806200046f57607f821691505b6020821081036200048557620004846200042a565b5b50919050565b5f819050815f5260205f209050919050565b5f6020601f8301049050919050565b5f82821b905092915050565b5f60088302620004e97fffffffffffffffffffffffffffffffffffffffffffffffffffffffffffffffff82620004ac565b620004f58683620004ac565b95508019841693508086168417925050509392505050565b5f819050919050565b5f62000536620005306200052a84620002a0565b6200050d565b620002a0565b9050919050565b5f819050919050565b620005518362000516565b6200056962000560826200053d565b848454620004b8565b825550505050565b5f90565b6200057f62000571565b6200058c81848462000546565b505050565b5b81811015620005b357620005a75f8262000575565b60018101905062000592565b5050565b601f8211156200060257620005cc816200048b565b620005d7846200049d565b81016020851015620005e7578190505b620005ff620005f6856200049d565b83018262000591565b50505b505050565b5f82821c905092915050565b5f620006245f198460080262000607565b1980831691505092915050565b5f6200063e838362000613565b9150826002028217905092915050565b620006598262000420565b67ffffffffffffffff81111562000675576200067462000144565b5b62000681825462000457565b6200068e828285620005b7565b5f60209050601f831160018114620006c4575f8415620006af578287015190505b620006bb858262000631565b8655506200072a565b601f198416620006d4866200048b565b5f5b82811015620006fd57848901518255600182019150602085019450602081019050620006d6565b868310156200071d578489015162000719601f89168262000613565b8355505b6001600288020188555050505b505050505050565b7f4e487b71000000000000000000000000000000000000000000000000000000005f52602160045260245ffd5b611af0806200076d5f395ff3fe6080604052600436106100f2575f3560e01c80638fa8b79011610089578063d57bde7911610058578063d57bde79146102cb578063d6edbc0f146102f5578063fc72a3851461031f578063fe67a54b1461034a576100f2565b80638fa8b7901461023657806391f901571461024c578063bd35896714610276578063c486456c146102a1576100f2565b80634f245ef7116100c55780634f245ef71461016a5780635337bde01461019457806362ea82db146101d05780638da5cb5b1461020c576100f2565b80631998aeef146100f65780632a24f46c146101005780633ccfd60b1461012a5780634979440a14610140575b5f80fd5b6100fe610360565b005b34801561010b575f80fd5b50610114610735565b6040516101219190611172565b60405180910390f35b348015610135575f80fd5b5061013e61073b565b005b34801561014b575f80fd5b50610154610c84565b6040516101619190611172565b60405180910390f35b348015610175575f80fd5b5061017e610c8d565b60405161018b9190611172565b60405180910390f35b34801561019f575f80fd5b506101ba60048036038101906101b591906111e9565b610c93565b6040516101c79190611172565b60405180910390f35b3480156101db575f80fd5b506101f660048036038101906101f191906111e9565b610cd9565b6040516102039190611172565b60405180910390f35b348015610217575f80fd5b50610220610cee565b60405161022d9190611234565b60405180910390f35b348015610241575f80fd5b5061024a610d11565b005b348015610257575f80fd5b50610260610e16565b60405161026d919061125c565b60405180910390f35b348015610281575f80fd5b5061028a610e3b565b6040516102989291906112ff565b60405180910390f35b3480156102ac575f80fd5b506102b5610f58565b6040516102c291906113a7565b60405180910390f35b3480156102d6575f80fd5b506102df610f6a565b6040516102ec9190611172565b60405180910390f35b348015610300575f80fd5b50610309610f70565b6040516103169190611172565b60405180910390f35b34801561032a575f80fd5b50610333610f76565b6040516103419291906112ff565b60405180910390f35b348015610355575f80fd5b5061035e61109e565b005b5f8054906101000a900473ffffffffffffffffffffffffffffffffffffffff1673ffffffffffffffffffffffffffffffffffffffff163373ffffffffffffffffffffffffffffffffffffffff16036103ed576040517f08c379a00000000000000000000000000000000000000000000000000000000081526004016103e490611430565b60405180910390fd5b5f6003811115610400576103ff611334565b5b600a5f9054906101000a900460ff16600381111561042157610420611334565b5b14610461576040517f08c379a000000000000000000000000000000000000000000000000000000000815260040161045890611498565b60405180910390fd5b60045f9054906101000a900473ffffffffffffffffffffffffffffffffffffffff1673ffffffffffffffffffffffffffffffffffffffff163373ffffffffffffffffffffffffffffffffffffffff16036104f0576040517f08c379a00000000000000000000000000000000000000000000000000000000081526004016104e790611500565b60405180910390fd5b60035460085f3373ffffffffffffffffffffffffffffffffffffffff1673ffffffffffffffffffffffffffffffffffffffff1681526020019081526020015f20543461053c919061154b565b1161057c576040517f08c379a0000000000000000000000000000000000000000000000000000000008152600401610573906115c8565b60405180910390fd5b3360045f6101000a81548173ffffffffffffffffffffffffffffffffffffffff021916908373ffffffffffffffffffffffffffffffffffffffff1602179055505f60085f3373ffffffffffffffffffffffffffffffffffffffff1673ffffffffffffffffffffffffffffffffffffffff1681526020019081526020015f20540361066157600933908060018154018082558091505060019003905f5260205f20015f9091909190916101000a81548173ffffffffffffffffffffffffffffffffffffffff021916908373ffffffffffffffffffffffffffffffffffffffff1602179055505b3460085f3373ffffffffffffffffffffffffffffffffffffffff1673ffffffffffffffffffffffffffffffffffffffff1681526020019081526020015f205f8282546106ad919061154b565b9250508190555060085f3373ffffffffffffffffffffffffffffffffffffffff1673ffffffffffffffffffffffffffffffffffffffff1681526020019081526020015f20546003819055507f8af6b8ce9e717802e71d82fde14340886903c7ba4a5513f0a177b5ae534066bf33344260405161072b939291906115e6565b60405180910390a1565b60025481565b5f8060045f9054906101000a900473ffffffffffffffffffffffffffffffffffffffff1673ffffffffffffffffffffffffffffffffffffffff163373ffffffffffffffffffffffffffffffffffffffff160361084e57600260038111156107a5576107a4611334565b5b600a5f9054906101000a900460ff1660038111156107c6576107c5611334565b5b14610806576040517f08c379a00000000000000000000000000000000000000000000000000000000081526004016107fd9061168b565b60405180910390fd5b60085f3373ffffffffffffffffffffffffffffffffffffffff1673ffffffffffffffffffffffffffffffffffffffff1681526020019081526020015f20549150339050610ab9565b5f8054906101000a900473ffffffffffffffffffffffffffffffffffffffff1673ffffffffffffffffffffffffffffffffffffffff163373ffffffffffffffffffffffffffffffffffffffff160361094357600160038111156108b4576108b3611334565b5b600a5f9054906101000a900460ff1660038111156108d5576108d4611334565b5b14610915576040517f08c379a000000000000000000000000000000000000000000000000000000000815260040161090c90611719565b60405180910390fd5b600354915060045f9054906101000a900473ffffffffffffffffffffffffffffffffffffffff169050610ab8565b5f60085f3373ffffffffffffffffffffffffffffffffffffffff1673ffffffffffffffffffffffffffffffffffffffff1681526020019081526020015f2054116109c2576040517f08c379a00000000000000000000000000000000000000000000000000000000081526004016109b990611781565b60405180910390fd5b600160038111156109d6576109d5611334565b5b600a5f9054906101000a900460ff1660038111156109f7576109f6611334565b5b1480610a35575060026003811115610a1257610a11611334565b5b600a5f9054906101000a900460ff166003811115610a3357610a32611334565b5b145b610a74576040517f08c379a0000000000000000000000000000000000000000000000000000000008152600401610a6b906117e9565b60405180910390fd5b60085f3373ffffffffffffffffffffffffffffffffffffffff1673ffffffffffffffffffffffffffffffffffffffff1681526020019081526020015f205491503390505b5b5f73ffffffffffffffffffffffffffffffffffffffff168173ffffffffffffffffffffffffffffffffffffffff1614610c01575f5b600980549050811015610bff578173ffffffffffffffffffffffffffffffffffffffff1660098281548110610b2657610b25611807565b5b905f5260205f20015f9054906101000a900473ffffffffffffffffffffffffffffffffffffffff1673ffffffffffffffffffffffffffffffffffffffff1603610bec5760098181548110610b7d57610b7c611807565b5b905f5260205f20015f6101000a81549073ffffffffffffffffffffffffffffffffffffffff021916905560085f8373ffffffffffffffffffffffffffffffffffffffff1673ffffffffffffffffffffffffffffffffffffffff1681526020019081526020015f205f9055610bff565b8080610bf790611834565b915050610aee565b505b3373ffffffffffffffffffffffffffffffffffffffff166108fc8390811502906040515f60405180830381858888f19350505050158015610c44573d5f803e3d5ffd5b507f5bb95829671915ece371da722f91d5371159095dcabf2f75cd6c53facb7e1bab338342604051610c78939291906115e6565b60405180910390a15050565b5f600354905090565b60015481565b5f60085f8373ffffffffffffffffffffffffffffffffffffffff1673ffffffffffffffffffffffffffffffffffffffff1681526020019081526020015f20549050919050565b6008602052805f5260405f205f915090505481565b5f8054906101000a900473ffffffffffffffffffffffffffffffffffffffff1681565b5f8054906101000a900473ffffffffffffffffffffffffffffffffffffffff1673ffffffffffffffffffffffffffffffffffffffff163373ffffffffffffffffffffffffffffffffffffffff1614610d9e576040517f08c379a0000000000000000000000000000000000000000000000000000000008152600401610d95906118eb565b60405180910390fd5b6002600a5f6101000a81548160ff02191690836003811115610dc357610dc2611334565b5b021790555062093a8042610dd7919061154b565b6005819055507f24a0951686f5c12f6a826f0d646142613f80d5ba6d01f5ab30d4aa121d8258d542604051610e0c9190611953565b60405180910390a1565b60045f9054906101000a900473ffffffffffffffffffffffffffffffffffffffff1681565b6006805f018054610e4b906119ac565b80601f0160208091040260200160405190810160405280929190818152602001828054610e77906119ac565b8015610ec25780601f10610e9957610100808354040283529160200191610ec2565b820191905f5260205f20905b815481529060010190602001808311610ea557829003601f168201915b505050505090806001018054610ed7906119ac565b80601f0160208091040260200160405190810160405280929190818152602001828054610f03906119ac565b8015610f4e5780601f10610f2557610100808354040283529160200191610f4e565b820191905f5260205f20905b815481529060010190602001808311610f3157829003601f168201915b5050505050905082565b600a5f9054906101000a900460ff1681565b60035481565b60055481565b60608060065f016006600101818054610f8e906119ac565b80601f0160208091040260200160405190810160405280929190818152602001828054610fba906119ac565b80156110055780601f10610fdc57610100808354040283529160200191611005565b820191905f5260205f20905b815481529060010190602001808311610fe857829003601f168201915b50505050509150808054611018906119ac565b80601f0160208091040260200160405190810160405280929190818152602001828054611044906119ac565b801561108f5780601f106110665761010080835404028352916020019161108f565b820191905f5260205f20905b81548152906001019060200180831161107257829003601f168201915b50505050509050915091509091565b60025442116110e2576040517f08c379a00000000000000000000000000000000000000000000000000000000081526004016110d990611a26565b60405180910390fd5b6001600a5f6101000a81548160ff0219169083600381111561110757611106611334565b5b021790555062093a804261111b919061154b565b6005819055507f24a0951686f5c12f6a826f0d646142613f80d5ba6d01f5ab30d4aa121d8258d5426040516111509190611a8e565b60405180910390a1565b5f819050919050565b61116c8161115a565b82525050565b5f6020820190506111855f830184611163565b92915050565b5f80fd5b5f73ffffffffffffffffffffffffffffffffffffffff82169050919050565b5f6111b88261118f565b9050919050565b6111c8816111ae565b81146111d2575f80fd5b50565b5f813590506111e3816111bf565b92915050565b5f602082840312156111fe576111fd61118b565b5b5f61120b848285016111d5565b91505092915050565b5f61121e8261118f565b9050919050565b61122e81611214565b82525050565b5f6020820190506112475f830184611225565b92915050565b611256816111ae565b82525050565b5f60208201905061126f5f83018461124d565b92915050565b5f81519050919050565b5f82825260208201905092915050565b5f5b838110156112ac578082015181840152602081019050611291565b5f8484015250505050565b5f601f19601f8301169050919050565b5f6112d182611275565b6112db818561127f565b93506112eb81856020860161128f565b6112f4816112b7565b840191505092915050565b5f6040820190508181035f83015261131781856112c7565b9050818103602083015261132b81846112c7565b90509392505050565b7f4e487b71000000000000000000000000000000000000000000000000000000005f52602160045260245ffd5b6004811061137257611371611334565b5b50565b5f81905061138282611361565b919050565b5f61139182611375565b9050919050565b6113a181611387565b82525050565b5f6020820190506113ba5f830184611398565b92915050565b7f4f6e6c79206269646465722063616e2063616c6c20746869732066756e6374695f8201527f6f6e000000000000000000000000000000000000000000000000000000000000602082015250565b5f61141a60228361127f565b9150611425826113c0565b604082019050919050565b5f6020820190508181035f8301526114478161140e565b9050919050565b7f496e76616c69642061756374696f6e20737461746500000000000000000000005f82015250565b5f61148260158361127f565b915061148d8261144e565b602082019050919050565b5f6020820190508181035f8301526114af81611476565b9050919050565b7f416c726561647920612063757272656e742068696768657374206269646465725f82015250565b5f6114ea60208361127f565b91506114f5826114b6565b602082019050919050565b5f6020820190508181035f830152611517816114de565b9050919050565b7f4e487b71000000000000000000000000000000000000000000000000000000005f52601160045260245ffd5b5f6115558261115a565b91506115608361115a565b92508282019050808211156115785761157761151e565b5b92915050565b7f43616e206e6f74206269642c206d616b652061206869676865722062696400005f82015250565b5f6115b2601e8361127f565b91506115bd8261157e565b602082019050919050565b5f6020820190508181035f8301526115df816115a6565b9050919050565b5f6060820190506115f95f83018661124d565b6116066020830185611163565b6116136040830184611163565b949350505050565b7f596f7520617265207468652068696768657374206269646465722c2063616e205f8201527f6e6f742077697468647261770000000000000000000000000000000000000000602082015250565b5f611675602c8361127f565b91506116808261161b565b604082019050919050565b5f6020820190508181035f8301526116a281611669565b9050919050565b7f4f776e657220686173206e6f20776974686472617761626c652062616c616e635f8201527f6500000000000000000000000000000000000000000000000000000000000000602082015250565b5f61170360218361127f565b915061170e826116a9565b604082019050919050565b5f6020820190508181035f830152611730816116f7565b9050919050565b7f596f752068617665206e6f2062616c616e636520746f207769746864726177005f82015250565b5f61176b601f8361127f565b915061177682611737565b602082019050919050565b5f6020820190508181035f8301526117988161175f565b9050919050565b7f43616e206e6f742077697468647261772061742074686973206d6f6d656e74005f82015250565b5f6117d3601f8361127f565b91506117de8261179f565b602082019050919050565b5f6020820190508181035f830152611800816117c7565b9050919050565b7f4e487b71000000000000000000000000000000000000000000000000000000005f52603260045260245ffd5b5f61183e8261115a565b91507fffffffffffffffffffffffffffffffffffffffffffffffffffffffffffffffff82036118705761186f61151e565b5b600182019050919050565b7f4f6e6c79206f776e65722063616e2063616c6c20746869732066756e6374696f5f8201527f6e00000000000000000000000000000000000000000000000000000000000000602082015250565b5f6118d560218361127f565b91506118e08261187b565b604082019050919050565b5f6020820190508181035f830152611902816118c9565b9050919050565b7f546869732061756374696f6e2069732063616e63656c6c6564000000000000005f82015250565b5f61193d60198361127f565b915061194882611909565b602082019050919050565b5f6040820190508181035f83015261196a81611931565b90506119796020830184611163565b92915050565b7f4e487b71000000000000000000000000000000000000000000000000000000005f52602260045260245ffd5b5f60028204905060018216806119c357607f821691505b6020821081036119d6576119d561197f565b5b50919050565b7f43616e206e6f7420656e642061742074686973206d6f6d656e740000000000005f82015250565b5f611a10601a8361127f565b9150611a1b826119dc565b602082019050919050565b5f6020820190508181035f830152611a3d81611a04565b9050919050565b7f546869732061756374696f6e206973206f7665720000000000000000000000005f82015250565b5f611a7860148361127f565b9150611a8382611a44565b602082019050919050565b5f6040820190508181035f830152611aa581611a6c565b9050611ab46020830184611163565b9291505056fea2646970667358221220525755972181bf16765ba1ccbb2aa702847f8d8666bae632fa224d88c150cd4a64736f6c63430008150033",
  "immutableReferences": {},
  "source": "// SPDX-License-Identifier: MIT\npragma solidity >=0.4.22 <0.9.0;\n\nimport \"./Auction.sol\";\n\ncontract MyAuction is Auction {\n\n  // State Variables\n  uint public auctionStart; // \n  uint public auctionEnd; //  ( | )\n  uint public highestBid; //   \n  address public highestBidder; //   \n  uint public withdrawEnd;  // \n  Product public myProduct; // Record  \n  mapping (address => uint256) public bids; //  bids \n  address [] bidders; //  Address \n  AuctionState public STATE; // \n  constructor(string memory _brand, string memory _serial, uint _durationInMinutes) {\n    //  Smart Contract\n    owner = payable(msg.sender);\n    auctionStart = block.timestamp;\n    auctionEnd = block.timestamp + _durationInMinutes * 1 minutes;  //  + \n    myProduct = Product(_brand, _serial); //  Record \n    STATE = AuctionState.STARTED; // \n  }\n\n  /**\n   * !  Function\n   * 1. \n   * 2. \n   * 3. \n   */\n\n  // Function   Modifier \n  modifier onlyOwner {\n    require(msg.sender == owner, \"Only owner can call this function\");\n    _;  // \n  }\n\n  modifier notAnOwner {\n    require(msg.sender != owner, \"Only bidder can call this function\");\n    _;\n  }\n\n  modifier anOngoingAuction {\n    require(STATE == AuctionState.STARTED, \"Invalid auction state\");\n    _;\n  }\n\n  //  |  \n  function bid() override public payable notAnOwner anOngoingAuction {  // Override \n    require(msg.sender != highestBidder, \"Already a current highest bidder\"); // \n    require(msg.value + bids[msg.sender] > highestBid, \"Can not bid, make a higher bid\");\n    highestBidder = msg.sender;\n    if (bids[msg.sender] == 0) {  //  0  Address \n      bidders.push(msg.sender);\n    }\n    bids[msg.sender] += msg.value; // \n    highestBid = bids[msg.sender]; // \n\n    emit BidEvent(msg.sender, msg.value, block.timestamp); //  Event \n  }\n  /**\n   * ! \n   *  2 \n   * 1.\n   * 2.\n   * 3.\n   */\n  function withdraw() override external {\n    uint256 amount;\n    address deletingBidder;\n    if (msg.sender == highestBidder) {\n      require(STATE == AuctionState.CANCELLED, \"You are the highest bidder, can not withdraw\");\n      amount = bids[msg.sender];  // \n      // delete bids[msg.sender];  // \n      deletingBidder = msg.sender;  //  Address \n    } else if (msg.sender == owner) {\n      require(STATE == AuctionState.ENDED, \"Owner has no withdrawable balance\");\n      amount = highestBid;\n      // delete bids[highestBidder]; // \n      deletingBidder = highestBidder; //  Address \n    } else {\n      require(bids[msg.sender] > 0, \"You have no balance to withdraw\"); // \n      require(STATE == AuctionState.ENDED || STATE == AuctionState.CANCELLED, \"Can not withdraw at this moment\");\n      amount = bids[msg.sender];\n      // delete bids[msg.sender];\n      deletingBidder = msg.sender;\n    }\n\n    if (deletingBidder != address(0)) {\n      for (uint i = 0; i < bidders.length; i++) {\n        if (bidders[i] == deletingBidder) {\n          delete bidders[i];  //  Address  Array  Address \n          delete bids[deletingBidder];  // \n          break;\n        }\n      }\n    }\n\n    // \n    payable(msg.sender).transfer(amount); // \n    emit WithdrawEvent(msg.sender, amount, block.timestamp);\n\n  } // external \n  // \n  function endAuction() override external {\n    require(block.timestamp > auctionEnd, \"Can not end at this moment\");\n    STATE = AuctionState.ENDED;\n    withdrawEnd = block.timestamp + 7 days;\n    emit EndedEvent(\"This auction is over\", block.timestamp);\n  }\n  // \n  function cancelAuction() override external onlyOwner{\n    STATE = AuctionState.CANCELLED;\n    withdrawEnd = block.timestamp + 7 days;\n    emit EndedEvent(\"This auction is cancelled\", block.timestamp);\n  }\n  // \n  function getProductInfo() override external view returns (string memory, string memory) {\n    return (myProduct.Brand, myProduct.SerialNumber);\n  }\n  // \n  function getMyBid(address bidder) override external view returns (uint256) {\n    return bids[bidder];\n  }\n  // \n  function getHighestBid() override external view returns (uint256) {\n    return highestBid;\n  }\n}\n",
  "sourcePath": "/Users/kennoluv/Documents/GitHub/CE340/2-66 Training/dapp-tutorial/contracts/MyAuction.sol",
  "compiler": {
    "name": "solc",
    "version": "0.8.21+commit.d9974bed.Emscripten.clang"
  },
  "schemaVersion": "3.4.16",
  "updatedAt": "2024-03-28T15:05:22.702Z",
  "networkType": "ethereum",
  "devdoc": {
    "kind": "dev",
    "methods": {},
    "version": 1
  },
  "userdoc": {
    "kind": "user",
    "methods": {
      "withdraw()": {
        "notice": "!   2  1. 2. 3."
      }
    },
    "version": 1
  }
}