{
  "contractName": "Petshop",
  "abi": [
    {
      "inputs": [
        {
          "internalType": "uint256[]",
          "name": "petPrices",
          "type": "uint256[]"
        }
      ],
      "stateMutability": "nonpayable",
      "type": "constructor"
    },
    {
      "anonymous": false,
      "inputs": [
        {
          "indexed": false,
          "internalType": "uint256",
          "name": "pedId",
          "type": "uint256"
        },
        {
          "indexed": false,
          "internalType": "address",
          "name": "buyer",
          "type": "address"
        },
        {
          "indexed": false,
          "internalType": "uint256",
          "name": "price",
          "type": "uint256"
        },
        {
          "indexed": false,
          "internalType": "uint256",
          "name": "timestamp",
          "type": "uint256"
        }
      ],
      "name": "Sold",
      "type": "event"
    },
    {
      "anonymous": false,
      "inputs": [
        {
          "indexed": false,
          "internalType": "uint256",
          "name": "amount",
          "type": "uint256"
        },
        {
          "indexed": false,
          "internalType": "uint256",
          "name": "timestamp",
          "type": "uint256"
        }
      ],
      "name": "Withdrawn",
      "type": "event"
    },
    {
      "inputs": [],
      "name": "owner",
      "outputs": [
        {
          "internalType": "address payable",
          "name": "",
          "type": "address"
        }
      ],
      "stateMutability": "view",
      "type": "function",
      "constant": true
    },
    {
      "inputs": [],
      "name": "petCount",
      "outputs": [
        {
          "internalType": "uint256",
          "name": "",
          "type": "uint256"
        }
      ],
      "stateMutability": "view",
      "type": "function",
      "constant": true
    },
    {
      "inputs": [
        {
          "internalType": "uint256",
          "name": "",
          "type": "uint256"
        }
      ],
      "name": "petInfos",
      "outputs": [
        {
          "internalType": "uint256",
          "name": "price",
          "type": "uint256"
        },
        {
          "internalType": "address",
          "name": "buyer",
          "type": "address"
        }
      ],
      "stateMutability": "view",
      "type": "function",
      "constant": true
    },
    {
      "inputs": [
        {
          "internalType": "uint256",
          "name": "petId",
          "type": "uint256"
        }
      ],
      "name": "getPrice",
      "outputs": [
        {
          "internalType": "uint256",
          "name": "",
          "type": "uint256"
        }
      ],
      "stateMutability": "view",
      "type": "function",
      "constant": true
    },
    {
      "inputs": [
        {
          "internalType": "uint256",
          "name": "petId",
          "type": "uint256"
        }
      ],
      "name": "getBuyer",
      "outputs": [
        {
          "internalType": "address",
          "name": "",
          "type": "address"
        }
      ],
      "stateMutability": "view",
      "type": "function",
      "constant": true
    },
    {
      "inputs": [],
      "name": "getBalance",
      "outputs": [
        {
          "internalType": "uint256",
          "name": "",
          "type": "uint256"
        }
      ],
      "stateMutability": "view",
      "type": "function",
      "constant": true
    },
    {
      "inputs": [
        {
          "internalType": "uint256",
          "name": "petId",
          "type": "uint256"
        }
      ],
      "name": "getInfo",
      "outputs": [
        {
          "internalType": "address",
          "name": "",
          "type": "address"
        },
        {
          "internalType": "uint256",
          "name": "",
          "type": "uint256"
        }
      ],
      "stateMutability": "view",
      "type": "function",
      "constant": true
    },
    {
      "inputs": [],
      "name": "getTotalPets",
      "outputs": [
        {
          "internalType": "uint256",
          "name": "",
          "type": "uint256"
        }
      ],
      "stateMutability": "view",
      "type": "function",
      "constant": true
    },
    {
      "inputs": [
        {
          "internalType": "uint256",
          "name": "pedId",
          "type": "uint256"
        }
      ],
      "name": "buy",
      "outputs": [],
      "stateMutability": "payable",
      "type": "function",
      "payable": true
    },
    {
      "inputs": [
        {
          "internalType": "uint256",
          "name": "amount",
          "type": "uint256"
        }
      ],
      "name": "withdraw",
      "outputs": [],
      "stateMutability": "nonpayable",
      "type": "function"
    }
  ],
  "bytecode": "0x608060405234801562000010575f80fd5b506040516200119638038062001196833981810160405281019062000036919062000336565b3360025f6101000a81548173ffffffffffffffffffffffffffffffffffffffff021916908373ffffffffffffffffffffffffffffffffffffffff1602179055505f5b815181101562000172575f6040518060400160405280670de0b6b3a7640000858581518110620000ad57620000ac62000385565b5b6020026020010151620000c19190620003df565b81526020015f73ffffffffffffffffffffffffffffffffffffffff168152509050600181908060018154018082558091505060019003905f5260205f2090600202015f909190919091505f820151815f01556020820151816001015f6101000a81548173ffffffffffffffffffffffffffffffffffffffff021916908373ffffffffffffffffffffffffffffffffffffffff1602179055505050508080620001699062000429565b91505062000078565b5080515f819055505062000475565b5f604051905090565b5f80fd5b5f80fd5b5f80fd5b5f601f19601f8301169050919050565b7f4e487b71000000000000000000000000000000000000000000000000000000005f52604160045260245ffd5b620001de8262000196565b810181811067ffffffffffffffff821117156200020057620001ff620001a6565b5b80604052505050565b5f6200021462000181565b9050620002228282620001d3565b919050565b5f67ffffffffffffffff821115620002445762000243620001a6565b5b602082029050602081019050919050565b5f80fd5b5f819050919050565b6200026d8162000259565b811462000278575f80fd5b50565b5f815190506200028b8162000262565b92915050565b5f620002a7620002a18462000227565b62000209565b90508083825260208201905060208402830185811115620002cd57620002cc62000255565b5b835b81811015620002fa5780620002e588826200027b565b845260208401935050602081019050620002cf565b5050509392505050565b5f82601f8301126200031b576200031a62000192565b5b81516200032d84826020860162000291565b91505092915050565b5f602082840312156200034e576200034d6200018a565b5b5f82015167ffffffffffffffff8111156200036e576200036d6200018e565b5b6200037c8482850162000304565b91505092915050565b7f4e487b71000000000000000000000000000000000000000000000000000000005f52603260045260245ffd5b7f4e487b71000000000000000000000000000000000000000000000000000000005f52601160045260245ffd5b5f620003eb8262000259565b9150620003f88362000259565b9250828202620004088162000259565b91508282048414831517620004225762000421620003b2565b5b5092915050565b5f620004358262000259565b91507fffffffffffffffffffffffffffffffffffffffffffffffffffffffffffffffff82036200046a5762000469620003b2565b5b600182019050919050565b610d1380620004835f395ff3fe608060405260043610610090575f3560e01c80638da5cb5b116100585780638da5cb5b14610189578063cd619f58146101b3578063d96a094a146101dd578063e7572230146101f9578063e8ac35431461023557610090565b806312065fe0146100945780631a3cd59a146100be5780632e1a7d4d146100fb5780635bf608b81461012357806380f03fa61461015f575b5f80fd5b34801561009f575f80fd5b506100a8610272565b6040516100b591906108b7565b60405180910390f35b3480156100c9575f80fd5b506100e460048036038101906100df91906108fe565b610308565b6040516100f2929190610968565b60405180910390f35b348015610106575f80fd5b50610121600480360381019061011c91906108fe565b610379565b005b34801561012e575f80fd5b50610149600480360381019061014491906108fe565b6104eb565b604051610156919061098f565b60405180910390f35b34801561016a575f80fd5b50610173610536565b60405161018091906108b7565b60405180910390f35b348015610194575f80fd5b5061019d610542565b6040516101aa91906109c8565b60405180910390f35b3480156101be575f80fd5b506101c7610567565b6040516101d491906108b7565b60405180910390f35b6101f760048036038101906101f291906108fe565b61056c565b005b348015610204575f80fd5b5061021f600480360381019061021a91906108fe565b610826565b60405161022c91906108b7565b60405180910390f35b348015610240575f80fd5b5061025b600480360381019061025691906108fe565b610851565b6040516102699291906109e1565b60405180910390f35b5f60025f9054906101000a900473ffffffffffffffffffffffffffffffffffffffff1673ffffffffffffffffffffffffffffffffffffffff163373ffffffffffffffffffffffffffffffffffffffff1614610302576040517f08c379a00000000000000000000000000000000000000000000000000000000081526004016102f990610a88565b60405180910390fd5b47905090565b5f806001838154811061031e5761031d610aa6565b5b905f5260205f2090600202016001015f9054906101000a900473ffffffffffffffffffffffffffffffffffffffff166001848154811061036157610360610aa6565b5b905f5260205f2090600202015f015491509150915091565b60025f9054906101000a900473ffffffffffffffffffffffffffffffffffffffff1673ffffffffffffffffffffffffffffffffffffffff163373ffffffffffffffffffffffffffffffffffffffff1614610408576040517f08c379a00000000000000000000000000000000000000000000000000000000081526004016103ff90610a88565b60405180910390fd5b80471161044a576040517f08c379a000000000000000000000000000000000000000000000000000000000815260040161044190610b1d565b60405180910390fd5b60025f9054906101000a900473ffffffffffffffffffffffffffffffffffffffff1673ffffffffffffffffffffffffffffffffffffffff166108fc8290811502906040515f60405180830381858888f193505050501580156104ae573d5f803e3d5ffd5b507f0c875c8d391179c5cf7ad8303d268efd50b8beb78b671f85cd54bfb91eb8ef4081426040516104e0929190610b3b565b60405180910390a150565b5f60018281548110610500576104ff610aa6565b5b905f5260205f2090600202016001015f9054906101000a900473ffffffffffffffffffffffffffffffffffffffff169050919050565b5f600180549050905090565b60025f9054906101000a900473ffffffffffffffffffffffffffffffffffffffff1681565b5f5481565b60025f9054906101000a900473ffffffffffffffffffffffffffffffffffffffff1673ffffffffffffffffffffffffffffffffffffffff163373ffffffffffffffffffffffffffffffffffffffff16036105fb576040517f08c379a00000000000000000000000000000000000000000000000000000000081526004016105f290610bac565b60405180910390fd5b5f811015801561060f575060018054905081105b61064e576040517f08c379a000000000000000000000000000000000000000000000000000000000815260040161064590610c14565b60405180910390fd5b6001818154811061066257610661610aa6565b5b905f5260205f2090600202015f01543410156106b3576040517f08c379a00000000000000000000000000000000000000000000000000000000081526004016106aa90610b1d565b60405180910390fd5b5f73ffffffffffffffffffffffffffffffffffffffff16600182815481106106de576106dd610aa6565b5b905f5260205f2090600202016001015f9054906101000a900473ffffffffffffffffffffffffffffffffffffffff1673ffffffffffffffffffffffffffffffffffffffff1614610763576040517f08c379a000000000000000000000000000000000000000000000000000000000815260040161075a90610c7c565b60405180910390fd5b336001828154811061077857610777610aa6565b5b905f5260205f2090600202016001015f6101000a81548173ffffffffffffffffffffffffffffffffffffffff021916908373ffffffffffffffffffffffffffffffffffffffff1602179055507fcd1c39d27a443bebce7f2cf1cb49519e7586ec24d1a7a7c9fcc00f57cd8efbfb8133600184815481106107fb576107fa610aa6565b5b905f5260205f2090600202015f01544260405161081b9493929190610c9a565b60405180910390a150565b5f6001828154811061083b5761083a610aa6565b5b905f5260205f2090600202015f01549050919050565b60018181548110610860575f80fd5b905f5260205f2090600202015f91509050805f015490806001015f9054906101000a900473ffffffffffffffffffffffffffffffffffffffff16905082565b5f819050919050565b6108b18161089f565b82525050565b5f6020820190506108ca5f8301846108a8565b92915050565b5f80fd5b6108dd8161089f565b81146108e7575f80fd5b50565b5f813590506108f8816108d4565b92915050565b5f60208284031215610913576109126108d0565b5b5f610920848285016108ea565b91505092915050565b5f73ffffffffffffffffffffffffffffffffffffffff82169050919050565b5f61095282610929565b9050919050565b61096281610948565b82525050565b5f60408201905061097b5f830185610959565b61098860208301846108a8565b9392505050565b5f6020820190506109a25f830184610959565b92915050565b5f6109b282610929565b9050919050565b6109c2816109a8565b82525050565b5f6020820190506109db5f8301846109b9565b92915050565b5f6040820190506109f45f8301856108a8565b610a016020830184610959565b9392505050565b5f82825260208201905092915050565b7f4f6e6c79206f776e65722063616e2063616c6c20746869732066756e6374696f5f8201527f6e00000000000000000000000000000000000000000000000000000000000000602082015250565b5f610a72602183610a08565b9150610a7d82610a18565b604082019050919050565b5f6020820190508181035f830152610a9f81610a66565b9050919050565b7f4e487b71000000000000000000000000000000000000000000000000000000005f52603260045260245ffd5b7f496e73756666696369656e742066756e647300000000000000000000000000005f82015250565b5f610b07601283610a08565b9150610b1282610ad3565b602082019050919050565b5f6020820190508181035f830152610b3481610afb565b9050919050565b5f604082019050610b4e5f8301856108a8565b610b5b60208301846108a8565b9392505050565b7f53686f70206f776e65722063616e6e6f742062757920706574000000000000005f82015250565b5f610b96601983610a08565b9150610ba182610b62565b602082019050919050565b5f6020820190508181035f830152610bc381610b8a565b9050919050565b7f496e76616c6964207065742069640000000000000000000000000000000000005f82015250565b5f610bfe600e83610a08565b9150610c0982610bca565b602082019050919050565b5f6020820190508181035f830152610c2b81610bf2565b9050919050565b7f54686973206f6e6520697320736f6c64000000000000000000000000000000005f82015250565b5f610c66601083610a08565b9150610c7182610c32565b602082019050919050565b5f6020820190508181035f830152610c9381610c5a565b9050919050565b5f608082019050610cad5f8301876108a8565b610cba6020830186610959565b610cc760408301856108a8565b610cd460608301846108a8565b9594505050505056fea264697066735822122010a116f6804d7ccdf1915b0b13122349dda7b1b4c3e42cd5427068a2c23a7bc364736f6c63430008150033",
  "immutableReferences": {},
  "source": "// SPDX-License-Identifier: MIT\npragma solidity >=0.8.0 <0.9.0;\n\ncontract Petshop {    // \n\n  uint public petCount; // \n  struct PetInfo {       // \n    uint price;         // \n    address buyer;      // Address  ( default  address(0) )\n  }\n  PetInfo [] public petInfos; //  PetInfo \n  address payable public owner; //  Address \n  constructor(uint [] memory petPrices)  {\n    owner = payable(msg.sender);       //  Address  contract \n    for(uint i = 0; i < petPrices.length; i++) {\n      PetInfo memory petInfo = PetInfo(petPrices[i] * 1 ether, address(0)); //  Record \n      petInfos.push(petInfo); //  Record   petInfos\n  }\n  petCount = petPrices.length; //  petPrices\n  }\n\n  modifier onlyOwner() { // \n    require(msg.sender == owner, \"Only owner can call this function\");\n    _;\n  }\n  //  Id\n  function getPrice(uint petId) public view returns(uint) {\n    return petInfos[petId].price;\n  }\n  //  Id\n  function getBuyer(uint petId) public view returns(address) {\n    return petInfos[petId].buyer;\n  }\n  // \n  function getBalance() public view onlyOwner returns(uint) {\n    return address(this).balance;\n  }\n  //  record  (address, price)\n  function getInfo(uint petId) public view returns(address, uint) {\n    return (petInfos[petId].buyer, petInfos[petId].price);\n  }\n  //  \n  function getTotalPets() public view returns(uint) {\n    return petInfos.length;\n  }\n  //  pet Id\n  function buy(uint pedId) public payable {   // payable  /  \n    require(msg.sender != owner, \"Shop owner cannot buy pet\");            // \n    require(pedId >= 0 && pedId < petInfos.length, \"Invalid pet id\");   //  Id \n    require(msg.value >= petInfos[pedId].price, \"Insufficient funds\");   // \n    require(petInfos[pedId].buyer == address(0), \"This one is sold\");   // \n    petInfos[pedId].buyer = msg.sender;       //  address \n    emit Sold(pedId, msg.sender, petInfos[pedId].price, block.timestamp); //  Event \n  }\n  //  Event \n  event Sold(uint pedId, address buyer, uint price, uint timestamp);\n  // \n  function withdraw(uint amount) public onlyOwner {\n    require(address(this).balance > amount, \"Insufficient funds\"); // \n    owner.transfer(amount);         // \n    emit Withdrawn(amount, block.timestamp); //  Event \n  }\n  // event \n  event Withdrawn(uint amount, uint timestamp);\n\n}\n",
  "sourcePath": "/Users/kennoluv/Documents/GitHub/CE340/2-66 Training/dapp-tutorial/contracts/Petshop.sol",
  "compiler": {
    "name": "solc",
    "version": "0.8.21+commit.d9974bed.Emscripten.clang"
  },
  "schemaVersion": "3.4.16",
  "updatedAt": "2024-04-04T04:25:54.063Z",
  "networkType": "ethereum",
  "devdoc": {
    "kind": "dev",
    "methods": {},
    "version": 1
  },
  "userdoc": {
    "kind": "user",
    "methods": {},
    "version": 1
  }
}