{
  "_format": "hh-sol-artifact-1",
  "contractName": "ERC981Token",
  "sourceName": "contracts/ERC981Token.sol",
  "abi": [
    {
      "inputs": [
        {
          "internalType": "string",
          "name": "name",
          "type": "string"
        },
        {
          "internalType": "string",
          "name": "symbol",
          "type": "string"
        }
      ],
      "stateMutability": "nonpayable",
      "type": "constructor"
    },
    {
      "anonymous": false,
      "inputs": [
        {
          "indexed": true,
          "internalType": "address",
          "name": "owner",
          "type": "address"
        },
        {
          "indexed": true,
          "internalType": "address",
          "name": "approved",
          "type": "address"
        },
        {
          "indexed": true,
          "internalType": "uint256",
          "name": "tokenId",
          "type": "uint256"
        }
      ],
      "name": "Approval",
      "type": "event"
    },
    {
      "anonymous": false,
      "inputs": [
        {
          "indexed": true,
          "internalType": "address",
          "name": "owner",
          "type": "address"
        },
        {
          "indexed": true,
          "internalType": "address",
          "name": "operator",
          "type": "address"
        },
        {
          "indexed": false,
          "internalType": "bool",
          "name": "approved",
          "type": "bool"
        }
      ],
      "name": "ApprovalForAll",
      "type": "event"
    },
    {
      "anonymous": false,
      "inputs": [
        {
          "indexed": true,
          "internalType": "address",
          "name": "from",
          "type": "address"
        },
        {
          "indexed": true,
          "internalType": "address",
          "name": "to",
          "type": "address"
        },
        {
          "indexed": true,
          "internalType": "uint256",
          "name": "tokenId",
          "type": "uint256"
        }
      ],
      "name": "Transfer",
      "type": "event"
    },
    {
      "inputs": [
        {
          "internalType": "address",
          "name": "to",
          "type": "address"
        },
        {
          "internalType": "uint256",
          "name": "tokenId",
          "type": "uint256"
        }
      ],
      "name": "approve",
      "outputs": [],
      "stateMutability": "nonpayable",
      "type": "function"
    },
    {
      "inputs": [
        {
          "internalType": "address",
          "name": "owner",
          "type": "address"
        }
      ],
      "name": "balanceOf",
      "outputs": [
        {
          "internalType": "uint256",
          "name": "",
          "type": "uint256"
        }
      ],
      "stateMutability": "view",
      "type": "function"
    },
    {
      "inputs": [
        {
          "internalType": "uint256",
          "name": "tokenId",
          "type": "uint256"
        }
      ],
      "name": "getApproved",
      "outputs": [
        {
          "internalType": "address",
          "name": "",
          "type": "address"
        }
      ],
      "stateMutability": "view",
      "type": "function"
    },
    {
      "inputs": [
        {
          "internalType": "uint256",
          "name": "tokenId",
          "type": "uint256"
        }
      ],
      "name": "getOwnership",
      "outputs": [
        {
          "internalType": "address[]",
          "name": "",
          "type": "address[]"
        },
        {
          "internalType": "uint256[]",
          "name": "",
          "type": "uint256[]"
        }
      ],
      "stateMutability": "view",
      "type": "function"
    },
    {
      "inputs": [
        {
          "internalType": "address",
          "name": "owner",
          "type": "address"
        },
        {
          "internalType": "address",
          "name": "operator",
          "type": "address"
        }
      ],
      "name": "isApprovedForAll",
      "outputs": [
        {
          "internalType": "bool",
          "name": "",
          "type": "bool"
        }
      ],
      "stateMutability": "view",
      "type": "function"
    },
    {
      "inputs": [
        {
          "internalType": "address[]",
          "name": "owners",
          "type": "address[]"
        },
        {
          "internalType": "uint256[]",
          "name": "shares",
          "type": "uint256[]"
        }
      ],
      "name": "mint",
      "outputs": [
        {
          "internalType": "uint256",
          "name": "",
          "type": "uint256"
        }
      ],
      "stateMutability": "nonpayable",
      "type": "function"
    },
    {
      "inputs": [],
      "name": "name",
      "outputs": [
        {
          "internalType": "string",
          "name": "",
          "type": "string"
        }
      ],
      "stateMutability": "view",
      "type": "function"
    },
    {
      "inputs": [
        {
          "internalType": "uint256",
          "name": "tokenId",
          "type": "uint256"
        }
      ],
      "name": "ownerOf",
      "outputs": [
        {
          "internalType": "address",
          "name": "",
          "type": "address"
        }
      ],
      "stateMutability": "view",
      "type": "function"
    },
    {
      "inputs": [
        {
          "internalType": "uint256",
          "name": "tokenId",
          "type": "uint256"
        }
      ],
      "name": "ownershipOf",
      "outputs": [
        {
          "internalType": "address[]",
          "name": "owners",
          "type": "address[]"
        },
        {
          "internalType": "uint256[]",
          "name": "shares",
          "type": "uint256[]"
        }
      ],
      "stateMutability": "view",
      "type": "function"
    },
    {
      "inputs": [
        {
          "internalType": "address",
          "name": "from",
          "type": "address"
        },
        {
          "internalType": "address",
          "name": "to",
          "type": "address"
        },
        {
          "internalType": "uint256",
          "name": "tokenId",
          "type": "uint256"
        }
      ],
      "name": "safeTransferFrom",
      "outputs": [],
      "stateMutability": "nonpayable",
      "type": "function"
    },
    {
      "inputs": [
        {
          "internalType": "address",
          "name": "from",
          "type": "address"
        },
        {
          "internalType": "address",
          "name": "to",
          "type": "address"
        },
        {
          "internalType": "uint256",
          "name": "tokenId",
          "type": "uint256"
        },
        {
          "internalType": "bytes",
          "name": "data",
          "type": "bytes"
        }
      ],
      "name": "safeTransferFrom",
      "outputs": [],
      "stateMutability": "nonpayable",
      "type": "function"
    },
    {
      "inputs": [
        {
          "internalType": "address",
          "name": "operator",
          "type": "address"
        },
        {
          "internalType": "bool",
          "name": "approved",
          "type": "bool"
        }
      ],
      "name": "setApprovalForAll",
      "outputs": [],
      "stateMutability": "nonpayable",
      "type": "function"
    },
    {
      "inputs": [
        {
          "internalType": "bytes4",
          "name": "interfaceId",
          "type": "bytes4"
        }
      ],
      "name": "supportsInterface",
      "outputs": [
        {
          "internalType": "bool",
          "name": "",
          "type": "bool"
        }
      ],
      "stateMutability": "view",
      "type": "function"
    },
    {
      "inputs": [],
      "name": "symbol",
      "outputs": [
        {
          "internalType": "string",
          "name": "",
          "type": "string"
        }
      ],
      "stateMutability": "view",
      "type": "function"
    },
    {
      "inputs": [
        {
          "internalType": "uint256",
          "name": "tokenId",
          "type": "uint256"
        }
      ],
      "name": "tokenURI",
      "outputs": [
        {
          "internalType": "string",
          "name": "",
          "type": "string"
        }
      ],
      "stateMutability": "view",
      "type": "function"
    },
    {
      "inputs": [
        {
          "internalType": "address",
          "name": "from",
          "type": "address"
        },
        {
          "internalType": "address",
          "name": "to",
          "type": "address"
        },
        {
          "internalType": "uint256",
          "name": "tokenId",
          "type": "uint256"
        }
      ],
      "name": "transferFrom",
      "outputs": [],
      "stateMutability": "nonpayable",
      "type": "function"
    },
    {
      "inputs": [
        {
          "internalType": "uint256",
          "name": "tokenId",
          "type": "uint256"
        },
        {
          "internalType": "address[]",
          "name": "newOwners",
          "type": "address[]"
        },
        {
          "internalType": "uint256[]",
          "name": "newShares",
          "type": "uint256[]"
        }
      ],
      "name": "transferOwnership",
      "outputs": [],
      "stateMutability": "nonpayable",
      "type": "function"
    }
  ],
  "bytecode": "0x60806040523480156200001157600080fd5b506040516200343f3803806200343f8339818101604052810190620000379190620002c2565b818181600090805190602001906200005192919062000075565b5080600190805190602001906200006a92919062000075565b5050505050620003ac565b828054620000839062000376565b90600052602060002090601f016020900481019282620000a75760008555620000f3565b82601f10620000c257805160ff1916838001178555620000f3565b82800160010185558215620000f3579182015b82811115620000f2578251825591602001919060010190620000d5565b5b50905062000102919062000106565b5090565b5b808211156200012157600081600090555060010162000107565b5090565b6000604051905090565b600080fd5b600080fd5b600080fd5b600080fd5b6000601f19601f8301169050919050565b7f4e487b7100000000000000000000000000000000000000000000000000000000600052604160045260246000fd5b6200018e8262000143565b810181811067ffffffffffffffff82111715620001b057620001af62000154565b5b80604052505050565b6000620001c562000125565b9050620001d3828262000183565b919050565b600067ffffffffffffffff821115620001f657620001f562000154565b5b620002018262000143565b9050602081019050919050565b60005b838110156200022e57808201518184015260208101905062000211565b838111156200023e576000848401525b50505050565b60006200025b6200025584620001d8565b620001b9565b9050828152602081018484840111156200027a57620002796200013e565b5b620002878482856200020e565b509392505050565b600082601f830112620002a757620002a662000139565b5b8151620002b984826020860162000244565b91505092915050565b60008060408385031215620002dc57620002db6200012f565b5b600083015167ffffffffffffffff811115620002fd57620002fc62000134565b5b6200030b858286016200028f565b925050602083015167ffffffffffffffff8111156200032f576200032e62000134565b5b6200033d858286016200028f565b9150509250929050565b7f4e487b7100000000000000000000000000000000000000000000000000000000600052602260045260246000fd5b600060028204905060018216806200038f57607f821691505b60208210811415620003a657620003a562000347565b5b50919050565b61308380620003bc6000396000f3fe608060405234801561001057600080fd5b506004361061010b5760003560e01c8063704044dc116100a2578063a22cb46511610071578063a22cb465146102de578063b88d4fde146102fa578063c87b56dd14610316578063e467f7e014610346578063e985e9c5146103765761010b565b8063704044dc1461024357806370a08231146102745780637ced0a42146102a457806395d89b41146102c05761010b565b8063140364a1116100de578063140364a1146101aa57806323b872dd146101db57806342842e0e146101f75780636352211e146102135761010b565b806301ffc9a71461011057806306fdde0314610140578063081812fc1461015e578063095ea7b31461018e575b600080fd5b61012a60048036038101906101259190611e36565b6103a6565b6040516101379190611e7e565b60405180910390f35b610148610488565b6040516101559190611f32565b60405180910390f35b61017860048036038101906101739190611f8a565b61051a565b6040516101859190611ff8565b60405180910390f35b6101a860048036038101906101a3919061203f565b610560565b005b6101c460048036038101906101bf9190611f8a565b610678565b6040516101d29291906121fb565b60405180910390f35b6101f560048036038101906101f09190612232565b61077e565b005b610211600480360381019061020c9190612232565b6107de565b005b61022d60048036038101906102289190611f8a565b6107fe565b60405161023a9190611ff8565b60405180910390f35b61025d60048036038101906102589190611f8a565b610885565b60405161026b9291906121fb565b60405180910390f35b61028e60048036038101906102899190612285565b61098b565b60405161029b91906122c1565b60405180910390f35b6102be60048036038101906102b991906124e7565b610a43565b005b6102c8610b8e565b6040516102d59190611f32565b60405180910390f35b6102f860048036038101906102f3919061259e565b610c20565b005b610314600480360381019061030f9190612693565b610c36565b005b610330600480360381019061032b9190611f8a565b610c98565b60405161033d9190611f32565b60405180910390f35b610360600480360381019061035b9190612716565b610d00565b60405161036d91906122c1565b60405180910390f35b610390600480360381019061038b919061278e565b610e33565b60405161039d9190611e7e565b60405180910390f35b60007f80ac58cd000000000000000000000000000000000000000000000000000000007bffffffffffffffffffffffffffffffffffffffffffffffffffffffff1916827bffffffffffffffffffffffffffffffffffffffffffffffffffffffff1916148061047157507f5b5e139f000000000000000000000000000000000000000000000000000000007bffffffffffffffffffffffffffffffffffffffffffffffffffffffff1916827bffffffffffffffffffffffffffffffffffffffffffffffffffffffff1916145b80610481575061048082610ec7565b5b9050919050565b606060008054610497906127fd565b80601f01602080910402602001604051908101604052809291908181526020018280546104c3906127fd565b80156105105780601f106104e557610100808354040283529160200191610510565b820191906000526020600020905b8154815290600101906020018083116104f357829003601f168201915b5050505050905090565b600061052582610f31565b6004600083815260200190815260200160002060009054906101000a900473ffffffffffffffffffffffffffffffffffffffff169050919050565b600061056b826107fe565b90508073ffffffffffffffffffffffffffffffffffffffff168373ffffffffffffffffffffffffffffffffffffffff1614156105dc576040517f08c379a00000000000000000000000000000000000000000000000000000000081526004016105d3906128a1565b60405180910390fd5b8073ffffffffffffffffffffffffffffffffffffffff166105fb610f7c565b73ffffffffffffffffffffffffffffffffffffffff16148061062a575061062981610624610f7c565b610e33565b5b610669576040517f08c379a000000000000000000000000000000000000000000000000000000000815260040161066090612933565b60405180910390fd5b6106738383610f84565b505050565b606080600060076000858152602001908152602001600020905080600001816001018180548060200260200160405190810160405280929190818152602001828054801561071b57602002820191906000526020600020905b8160009054906101000a900473ffffffffffffffffffffffffffffffffffffffff1673ffffffffffffffffffffffffffffffffffffffff16815260200190600101908083116106d1575b505050505091508080548060200260200160405190810160405280929190818152602001828054801561076d57602002820191906000526020600020905b815481526020019060010190808311610759575b505050505090509250925050915091565b61078f610789610f7c565b8261103d565b6107ce576040517f08c379a00000000000000000000000000000000000000000000000000000000081526004016107c5906129c5565b60405180910390fd5b6107d98383836110d2565b505050565b6107f983838360405180602001604052806000815250610c36565b505050565b60008061080a836113cc565b9050600073ffffffffffffffffffffffffffffffffffffffff168173ffffffffffffffffffffffffffffffffffffffff16141561087c576040517f08c379a000000000000000000000000000000000000000000000000000000000815260040161087390612a31565b60405180910390fd5b80915050919050565b606080600060076000858152602001908152602001600020905080600001816001018180548060200260200160405190810160405280929190818152602001828054801561092857602002820191906000526020600020905b8160009054906101000a900473ffffffffffffffffffffffffffffffffffffffff1673ffffffffffffffffffffffffffffffffffffffff16815260200190600101908083116108de575b505050505091508080548060200260200160405190810160405280929190818152602001828054801561097a57602002820191906000526020600020905b815481526020019060010190808311610966575b505050505090509250925050915091565b60008073ffffffffffffffffffffffffffffffffffffffff168273ffffffffffffffffffffffffffffffffffffffff1614156109fc576040517f08c379a00000000000000000000000000000000000000000000000000000000081526004016109f390612ac3565b60405180910390fd5b600360008373ffffffffffffffffffffffffffffffffffffffff1673ffffffffffffffffffffffffffffffffffffffff168152602001908152602001600020549050919050565b6000600760008581526020019081526020016000206000018054905011610a9f576040517f08c379a0000000000000000000000000000000000000000000000000000000008152600401610a9690612b2f565b60405180910390fd5b8051825114610ae3576040517f08c379a0000000000000000000000000000000000000000000000000000000008152600401610ada90612bc1565b60405180910390fd5b600060076000858152602001908152602001600020905082816000019080519060200190610b12929190611cd6565b5081816001019080519060200190610b2b929190611d60565b5083600073ffffffffffffffffffffffffffffffffffffffff163373ffffffffffffffffffffffffffffffffffffffff167fddf252ad1be2c89b69c2b068fc378daa952ba7f163c4a11628f55a4df523b3ef60405160405180910390a450505050565b606060018054610b9d906127fd565b80601f0160208091040260200160405190810160405280929190818152602001828054610bc9906127fd565b8015610c165780601f10610beb57610100808354040283529160200191610c16565b820191906000526020600020905b815481529060010190602001808311610bf957829003601f168201915b5050505050905090565b610c32610c2b610f7c565b8383611409565b5050565b610c47610c41610f7c565b8361103d565b610c86576040517f08c379a0000000000000000000000000000000000000000000000000000000008152600401610c7d906129c5565b60405180910390fd5b610c9284848484611576565b50505050565b6060610ca382610f31565b6000610cad6115d2565b90506000815111610ccd5760405180602001604052806000815250610cf8565b80610cd7846115e9565b604051602001610ce8929190612c1d565b6040516020818303038152906040525b915050919050565b60008151835114610d46576040517f08c379a0000000000000000000000000000000000000000000000000000000008152600401610d3d90612bc1565b60405180910390fd5b6000610d5260066116c1565b9050610d5e60066116cf565b610d6833826116e5565b604051806040016040528085815260200184815250600760008381526020019081526020016000206000820151816000019080519060200190610dac929190611cd6565b506020820151816001019080519060200190610dc9929190611d60565b50905050803373ffffffffffffffffffffffffffffffffffffffff16600073ffffffffffffffffffffffffffffffffffffffff167fddf252ad1be2c89b69c2b068fc378daa952ba7f163c4a11628f55a4df523b3ef60405160405180910390a48091505092915050565b6000600560008473ffffffffffffffffffffffffffffffffffffffff1673ffffffffffffffffffffffffffffffffffffffff16815260200190815260200160002060008373ffffffffffffffffffffffffffffffffffffffff1673ffffffffffffffffffffffffffffffffffffffff16815260200190815260200160002060009054906101000a900460ff16905092915050565b60007f01ffc9a7000000000000000000000000000000000000000000000000000000007bffffffffffffffffffffffffffffffffffffffffffffffffffffffff1916827bffffffffffffffffffffffffffffffffffffffffffffffffffffffff1916149050919050565b610f3a81611703565b610f79576040517f08c379a0000000000000000000000000000000000000000000000000000000008152600401610f7090612a31565b60405180910390fd5b50565b600033905090565b816004600083815260200190815260200160002060006101000a81548173ffffffffffffffffffffffffffffffffffffffff021916908373ffffffffffffffffffffffffffffffffffffffff160217905550808273ffffffffffffffffffffffffffffffffffffffff16610ff7836107fe565b73ffffffffffffffffffffffffffffffffffffffff167f8c5be1e5ebec7d5bd14f71427d1e84f3dd0314c0f7b2291e5b200ac8c7c3b92560405160405180910390a45050565b600080611049836107fe565b90508073ffffffffffffffffffffffffffffffffffffffff168473ffffffffffffffffffffffffffffffffffffffff16148061108b575061108a8185610e33565b5b806110c957508373ffffffffffffffffffffffffffffffffffffffff166110b18461051a565b73ffffffffffffffffffffffffffffffffffffffff16145b91505092915050565b8273ffffffffffffffffffffffffffffffffffffffff166110f2826107fe565b73ffffffffffffffffffffffffffffffffffffffff1614611148576040517f08c379a000000000000000000000000000000000000000000000000000000000815260040161113f90612cb3565b60405180910390fd5b600073ffffffffffffffffffffffffffffffffffffffff168273ffffffffffffffffffffffffffffffffffffffff1614156111b8576040517f08c379a00000000000000000000000000000000000000000000000000000000081526004016111af90612d45565b60405180910390fd5b6111c58383836001611744565b8273ffffffffffffffffffffffffffffffffffffffff166111e5826107fe565b73ffffffffffffffffffffffffffffffffffffffff161461123b576040517f08c379a000000000000000000000000000000000000000000000000000000000815260040161123290612cb3565b60405180910390fd5b6004600082815260200190815260200160002060006101000a81549073ffffffffffffffffffffffffffffffffffffffff02191690556001600360008573ffffffffffffffffffffffffffffffffffffffff1673ffffffffffffffffffffffffffffffffffffffff168152602001908152602001600020600082825403925050819055506001600360008473ffffffffffffffffffffffffffffffffffffffff1673ffffffffffffffffffffffffffffffffffffffff16815260200190815260200160002060008282540192505081905550816002600083815260200190815260200160002060006101000a81548173ffffffffffffffffffffffffffffffffffffffff021916908373ffffffffffffffffffffffffffffffffffffffff160217905550808273ffffffffffffffffffffffffffffffffffffffff168473ffffffffffffffffffffffffffffffffffffffff167fddf252ad1be2c89b69c2b068fc378daa952ba7f163c4a11628f55a4df523b3ef60405160405180910390a46113c7838383600161174a565b505050565b60006002600083815260200190815260200160002060009054906101000a900473ffffffffffffffffffffffffffffffffffffffff169050919050565b8173ffffffffffffffffffffffffffffffffffffffff168373ffffffffffffffffffffffffffffffffffffffff161415611478576040517f08c379a000000000000000000000000000000000000000000000000000000000815260040161146f90612db1565b60405180910390fd5b80600560008573ffffffffffffffffffffffffffffffffffffffff1673ffffffffffffffffffffffffffffffffffffffff16815260200190815260200160002060008473ffffffffffffffffffffffffffffffffffffffff1673ffffffffffffffffffffffffffffffffffffffff16815260200190815260200160002060006101000a81548160ff0219169083151502179055508173ffffffffffffffffffffffffffffffffffffffff168373ffffffffffffffffffffffffffffffffffffffff167f17307eab39ab6107e8899845ad3d59bd9653f200f220920489ca2b5937696c31836040516115699190611e7e565b60405180910390a3505050565b6115818484846110d2565b61158d84848484611750565b6115cc576040517f08c379a00000000000000000000000000000000000000000000000000000000081526004016115c390612e43565b60405180910390fd5b50505050565b606060405180602001604052806000815250905090565b6060600060016115f8846118e7565b01905060008167ffffffffffffffff811115611617576116166122e1565b5b6040519080825280601f01601f1916602001820160405280156116495781602001600182028036833780820191505090505b509050600082602001820190505b6001156116b6578080600190039150507f3031323334353637383961626364656600000000000000000000000000000000600a86061a8153600a85816116a05761169f612e63565b5b04945060008514156116b1576116b6565b611657565b819350505050919050565b600081600001549050919050565b6001816000016000828254019250508190555050565b6116ff828260405180602001604052806000815250611a3a565b5050565b60008073ffffffffffffffffffffffffffffffffffffffff16611725836113cc565b73ffffffffffffffffffffffffffffffffffffffff1614159050919050565b50505050565b50505050565b60006117718473ffffffffffffffffffffffffffffffffffffffff16611a95565b156118da578373ffffffffffffffffffffffffffffffffffffffff1663150b7a0261179a610f7c565b8786866040518563ffffffff1660e01b81526004016117bc9493929190612ee7565b602060405180830381600087803b1580156117d657600080fd5b505af192505050801561180757506040513d601f19601f820116820180604052508101906118049190612f48565b60015b61188a573d8060008114611837576040519150601f19603f3d011682016040523d82523d6000602084013e61183c565b606091505b50600081511415611882576040517f08c379a000000000000000000000000000000000000000000000000000000000815260040161187990612e43565b60405180910390fd5b805181602001fd5b63150b7a0260e01b7bffffffffffffffffffffffffffffffffffffffffffffffffffffffff1916817bffffffffffffffffffffffffffffffffffffffffffffffffffffffff1916149150506118df565b600190505b949350505050565b600080600090507a184f03e93ff9f4daa797ed6e38ed64bf6a1f0100000000000000008310611945577a184f03e93ff9f4daa797ed6e38ed64bf6a1f010000000000000000838161193b5761193a612e63565b5b0492506040810190505b6d04ee2d6d415b85acef81000000008310611982576d04ee2d6d415b85acef8100000000838161197857611977612e63565b5b0492506020810190505b662386f26fc1000083106119b157662386f26fc1000083816119a7576119a6612e63565b5b0492506010810190505b6305f5e10083106119da576305f5e10083816119d0576119cf612e63565b5b0492506008810190505b61271083106119ff5761271083816119f5576119f4612e63565b5b0492506004810190505b60648310611a225760648381611a1857611a17612e63565b5b0492506002810190505b600a8310611a31576001810190505b80915050919050565b611a448383611ab8565b611a516000848484611750565b611a90576040517f08c379a0000000000000000000000000000000000000000000000000000000008152600401611a8790612e43565b60405180910390fd5b505050565b6000808273ffffffffffffffffffffffffffffffffffffffff163b119050919050565b600073ffffffffffffffffffffffffffffffffffffffff168273ffffffffffffffffffffffffffffffffffffffff161415611b28576040517f08c379a0000000000000000000000000000000000000000000000000000000008152600401611b1f90612fc1565b60405180910390fd5b611b3181611703565b15611b71576040517f08c379a0000000000000000000000000000000000000000000000000000000008152600401611b689061302d565b60405180910390fd5b611b7f600083836001611744565b611b8881611703565b15611bc8576040517f08c379a0000000000000000000000000000000000000000000000000000000008152600401611bbf9061302d565b60405180910390fd5b6001600360008473ffffffffffffffffffffffffffffffffffffffff1673ffffffffffffffffffffffffffffffffffffffff16815260200190815260200160002060008282540192505081905550816002600083815260200190815260200160002060006101000a81548173ffffffffffffffffffffffffffffffffffffffff021916908373ffffffffffffffffffffffffffffffffffffffff160217905550808273ffffffffffffffffffffffffffffffffffffffff16600073ffffffffffffffffffffffffffffffffffffffff167fddf252ad1be2c89b69c2b068fc378daa952ba7f163c4a11628f55a4df523b3ef60405160405180910390a4611cd260008383600161174a565b5050565b828054828255906000526020600020908101928215611d4f579160200282015b82811115611d4e5782518260006101000a81548173ffffffffffffffffffffffffffffffffffffffff021916908373ffffffffffffffffffffffffffffffffffffffff16021790555091602001919060010190611cf6565b5b509050611d5c9190611dad565b5090565b828054828255906000526020600020908101928215611d9c579160200282015b82811115611d9b578251825591602001919060010190611d80565b5b509050611da99190611dad565b5090565b5b80821115611dc6576000816000905550600101611dae565b5090565b6000604051905090565b600080fd5b600080fd5b60007fffffffff0000000000000000000000000000000000000000000000000000000082169050919050565b611e1381611dde565b8114611e1e57600080fd5b50565b600081359050611e3081611e0a565b92915050565b600060208284031215611e4c57611e4b611dd4565b5b6000611e5a84828501611e21565b91505092915050565b60008115159050919050565b611e7881611e63565b82525050565b6000602082019050611e936000830184611e6f565b92915050565b600081519050919050565b600082825260208201905092915050565b60005b83811015611ed3578082015181840152602081019050611eb8565b83811115611ee2576000848401525b50505050565b6000601f19601f8301169050919050565b6000611f0482611e99565b611f0e8185611ea4565b9350611f1e818560208601611eb5565b611f2781611ee8565b840191505092915050565b60006020820190508181036000830152611f4c8184611ef9565b905092915050565b6000819050919050565b611f6781611f54565b8114611f7257600080fd5b50565b600081359050611f8481611f5e565b92915050565b600060208284031215611fa057611f9f611dd4565b5b6000611fae84828501611f75565b91505092915050565b600073ffffffffffffffffffffffffffffffffffffffff82169050919050565b6000611fe282611fb7565b9050919050565b611ff281611fd7565b82525050565b600060208201905061200d6000830184611fe9565b92915050565b61201c81611fd7565b811461202757600080fd5b50565b60008135905061203981612013565b92915050565b6000806040838503121561205657612055611dd4565b5b60006120648582860161202a565b925050602061207585828601611f75565b9150509250929050565b600081519050919050565b600082825260208201905092915050565b6000819050602082019050919050565b6120b481611fd7565b82525050565b60006120c683836120ab565b60208301905092915050565b6000602082019050919050565b60006120ea8261207f565b6120f4818561208a565b93506120ff8361209b565b8060005b8381101561213057815161211788826120ba565b9750612122836120d2565b925050600181019050612103565b5085935050505092915050565b600081519050919050565b600082825260208201905092915050565b6000819050602082019050919050565b61217281611f54565b82525050565b60006121848383612169565b60208301905092915050565b6000602082019050919050565b60006121a88261213d565b6121b28185612148565b93506121bd83612159565b8060005b838110156121ee5781516121d58882612178565b97506121e083612190565b9250506001810190506121c1565b5085935050505092915050565b6000604082019050818103600083015261221581856120df565b90508181036020830152612229818461219d565b90509392505050565b60008060006060848603121561224b5761224a611dd4565b5b60006122598682870161202a565b935050602061226a8682870161202a565b925050604061227b86828701611f75565b9150509250925092565b60006020828403121561229b5761229a611dd4565b5b60006122a98482850161202a565b91505092915050565b6122bb81611f54565b82525050565b60006020820190506122d660008301846122b2565b92915050565b600080fd5b7f4e487b7100000000000000000000000000000000000000000000000000000000600052604160045260246000fd5b61231982611ee8565b810181811067ffffffffffffffff82111715612338576123376122e1565b5b80604052505050565b600061234b611dca565b90506123578282612310565b919050565b600067ffffffffffffffff821115612377576123766122e1565b5b602082029050602081019050919050565b600080fd5b60006123a061239b8461235c565b612341565b905080838252602082019050602084028301858111156123c3576123c2612388565b5b835b818110156123ec57806123d8888261202a565b8452602084019350506020810190506123c5565b5050509392505050565b600082601f83011261240b5761240a6122dc565b5b813561241b84826020860161238d565b91505092915050565b600067ffffffffffffffff82111561243f5761243e6122e1565b5b602082029050602081019050919050565b600061246361245e84612424565b612341565b9050808382526020820190506020840283018581111561248657612485612388565b5b835b818110156124af578061249b8882611f75565b845260208401935050602081019050612488565b5050509392505050565b600082601f8301126124ce576124cd6122dc565b5b81356124de848260208601612450565b91505092915050565b600080600060608486031215612500576124ff611dd4565b5b600061250e86828701611f75565b935050602084013567ffffffffffffffff81111561252f5761252e611dd9565b5b61253b868287016123f6565b925050604084013567ffffffffffffffff81111561255c5761255b611dd9565b5b612568868287016124b9565b9150509250925092565b61257b81611e63565b811461258657600080fd5b50565b60008135905061259881612572565b92915050565b600080604083850312156125b5576125b4611dd4565b5b60006125c38582860161202a565b92505060206125d485828601612589565b9150509250929050565b600080fd5b600067ffffffffffffffff8211156125fe576125fd6122e1565b5b61260782611ee8565b9050602081019050919050565b82818337600083830152505050565b6000612636612631846125e3565b612341565b905082815260208101848484011115612652576126516125de565b5b61265d848285612614565b509392505050565b600082601f83011261267a576126796122dc565b5b813561268a848260208601612623565b91505092915050565b600080600080608085870312156126ad576126ac611dd4565b5b60006126bb8782880161202a565b94505060206126cc8782880161202a565b93505060406126dd87828801611f75565b925050606085013567ffffffffffffffff8111156126fe576126fd611dd9565b5b61270a87828801612665565b91505092959194509250565b6000806040838503121561272d5761272c611dd4565b5b600083013567ffffffffffffffff81111561274b5761274a611dd9565b5b612757858286016123f6565b925050602083013567ffffffffffffffff81111561277857612777611dd9565b5b612784858286016124b9565b9150509250929050565b600080604083850312156127a5576127a4611dd4565b5b60006127b38582860161202a565b92505060206127c48582860161202a565b9150509250929050565b7f4e487b7100000000000000000000000000000000000000000000000000000000600052602260045260246000fd5b6000600282049050600182168061281557607f821691505b60208210811415612829576128286127ce565b5b50919050565b7f4552433732313a20617070726f76616c20746f2063757272656e74206f776e6560008201527f7200000000000000000000000000000000000000000000000000000000000000602082015250565b600061288b602183611ea4565b91506128968261282f565b604082019050919050565b600060208201905081810360008301526128ba8161287e565b9050919050565b7f4552433732313a20617070726f76652063616c6c6572206973206e6f7420746f60008201527f6b656e206f776e6572206f7220617070726f76656420666f7220616c6c000000602082015250565b600061291d603d83611ea4565b9150612928826128c1565b604082019050919050565b6000602082019050818103600083015261294c81612910565b9050919050565b7f4552433732313a2063616c6c6572206973206e6f7420746f6b656e206f776e6560008201527f72206f7220617070726f76656400000000000000000000000000000000000000602082015250565b60006129af602d83611ea4565b91506129ba82612953565b604082019050919050565b600060208201905081810360008301526129de816129a2565b9050919050565b7f4552433732313a20696e76616c696420746f6b656e2049440000000000000000600082015250565b6000612a1b601883611ea4565b9150612a26826129e5565b602082019050919050565b60006020820190508181036000830152612a4a81612a0e565b9050919050565b7f4552433732313a2061646472657373207a65726f206973206e6f74206120766160008201527f6c6964206f776e65720000000000000000000000000000000000000000000000602082015250565b6000612aad602983611ea4565b9150612ab882612a51565b604082019050919050565b60006020820190508181036000830152612adc81612aa0565b9050919050565b7f546f6b656e20646f6573206e6f74206578697374000000000000000000000000600082015250565b6000612b19601483611ea4565b9150612b2482612ae3565b602082019050919050565b60006020820190508181036000830152612b4881612b0c565b9050919050565b7f4f776e65727320616e642073686172657320617272617973206d75737420686160008201527f7665207468652073616d65206c656e6774680000000000000000000000000000602082015250565b6000612bab603283611ea4565b9150612bb682612b4f565b604082019050919050565b60006020820190508181036000830152612bda81612b9e565b9050919050565b600081905092915050565b6000612bf782611e99565b612c018185612be1565b9350612c11818560208601611eb5565b80840191505092915050565b6000612c298285612bec565b9150612c358284612bec565b91508190509392505050565b7f4552433732313a207472616e736665722066726f6d20696e636f72726563742060008201527f6f776e6572000000000000000000000000000000000000000000000000000000602082015250565b6000612c9d602583611ea4565b9150612ca882612c41565b604082019050919050565b60006020820190508181036000830152612ccc81612c90565b9050919050565b7f4552433732313a207472616e7366657220746f20746865207a65726f2061646460008201527f7265737300000000000000000000000000000000000000000000000000000000602082015250565b6000612d2f602483611ea4565b9150612d3a82612cd3565b604082019050919050565b60006020820190508181036000830152612d5e81612d22565b9050919050565b7f4552433732313a20617070726f766520746f2063616c6c657200000000000000600082015250565b6000612d9b601983611ea4565b9150612da682612d65565b602082019050919050565b60006020820190508181036000830152612dca81612d8e565b9050919050565b7f4552433732313a207472616e7366657220746f206e6f6e20455243373231526560008201527f63656976657220696d706c656d656e7465720000000000000000000000000000602082015250565b6000612e2d603283611ea4565b9150612e3882612dd1565b604082019050919050565b60006020820190508181036000830152612e5c81612e20565b9050919050565b7f4e487b7100000000000000000000000000000000000000000000000000000000600052601260045260246000fd5b600081519050919050565b600082825260208201905092915050565b6000612eb982612e92565b612ec38185612e9d565b9350612ed3818560208601611eb5565b612edc81611ee8565b840191505092915050565b6000608082019050612efc6000830187611fe9565b612f096020830186611fe9565b612f1660408301856122b2565b8181036060830152612f288184612eae565b905095945050505050565b600081519050612f4281611e0a565b92915050565b600060208284031215612f5e57612f5d611dd4565b5b6000612f6c84828501612f33565b91505092915050565b7f4552433732313a206d696e7420746f20746865207a65726f2061646472657373600082015250565b6000612fab602083611ea4565b9150612fb682612f75565b602082019050919050565b60006020820190508181036000830152612fda81612f9e565b9050919050565b7f4552433732313a20746f6b656e20616c7265616479206d696e74656400000000600082015250565b6000613017601c83611ea4565b915061302282612fe1565b602082019050919050565b600060208201905081810360008301526130468161300a565b905091905056fea26469706673582212207d8a7a15db8ebb2dd9072cae135676e06a1cfaf33fda50a14e394aa5308e579b64736f6c63430008090033",
  "linkReferences": {},
  "deployedLinkReferences": {}
}